{
  "_format": "hh-sol-artifact-1",
  "contractName": "AuctionDeposit",
  "sourceName": "contracts/AuctionDeposit.sol",
  "abi": [
    {
      "anonymous": false,
      "inputs": [
        {
          "indexed": true,
          "internalType": "address",
          "name": "user",
          "type": "address"
        },
        {
          "indexed": false,
          "internalType": "uint256",
          "name": "amount",
          "type": "uint256"
        }
      ],
      "name": "Deposit",
      "type": "event"
    },
    {
      "anonymous": false,
      "inputs": [
        {
          "indexed": false,
          "internalType": "uint8",
          "name": "version",
          "type": "uint8"
        }
      ],
      "name": "Initialized",
      "type": "event"
    },
    {
      "anonymous": false,
      "inputs": [
        {
          "indexed": true,
          "internalType": "address",
          "name": "user",
          "type": "address"
        },
        {
          "indexed": false,
          "internalType": "uint256",
          "name": "amount",
          "type": "uint256"
        }
      ],
      "name": "SendToTreasury",
      "type": "event"
    },
    {
      "anonymous": false,
      "inputs": [
        {
          "indexed": true,
          "internalType": "address",
          "name": "user",
          "type": "address"
        },
        {
          "indexed": false,
          "internalType": "uint256",
          "name": "amount",
          "type": "uint256"
        }
      ],
      "name": "Withdraw",
      "type": "event"
    },
    {
      "inputs": [],
      "name": "auctionAdminAddr",
      "outputs": [
        {
          "internalType": "address",
          "name": "",
          "type": "address"
        }
      ],
      "stateMutability": "view",
      "type": "function"
    },
    {
      "inputs": [],
      "name": "communityTokenAddr",
      "outputs": [
        {
          "internalType": "address",
          "name": "",
          "type": "address"
        }
      ],
      "stateMutability": "view",
      "type": "function"
    },
    {
      "inputs": [
        {
          "internalType": "uint256",
          "name": "amount",
          "type": "uint256"
        }
      ],
      "name": "deposit",
      "outputs": [],
      "stateMutability": "nonpayable",
      "type": "function"
    },
    {
      "inputs": [],
      "name": "getAllDeposit",
      "outputs": [
        {
          "components": [
            {
              "internalType": "address",
              "name": "user",
              "type": "address"
            },
            {
              "internalType": "uint256",
              "name": "amount",
              "type": "uint256"
            }
          ],
          "internalType": "struct IAuctionDeposit.DepositInfo[]",
          "name": "",
          "type": "tuple[]"
        }
      ],
      "stateMutability": "pure",
      "type": "function"
    },
    {
      "inputs": [
        {
          "internalType": "address",
          "name": "user",
          "type": "address"
        }
      ],
      "name": "getDepositByAddress",
      "outputs": [
        {
          "components": [
            {
              "internalType": "address",
              "name": "user",
              "type": "address"
            },
            {
              "internalType": "uint256",
              "name": "amount",
              "type": "uint256"
            }
          ],
          "internalType": "struct IAuctionDeposit.DepositInfo",
          "name": "",
          "type": "tuple"
        }
      ],
      "stateMutability": "view",
      "type": "function"
    },
    {
      "inputs": [
        {
          "internalType": "address",
          "name": "_monoNFTAddr",
          "type": "address"
        }
      ],
      "name": "initialize",
      "outputs": [],
      "stateMutability": "nonpayable",
      "type": "function"
    },
    {
      "inputs": [],
      "name": "lock",
      "outputs": [],
      "stateMutability": "nonpayable",
      "type": "function"
    },
    {
      "inputs": [],
      "name": "locked",
      "outputs": [
        {
          "internalType": "bool",
          "name": "",
          "type": "bool"
        }
      ],
      "stateMutability": "view",
      "type": "function"
    },
    {
      "inputs": [],
      "name": "maxDeposit",
      "outputs": [
        {
          "internalType": "uint256",
          "name": "",
          "type": "uint256"
        }
      ],
      "stateMutability": "view",
      "type": "function"
    },
    {
      "inputs": [],
      "name": "monoNFTAddr",
      "outputs": [
        {
          "internalType": "address",
          "name": "",
          "type": "address"
        }
      ],
      "stateMutability": "view",
      "type": "function"
    },
    {
      "inputs": [
        {
          "internalType": "address",
          "name": "from",
          "type": "address"
        },
        {
          "internalType": "uint256",
          "name": "amount",
          "type": "uint256"
        },
        {
          "components": [
            {
              "internalType": "address",
              "name": "shareHolder",
              "type": "address"
            },
            {
              "internalType": "uint8",
              "name": "shareRatio",
              "type": "uint8"
            }
          ],
          "internalType": "struct IMonoNFT.ShareOfCommunityToken[]",
          "name": "sharesOfCommunityToken",
          "type": "tuple[]"
        }
      ],
      "name": "payForClaim",
      "outputs": [],
      "stateMutability": "nonpayable",
      "type": "function"
    },
    {
      "inputs": [
        {
          "internalType": "address",
          "name": "_auctionAdminAddr",
          "type": "address"
        }
      ],
      "name": "setAuctionAdminAddress",
      "outputs": [],
      "stateMutability": "nonpayable",
      "type": "function"
    },
    {
      "inputs": [
        {
          "internalType": "address",
          "name": "_communityTokenAddr",
          "type": "address"
        }
      ],
      "name": "setCommunityTokenAddress",
      "outputs": [],
      "stateMutability": "nonpayable",
      "type": "function"
    },
    {
      "inputs": [
        {
          "internalType": "address",
          "name": "_monoNFTAddr",
          "type": "address"
        }
      ],
      "name": "setMonoNFTAddress",
      "outputs": [],
      "stateMutability": "nonpayable",
      "type": "function"
    },
    {
      "inputs": [],
      "name": "unlock",
      "outputs": [],
      "stateMutability": "nonpayable",
      "type": "function"
    },
    {
      "inputs": [
        {
          "internalType": "uint256",
          "name": "amount",
          "type": "uint256"
        }
      ],
      "name": "withdraw",
      "outputs": [],
      "stateMutability": "nonpayable",
      "type": "function"
    }
  ],
  "bytecode": "0x608060405234801561001057600080fd5b5061162b806100206000396000f3fe608060405234801561001057600080fd5b50600436106101005760003560e01c8063b6b55f2511610097578063de9fddbb11610066578063de9fddbb14610253578063e4f090b714610266578063e81b94ea14610279578063f83d08ba1461028c57600080fd5b8063b6b55f25146101fd578063c414324714610210578063c4d66de814610223578063cf3090121461023657600080fd5b80633da03453116100d35780633da03453146101705780636083e59a146101c9578063988f21c6146101e0578063a69df4b5146101f557600080fd5b806324b5c928146101055780632613a68014610135578063262e1d0c1461014a5780632e1a7d4d1461015d575b600080fd5b603354610118906001600160a01b031681565b6040516001600160a01b0390911681526020015b60405180910390f35b610148610143366004611352565b610294565b005b603454610118906001600160a01b031681565b61014861016b366004611374565b61039f565b6101bc61017e366004611352565b60408051808201825260008082526020918201819052825180840184526001600160a01b039490941680855281526038825291909120549082015290565b60405161012c919061138d565b6101d260365481565b60405190815260200161012c565b6101e86104ea565b60405161012c91906113af565b610148610532565b61014861020b366004611374565b610615565b61014861021e366004611352565b6108d7565b610148610231366004611352565b6109dd565b6037546102439060ff1681565b604051901515815260200161012c565b610148610261366004611352565b610b33565b603554610118906001600160a01b031681565b61014861028736600461140f565b610c39565b610148610e56565b603454604051632474521560e21b8152600060048201523360248201526001600160a01b03909116906391d1485490604401602060405180830381865afa1580156102e3573d6000803e3d6000fd5b505050506040513d601f19601f820116820180604052508101906103079190611499565b6103705760405162461bcd60e51b815260206004820152602f60248201527f41756374696f6e4465706f7369743a204f6e6c792061646d696e73206f66204d60448201526e1bdb9bd391950818d85b8818d85b1b608a1b60648201526084015b60405180910390fd5b6033805473ffffffffffffffffffffffffffffffffffffffff19166001600160a01b0392909216919091179055565b60375460ff16156103f25760405162461bcd60e51b815260206004820152601660248201527f41756374696f6e4465706f7369743a204c6f636b6564000000000000000000006044820152606401610367565b336000908152603860205260409020548111156104775760405162461bcd60e51b815260206004820152602f60248201527f41756374696f6e4465706f7369743a20576974686472617720616d6f756e742060448201527f65786365656473206465706f73697400000000000000000000000000000000006064820152608401610367565b33600090815260386020526040812080548392906104969084906114d1565b90915550506033546104b2906001600160a01b03163383610f3c565b60405181815233907f884edad9ce6fa2440d8a54cc123490eb96d2768479d49ff9c7366125a94243649060200160405180910390a250565b60408051600080825260208201909252606091908161052b565b60408051808201909152600080825260208201528152602001906001900390816105045790505b5092915050565b603454604051632474521560e21b8152600060048201523360248201526001600160a01b03909116906391d1485490604401602060405180830381865afa158015610581573d6000803e3d6000fd5b505050506040513d601f19601f820116820180604052508101906105a59190611499565b6106095760405162461bcd60e51b815260206004820152602f60248201527f41756374696f6e4465706f7369743a204f6e6c792061646d696e73206f66204d60448201526e1bdb9bd391950818d85b8818d85b1b608a1b6064820152608401610367565b6037805460ff19169055565b60375460ff16156106685760405162461bcd60e51b815260206004820152601660248201527f41756374696f6e4465706f7369743a204c6f636b6564000000000000000000006044820152606401610367565b600081116106de5760405162461bcd60e51b815260206004820152602f60248201527f41756374696f6e4465706f7369743a20416d6f756e742073686f756c6420626560448201527f2067726561746572207468616e203000000000000000000000000000000000006064820152608401610367565b603654336000908152603860205260409020546106fc9083906114e4565b11156107705760405162461bcd60e51b815260206004820152602660248201527f41756374696f6e4465706f7369743a204465706f736974206c696d697420657860448201527f63656564656400000000000000000000000000000000000000000000000000006064820152608401610367565b6033546040517f23b872dd000000000000000000000000000000000000000000000000000000008152336004820152306024820152604481018390526000916001600160a01b0316906323b872dd906064016020604051808303816000875af11580156107e1573d6000803e3d6000fd5b505050506040513d601f19601f820116820180604052508101906108059190611499565b90508061087a5760405162461bcd60e51b815260206004820152602f60248201527f41756374696f6e4465706f7369743a20436f6d6d756e69747920746f6b656e2060448201527f7472616e73666572206661696c656400000000000000000000000000000000006064820152608401610367565b33600090815260386020526040812080548492906108999084906114e4565b909155505060405182815233907fe1fffcc4923d04b559f4d29a8bfc6cda04eb5b0d3c460751c2402c5c5cc9109c9060200160405180910390a25050565b603454604051632474521560e21b8152600060048201523360248201526001600160a01b03909116906391d1485490604401602060405180830381865afa158015610926573d6000803e3d6000fd5b505050506040513d601f19601f8201168201806040525081019061094a9190611499565b6109ae5760405162461bcd60e51b815260206004820152602f60248201527f41756374696f6e4465706f7369743a204f6e6c792061646d696e73206f66204d60448201526e1bdb9bd391950818d85b8818d85b1b608a1b6064820152608401610367565b6034805473ffffffffffffffffffffffffffffffffffffffff19166001600160a01b0392909216919091179055565b600054610100900460ff16158080156109fd5750600054600160ff909116105b80610a175750303b158015610a17575060005460ff166001145b610a895760405162461bcd60e51b815260206004820152602e60248201527f496e697469616c697a61626c653a20636f6e747261637420697320616c72656160448201527f647920696e697469616c697a65640000000000000000000000000000000000006064820152608401610367565b6000805460ff191660011790558015610aac576000805461ff0019166101001790555b610ab4610fc1565b6034805473ffffffffffffffffffffffffffffffffffffffff19166001600160a01b03841617905568878678326eac9000006036558015610b2f576000805461ff0019169055604051600181527f7f26b83ff96e1f2b6a682f133852f6798a09c465da95921460cefb38474024989060200160405180910390a15b5050565b603454604051632474521560e21b8152600060048201523360248201526001600160a01b03909116906391d1485490604401602060405180830381865afa158015610b82573d6000803e3d6000fd5b505050506040513d601f19601f82011682018060405250810190610ba69190611499565b610c0a5760405162461bcd60e51b815260206004820152602f60248201527f41756374696f6e4465706f7369743a204f6e6c792061646d696e73206f66204d60448201526e1bdb9bd391950818d85b8818d85b1b608a1b6064820152608401610367565b6035805473ffffffffffffffffffffffffffffffffffffffff19166001600160a01b0392909216919091179055565b6034546001600160a01b03163314610cb95760405162461bcd60e51b815260206004820152603a60248201527f41756374696f6e4465706f7369743a204f6e6c79204d6f6e6f4e46542063616e60448201527f2063616c6c20706179466f72436c61696d2066756e6374696f6e0000000000006064820152608401610367565b6001600160a01b038416600090815260386020526040902054831115610d475760405162461bcd60e51b815260206004820152602c60248201527f41756374696f6e4465706f7369743a204465706f73697420616d6f756e74206960448201527f73206e6f7420656e6f75676800000000000000000000000000000000000000006064820152608401610367565b6001600160a01b03841660009081526038602052604081208054859290610d6f9084906114d1565b9091555060009050610d82600a856114f7565b603554603354919250610da2916001600160a01b03908116911683610f3c565b6000610dae82866114d1565b905060005b83811015610e4d57610e3b858583818110610dd057610dd0611519565b610de69260206040909202019081019150611352565b868684818110610df857610df8611519565b9050604002016020016020810190610e10919061152f565b60ff16610e1e6064866114f7565b610e289190611552565b6033546001600160a01b03169190610f3c565b80610e4581611569565b915050610db3565b50505050505050565b603454604051632474521560e21b8152600060048201523360248201526001600160a01b03909116906391d1485490604401602060405180830381865afa158015610ea5573d6000803e3d6000fd5b505050506040513d601f19601f82011682018060405250810190610ec99190611499565b610f2d5760405162461bcd60e51b815260206004820152602f60248201527f41756374696f6e4465706f7369743a204f6e6c792061646d696e73206f66204d60448201526e1bdb9bd391950818d85b8818d85b1b608a1b6064820152608401610367565b6037805460ff19166001179055565b604080516001600160a01b038416602482015260448082018490528251808303909101815260649091019091526020810180517bffffffffffffffffffffffffffffffffffffffffffffffffffffffff167fa9059cbb00000000000000000000000000000000000000000000000000000000179052610fbc908490611036565b505050565b600054610100900460ff1661102c5760405162461bcd60e51b815260206004820152602b60248201527f496e697469616c697a61626c653a20636f6e7472616374206973206e6f74206960448201526a6e697469616c697a696e6760a81b6064820152608401610367565b61103461111e565b565b600061108b826040518060400160405280602081526020017f5361666545524332303a206c6f772d6c6576656c2063616c6c206661696c6564815250856001600160a01b031661118f9092919063ffffffff16565b90508051600014806110ac5750808060200190518101906110ac9190611499565b610fbc5760405162461bcd60e51b815260206004820152602a60248201527f5361666545524332303a204552433230206f7065726174696f6e20646964206e60448201527f6f742073756363656564000000000000000000000000000000000000000000006064820152608401610367565b600054610100900460ff166111895760405162461bcd60e51b815260206004820152602b60248201527f496e697469616c697a61626c653a20636f6e7472616374206973206e6f74206960448201526a6e697469616c697a696e6760a81b6064820152608401610367565b60018055565b606061119e84846000856111a6565b949350505050565b60608247101561121e5760405162461bcd60e51b815260206004820152602660248201527f416464726573733a20696e73756666696369656e742062616c616e636520666f60448201527f722063616c6c00000000000000000000000000000000000000000000000000006064820152608401610367565b600080866001600160a01b0316858760405161123a91906115a6565b60006040518083038185875af1925050503d8060008114611277576040519150601f19603f3d011682016040523d82523d6000602084013e61127c565b606091505b509150915061128d87838387611298565b979650505050505050565b60608315611307578251600003611300576001600160a01b0385163b6113005760405162461bcd60e51b815260206004820152601d60248201527f416464726573733a2063616c6c20746f206e6f6e2d636f6e74726163740000006044820152606401610367565b508161119e565b61119e838381511561131c5781518083602001fd5b8060405162461bcd60e51b815260040161036791906115c2565b80356001600160a01b038116811461134d57600080fd5b919050565b60006020828403121561136457600080fd5b61136d82611336565b9392505050565b60006020828403121561138657600080fd5b5035919050565b81516001600160a01b0316815260208083015190820152604081015b92915050565b602080825282518282018190526000919060409081850190868401855b82811015611402576113f284835180516001600160a01b03168252602090810151910152565b92840192908501906001016113cc565b5091979650505050505050565b6000806000806060858703121561142557600080fd5b61142e85611336565b935060208501359250604085013567ffffffffffffffff8082111561145257600080fd5b818701915087601f83011261146657600080fd5b81358181111561147557600080fd5b8860208260061b850101111561148a57600080fd5b95989497505060200194505050565b6000602082840312156114ab57600080fd5b8151801515811461136d57600080fd5b634e487b7160e01b600052601160045260246000fd5b818103818111156113a9576113a96114bb565b808201808211156113a9576113a96114bb565b60008261151457634e487b7160e01b600052601260045260246000fd5b500490565b634e487b7160e01b600052603260045260246000fd5b60006020828403121561154157600080fd5b813560ff8116811461136d57600080fd5b80820281158282048414176113a9576113a96114bb565b60006001820161157b5761157b6114bb565b5060010190565b60005b8381101561159d578181015183820152602001611585565b50506000910152565b600082516115b8818460208701611582565b9190910192915050565b60208152600082518060208401526115e1816040850160208701611582565b601f01601f1916919091016040019291505056fea2646970667358221220b32a8b4235360d86366a6621572dc4ea6f0b7c36a3692fdc907b10d3487c5e5064736f6c63430008120033",
  "linkReferences": {},
  "deployedLinkReferences": {}
}