{
  "_format": "hh-sol-artifact-1",
  "contractName": "MonoNFT",
  "sourceName": "contracts/MonoNFT.sol",
  "abi": [
    {
      "anonymous": false,
      "inputs": [
        {
          "indexed": true,
          "internalType": "address",
          "name": "owner",
          "type": "address"
        },
        {
          "indexed": true,
          "internalType": "address",
          "name": "approved",
          "type": "address"
        },
        {
          "indexed": true,
          "internalType": "uint256",
          "name": "tokenId",
          "type": "uint256"
        }
      ],
      "name": "Approval",
      "type": "event"
    },
    {
      "anonymous": false,
      "inputs": [
        {
          "indexed": true,
          "internalType": "address",
          "name": "owner",
          "type": "address"
        },
        {
          "indexed": true,
          "internalType": "address",
          "name": "operator",
          "type": "address"
        },
        {
          "indexed": false,
          "internalType": "bool",
          "name": "approved",
          "type": "bool"
        }
      ],
      "name": "ApprovalForAll",
      "type": "event"
    },
    {
      "anonymous": false,
      "inputs": [
        {
          "indexed": true,
          "internalType": "uint256",
          "name": "tokenId",
          "type": "uint256"
        },
        {
          "indexed": true,
          "internalType": "address",
          "name": "user",
          "type": "address"
        },
        {
          "indexed": false,
          "internalType": "uint256",
          "name": "price",
          "type": "uint256"
        }
      ],
      "name": "Claim",
      "type": "event"
    },
    {
      "anonymous": false,
      "inputs": [
        {
          "indexed": true,
          "internalType": "uint256",
          "name": "tokenId",
          "type": "uint256"
        },
        {
          "indexed": true,
          "internalType": "address",
          "name": "winner",
          "type": "address"
        },
        {
          "indexed": false,
          "internalType": "uint256",
          "name": "price",
          "type": "uint256"
        }
      ],
      "name": "ConfirmWinner",
      "type": "event"
    },
    {
      "anonymous": false,
      "inputs": [
        {
          "indexed": false,
          "internalType": "uint8",
          "name": "version",
          "type": "uint8"
        }
      ],
      "name": "Initialized",
      "type": "event"
    },
    {
      "anonymous": false,
      "inputs": [
        {
          "indexed": true,
          "internalType": "uint256",
          "name": "tokenId",
          "type": "uint256"
        },
        {
          "components": [
            {
              "internalType": "uint256",
              "name": "tokenId",
              "type": "uint256"
            },
            {
              "internalType": "address",
              "name": "donor",
              "type": "address"
            },
            {
              "internalType": "uint64",
              "name": "expiresDuration",
              "type": "uint64"
            },
            {
              "internalType": "string",
              "name": "uri",
              "type": "string"
            },
            {
              "internalType": "enum IMonoNFT.MonoNFTStatus",
              "name": "status",
              "type": "uint8"
            },
            {
              "components": [
                {
                  "internalType": "address",
                  "name": "shareHolder",
                  "type": "address"
                },
                {
                  "internalType": "uint8",
                  "name": "shareRatio",
                  "type": "uint8"
                }
              ],
              "internalType": "struct IMonoNFT.ShareOfCommunityToken[]",
              "name": "sharesOfCommunityToken",
              "type": "tuple[]"
            }
          ],
          "indexed": false,
          "internalType": "struct IMonoNFT.MonoNFT",
          "name": "_monoNFT",
          "type": "tuple"
        }
      ],
      "name": "Register",
      "type": "event"
    },
    {
      "anonymous": false,
      "inputs": [
        {
          "indexed": true,
          "internalType": "bytes32",
          "name": "role",
          "type": "bytes32"
        },
        {
          "indexed": true,
          "internalType": "bytes32",
          "name": "previousAdminRole",
          "type": "bytes32"
        },
        {
          "indexed": true,
          "internalType": "bytes32",
          "name": "newAdminRole",
          "type": "bytes32"
        }
      ],
      "name": "RoleAdminChanged",
      "type": "event"
    },
    {
      "anonymous": false,
      "inputs": [
        {
          "indexed": true,
          "internalType": "bytes32",
          "name": "role",
          "type": "bytes32"
        },
        {
          "indexed": true,
          "internalType": "address",
          "name": "account",
          "type": "address"
        },
        {
          "indexed": true,
          "internalType": "address",
          "name": "sender",
          "type": "address"
        }
      ],
      "name": "RoleGranted",
      "type": "event"
    },
    {
      "anonymous": false,
      "inputs": [
        {
          "indexed": true,
          "internalType": "bytes32",
          "name": "role",
          "type": "bytes32"
        },
        {
          "indexed": true,
          "internalType": "address",
          "name": "account",
          "type": "address"
        },
        {
          "indexed": true,
          "internalType": "address",
          "name": "sender",
          "type": "address"
        }
      ],
      "name": "RoleRevoked",
      "type": "event"
    },
    {
      "anonymous": false,
      "inputs": [
        {
          "indexed": true,
          "internalType": "address",
          "name": "from",
          "type": "address"
        },
        {
          "indexed": true,
          "internalType": "address",
          "name": "to",
          "type": "address"
        },
        {
          "indexed": true,
          "internalType": "uint256",
          "name": "tokenId",
          "type": "uint256"
        }
      ],
      "name": "Transfer",
      "type": "event"
    },
    {
      "anonymous": false,
      "inputs": [
        {
          "indexed": true,
          "internalType": "uint256",
          "name": "tokenId",
          "type": "uint256"
        },
        {
          "indexed": true,
          "internalType": "address",
          "name": "user",
          "type": "address"
        },
        {
          "indexed": false,
          "internalType": "uint64",
          "name": "expires",
          "type": "uint64"
        }
      ],
      "name": "UpdateUser",
      "type": "event"
    },
    {
      "inputs": [],
      "name": "DEFAULT_ADMIN_ROLE",
      "outputs": [
        {
          "internalType": "bytes32",
          "name": "",
          "type": "bytes32"
        }
      ],
      "stateMutability": "view",
      "type": "function"
    },
    {
      "inputs": [
        {
          "internalType": "uint256",
          "name": "",
          "type": "uint256"
        },
        {
          "internalType": "uint256",
          "name": "",
          "type": "uint256"
        }
      ],
      "name": "_historyOfWinners",
      "outputs": [
        {
          "internalType": "address",
          "name": "winner",
          "type": "address"
        },
        {
          "internalType": "uint256",
          "name": "price",
          "type": "uint256"
        },
        {
          "internalType": "uint64",
          "name": "expires",
          "type": "uint64"
        }
      ],
      "stateMutability": "view",
      "type": "function"
    },
    {
      "inputs": [
        {
          "internalType": "uint256",
          "name": "",
          "type": "uint256"
        }
      ],
      "name": "_latestWinner",
      "outputs": [
        {
          "internalType": "address",
          "name": "winner",
          "type": "address"
        },
        {
          "internalType": "uint256",
          "name": "price",
          "type": "uint256"
        },
        {
          "internalType": "uint64",
          "name": "expires",
          "type": "uint64"
        }
      ],
      "stateMutability": "view",
      "type": "function"
    },
    {
      "inputs": [
        {
          "internalType": "uint256",
          "name": "",
          "type": "uint256"
        }
      ],
      "name": "_monoNFTs",
      "outputs": [
        {
          "internalType": "uint256",
          "name": "tokenId",
          "type": "uint256"
        },
        {
          "internalType": "address",
          "name": "donor",
          "type": "address"
        },
        {
          "internalType": "uint64",
          "name": "expiresDuration",
          "type": "uint64"
        },
        {
          "internalType": "string",
          "name": "uri",
          "type": "string"
        },
        {
          "internalType": "enum IMonoNFT.MonoNFTStatus",
          "name": "status",
          "type": "uint8"
        }
      ],
      "stateMutability": "view",
      "type": "function"
    },
    {
      "inputs": [
        {
          "internalType": "address",
          "name": "to",
          "type": "address"
        },
        {
          "internalType": "uint256",
          "name": "tokenId",
          "type": "uint256"
        }
      ],
      "name": "approve",
      "outputs": [],
      "stateMutability": "nonpayable",
      "type": "function"
    },
    {
      "inputs": [],
      "name": "auctionAdminAddress",
      "outputs": [
        {
          "internalType": "address",
          "name": "",
          "type": "address"
        }
      ],
      "stateMutability": "view",
      "type": "function"
    },
    {
      "inputs": [],
      "name": "auctionDepositContractAddress",
      "outputs": [
        {
          "internalType": "address",
          "name": "",
          "type": "address"
        }
      ],
      "stateMutability": "view",
      "type": "function"
    },
    {
      "inputs": [
        {
          "internalType": "address",
          "name": "owner",
          "type": "address"
        }
      ],
      "name": "balanceOf",
      "outputs": [
        {
          "internalType": "uint256",
          "name": "",
          "type": "uint256"
        }
      ],
      "stateMutability": "view",
      "type": "function"
    },
    {
      "inputs": [],
      "name": "basicMembershipTokenId",
      "outputs": [
        {
          "internalType": "uint256",
          "name": "",
          "type": "uint256"
        }
      ],
      "stateMutability": "view",
      "type": "function"
    },
    {
      "inputs": [
        {
          "internalType": "uint256",
          "name": "tokenId",
          "type": "uint256"
        },
        {
          "components": [
            {
              "internalType": "address",
              "name": "shareHolder",
              "type": "address"
            },
            {
              "internalType": "uint8",
              "name": "shareRatio",
              "type": "uint8"
            }
          ],
          "internalType": "struct IMonoNFT.ShareOfCommunityToken[]",
          "name": "sharesOfCommunityToken",
          "type": "tuple[]"
        }
      ],
      "name": "changeSharesOfCommunityToken",
      "outputs": [],
      "stateMutability": "nonpayable",
      "type": "function"
    },
    {
      "inputs": [
        {
          "internalType": "uint256",
          "name": "tokenId",
          "type": "uint256"
        }
      ],
      "name": "claim",
      "outputs": [],
      "stateMutability": "nonpayable",
      "type": "function"
    },
    {
      "inputs": [],
      "name": "communityTreasuryAddress",
      "outputs": [
        {
          "internalType": "address",
          "name": "",
          "type": "address"
        }
      ],
      "stateMutability": "view",
      "type": "function"
    },
    {
      "inputs": [
        {
          "internalType": "address",
          "name": "winner",
          "type": "address"
        },
        {
          "internalType": "uint256",
          "name": "tokenId",
          "type": "uint256"
        },
        {
          "internalType": "uint256",
          "name": "price",
          "type": "uint256"
        }
      ],
      "name": "confirmWinner",
      "outputs": [],
      "stateMutability": "nonpayable",
      "type": "function"
    },
    {
      "inputs": [
        {
          "internalType": "address",
          "name": "user",
          "type": "address"
        }
      ],
      "name": "confirmedMonosOf",
      "outputs": [
        {
          "internalType": "uint256",
          "name": "",
          "type": "uint256"
        }
      ],
      "stateMutability": "view",
      "type": "function"
    },
    {
      "inputs": [
        {
          "internalType": "uint256",
          "name": "tokenId",
          "type": "uint256"
        }
      ],
      "name": "getApproved",
      "outputs": [
        {
          "internalType": "address",
          "name": "",
          "type": "address"
        }
      ],
      "stateMutability": "view",
      "type": "function"
    },
    {
      "inputs": [
        {
          "internalType": "uint256",
          "name": "tokenId",
          "type": "uint256"
        }
      ],
      "name": "getHistoryOfWinners",
      "outputs": [
        {
          "components": [
            {
              "internalType": "address",
              "name": "winner",
              "type": "address"
            },
            {
              "internalType": "uint256",
              "name": "price",
              "type": "uint256"
            },
            {
              "internalType": "uint64",
              "name": "expires",
              "type": "uint64"
            }
          ],
          "internalType": "struct IMonoNFT.Winner[]",
          "name": "",
          "type": "tuple[]"
        }
      ],
      "stateMutability": "view",
      "type": "function"
    },
    {
      "inputs": [],
      "name": "getNFTs",
      "outputs": [
        {
          "components": [
            {
              "internalType": "uint256",
              "name": "tokenId",
              "type": "uint256"
            },
            {
              "internalType": "address",
              "name": "donor",
              "type": "address"
            },
            {
              "internalType": "uint64",
              "name": "expiresDuration",
              "type": "uint64"
            },
            {
              "internalType": "string",
              "name": "uri",
              "type": "string"
            },
            {
              "internalType": "enum IMonoNFT.MonoNFTStatus",
              "name": "status",
              "type": "uint8"
            },
            {
              "components": [
                {
                  "internalType": "address",
                  "name": "shareHolder",
                  "type": "address"
                },
                {
                  "internalType": "uint8",
                  "name": "shareRatio",
                  "type": "uint8"
                }
              ],
              "internalType": "struct IMonoNFT.ShareOfCommunityToken[]",
              "name": "sharesOfCommunityToken",
              "type": "tuple[]"
            }
          ],
          "internalType": "struct IMonoNFT.MonoNFT[]",
          "name": "",
          "type": "tuple[]"
        }
      ],
      "stateMutability": "view",
      "type": "function"
    },
    {
      "inputs": [
        {
          "internalType": "bytes32",
          "name": "role",
          "type": "bytes32"
        }
      ],
      "name": "getRoleAdmin",
      "outputs": [
        {
          "internalType": "bytes32",
          "name": "",
          "type": "bytes32"
        }
      ],
      "stateMutability": "view",
      "type": "function"
    },
    {
      "inputs": [],
      "name": "goldMembershipTokenId",
      "outputs": [
        {
          "internalType": "uint256",
          "name": "",
          "type": "uint256"
        }
      ],
      "stateMutability": "view",
      "type": "function"
    },
    {
      "inputs": [
        {
          "internalType": "bytes32",
          "name": "role",
          "type": "bytes32"
        },
        {
          "internalType": "address",
          "name": "account",
          "type": "address"
        }
      ],
      "name": "grantRole",
      "outputs": [],
      "stateMutability": "nonpayable",
      "type": "function"
    },
    {
      "inputs": [
        {
          "internalType": "bytes32",
          "name": "role",
          "type": "bytes32"
        },
        {
          "internalType": "address",
          "name": "account",
          "type": "address"
        }
      ],
      "name": "hasRole",
      "outputs": [
        {
          "internalType": "bool",
          "name": "",
          "type": "bool"
        }
      ],
      "stateMutability": "view",
      "type": "function"
    },
    {
      "inputs": [
        {
          "internalType": "string",
          "name": "_name",
          "type": "string"
        },
        {
          "internalType": "string",
          "name": "_symbol",
          "type": "string"
        }
      ],
      "name": "initialize",
      "outputs": [],
      "stateMutability": "nonpayable",
      "type": "function"
    },
    {
      "inputs": [
        {
          "internalType": "address",
          "name": "owner",
          "type": "address"
        },
        {
          "internalType": "address",
          "name": "operator",
          "type": "address"
        }
      ],
      "name": "isApprovedForAll",
      "outputs": [
        {
          "internalType": "bool",
          "name": "",
          "type": "bool"
        }
      ],
      "stateMutability": "view",
      "type": "function"
    },
    {
      "inputs": [
        {
          "internalType": "uint256",
          "name": "tokenId",
          "type": "uint256"
        }
      ],
      "name": "isExpired",
      "outputs": [
        {
          "internalType": "bool",
          "name": "",
          "type": "bool"
        }
      ],
      "stateMutability": "view",
      "type": "function"
    },
    {
      "inputs": [
        {
          "internalType": "address",
          "name": "user",
          "type": "address"
        }
      ],
      "name": "maxConfirmedMonosOf",
      "outputs": [
        {
          "internalType": "uint256",
          "name": "",
          "type": "uint256"
        }
      ],
      "stateMutability": "view",
      "type": "function"
    },
    {
      "inputs": [],
      "name": "membershipNFTAddress",
      "outputs": [
        {
          "internalType": "address",
          "name": "",
          "type": "address"
        }
      ],
      "stateMutability": "view",
      "type": "function"
    },
    {
      "inputs": [],
      "name": "name",
      "outputs": [
        {
          "internalType": "string",
          "name": "",
          "type": "string"
        }
      ],
      "stateMutability": "view",
      "type": "function"
    },
    {
      "inputs": [
        {
          "internalType": "uint256",
          "name": "tokenId",
          "type": "uint256"
        }
      ],
      "name": "ownerOf",
      "outputs": [
        {
          "internalType": "address",
          "name": "",
          "type": "address"
        }
      ],
      "stateMutability": "view",
      "type": "function"
    },
    {
      "inputs": [
        {
          "internalType": "address",
          "name": "donor",
          "type": "address"
        },
        {
          "internalType": "uint64",
          "name": "expiresDuration",
          "type": "uint64"
        },
        {
          "internalType": "string",
          "name": "uri",
          "type": "string"
        },
        {
          "components": [
            {
              "internalType": "address",
              "name": "shareHolder",
              "type": "address"
            },
            {
              "internalType": "uint8",
              "name": "shareRatio",
              "type": "uint8"
            }
          ],
          "internalType": "struct IMonoNFT.ShareOfCommunityToken[]",
          "name": "sharesOfCommunityToken",
          "type": "tuple[]"
        },
        {
          "internalType": "address",
          "name": "owner",
          "type": "address"
        }
      ],
      "name": "register",
      "outputs": [],
      "stateMutability": "nonpayable",
      "type": "function"
    },
    {
      "inputs": [
        {
          "internalType": "bytes32",
          "name": "role",
          "type": "bytes32"
        },
        {
          "internalType": "address",
          "name": "account",
          "type": "address"
        }
      ],
      "name": "renounceRole",
      "outputs": [],
      "stateMutability": "nonpayable",
      "type": "function"
    },
    {
      "inputs": [
        {
          "internalType": "bytes32",
          "name": "role",
          "type": "bytes32"
        },
        {
          "internalType": "address",
          "name": "account",
          "type": "address"
        }
      ],
      "name": "revokeRole",
      "outputs": [],
      "stateMutability": "nonpayable",
      "type": "function"
    },
    {
      "inputs": [
        {
          "internalType": "uint256",
          "name": "tokenId",
          "type": "uint256"
        }
      ],
      "name": "rightOf",
      "outputs": [
        {
          "internalType": "enum IMonoNFT.MonoNFTRightType",
          "name": "",
          "type": "uint8"
        }
      ],
      "stateMutability": "view",
      "type": "function"
    },
    {
      "inputs": [
        {
          "internalType": "address",
          "name": "from",
          "type": "address"
        },
        {
          "internalType": "address",
          "name": "to",
          "type": "address"
        },
        {
          "internalType": "uint256",
          "name": "tokenId",
          "type": "uint256"
        }
      ],
      "name": "safeTransferFrom",
      "outputs": [],
      "stateMutability": "nonpayable",
      "type": "function"
    },
    {
      "inputs": [
        {
          "internalType": "address",
          "name": "from",
          "type": "address"
        },
        {
          "internalType": "address",
          "name": "to",
          "type": "address"
        },
        {
          "internalType": "uint256",
          "name": "tokenId",
          "type": "uint256"
        },
        {
          "internalType": "bytes",
          "name": "data",
          "type": "bytes"
        }
      ],
      "name": "safeTransferFrom",
      "outputs": [],
      "stateMutability": "nonpayable",
      "type": "function"
    },
    {
      "inputs": [
        {
          "internalType": "address",
          "name": "operator",
          "type": "address"
        },
        {
          "internalType": "bool",
          "name": "approved",
          "type": "bool"
        }
      ],
      "name": "setApprovalForAll",
      "outputs": [],
      "stateMutability": "nonpayable",
      "type": "function"
    },
    {
      "inputs": [
        {
          "internalType": "address",
          "name": "_auctionAdminAddress",
          "type": "address"
        }
      ],
      "name": "setAuctionAdminAddress",
      "outputs": [],
      "stateMutability": "nonpayable",
      "type": "function"
    },
    {
      "inputs": [
        {
          "internalType": "address",
          "name": "_auctionDepositContractAddress",
          "type": "address"
        }
      ],
      "name": "setAuctionDepositAddress",
      "outputs": [],
      "stateMutability": "nonpayable",
      "type": "function"
    },
    {
      "inputs": [
        {
          "internalType": "uint256",
          "name": "_basicMembershipTokenId",
          "type": "uint256"
        }
      ],
      "name": "setBasicMembershipTokenId",
      "outputs": [],
      "stateMutability": "nonpayable",
      "type": "function"
    },
    {
      "inputs": [
        {
          "internalType": "address",
          "name": "_communityTreasuryAddress",
          "type": "address"
        }
      ],
      "name": "setCommunityTreasuryAddress",
      "outputs": [],
      "stateMutability": "nonpayable",
      "type": "function"
    },
    {
      "inputs": [
        {
          "internalType": "uint256",
          "name": "_goldMembershipTokenId",
          "type": "uint256"
        }
      ],
      "name": "setGoldMembershipTokenId",
      "outputs": [],
      "stateMutability": "nonpayable",
      "type": "function"
    },
    {
      "inputs": [
        {
          "internalType": "address",
          "name": "_membershipNFTAddress",
          "type": "address"
        }
      ],
      "name": "setMembershipNFTAddress",
      "outputs": [],
      "stateMutability": "nonpayable",
      "type": "function"
    },
    {
      "inputs": [
        {
          "internalType": "uint256",
          "name": "_silverMembershipTokenId",
          "type": "uint256"
        }
      ],
      "name": "setSilverMembershipTokenId",
      "outputs": [],
      "stateMutability": "nonpayable",
      "type": "function"
    },
    {
      "inputs": [
        {
          "internalType": "uint256",
          "name": "tokenId",
          "type": "uint256"
        },
        {
          "internalType": "address",
          "name": "user",
          "type": "address"
        },
        {
          "internalType": "uint64",
          "name": "expires",
          "type": "uint64"
        }
      ],
      "name": "setUser",
      "outputs": [],
      "stateMutability": "nonpayable",
      "type": "function"
    },
    {
      "inputs": [],
      "name": "silverMembershipTokenId",
      "outputs": [
        {
          "internalType": "uint256",
          "name": "",
          "type": "uint256"
        }
      ],
      "stateMutability": "view",
      "type": "function"
    },
    {
      "inputs": [
        {
          "internalType": "uint256",
          "name": "tokenId",
          "type": "uint256"
        }
      ],
      "name": "submit",
      "outputs": [],
      "stateMutability": "nonpayable",
      "type": "function"
    },
    {
      "inputs": [
        {
          "internalType": "bytes4",
          "name": "interfaceId",
          "type": "bytes4"
        }
      ],
      "name": "supportsInterface",
      "outputs": [
        {
          "internalType": "bool",
          "name": "",
          "type": "bool"
        }
      ],
      "stateMutability": "view",
      "type": "function"
    },
    {
      "inputs": [],
      "name": "symbol",
      "outputs": [
        {
          "internalType": "string",
          "name": "",
          "type": "string"
        }
      ],
      "stateMutability": "view",
      "type": "function"
    },
    {
      "inputs": [
        {
          "internalType": "uint256",
          "name": "index",
          "type": "uint256"
        }
      ],
      "name": "tokenByIndex",
      "outputs": [
        {
          "internalType": "uint256",
          "name": "",
          "type": "uint256"
        }
      ],
      "stateMutability": "view",
      "type": "function"
    },
    {
      "inputs": [
        {
          "internalType": "address",
          "name": "owner",
          "type": "address"
        },
        {
          "internalType": "uint256",
          "name": "index",
          "type": "uint256"
        }
      ],
      "name": "tokenOfOwnerByIndex",
      "outputs": [
        {
          "internalType": "uint256",
          "name": "",
          "type": "uint256"
        }
      ],
      "stateMutability": "view",
      "type": "function"
    },
    {
      "inputs": [
        {
          "internalType": "uint256",
          "name": "tokenId",
          "type": "uint256"
        }
      ],
      "name": "tokenURI",
      "outputs": [
        {
          "internalType": "string",
          "name": "",
          "type": "string"
        }
      ],
      "stateMutability": "view",
      "type": "function"
    },
    {
      "inputs": [],
      "name": "totalSupply",
      "outputs": [
        {
          "internalType": "uint256",
          "name": "",
          "type": "uint256"
        }
      ],
      "stateMutability": "view",
      "type": "function"
    },
    {
      "inputs": [
        {
          "internalType": "address",
          "name": "from",
          "type": "address"
        },
        {
          "internalType": "address",
          "name": "to",
          "type": "address"
        },
        {
          "internalType": "uint256",
          "name": "tokenId",
          "type": "uint256"
        }
      ],
      "name": "transferFrom",
      "outputs": [],
      "stateMutability": "nonpayable",
      "type": "function"
    },
    {
      "inputs": [
        {
          "internalType": "uint256",
          "name": "tokenId",
          "type": "uint256"
        },
        {
          "internalType": "enum IMonoNFT.MonoNFTStatus",
          "name": "status",
          "type": "uint8"
        }
      ],
      "name": "updateMonoNFTStatus",
      "outputs": [],
      "stateMutability": "nonpayable",
      "type": "function"
    },
    {
      "inputs": [
        {
          "internalType": "uint256",
          "name": "tokenId",
          "type": "uint256"
        }
      ],
      "name": "userExpires",
      "outputs": [
        {
          "internalType": "uint64",
          "name": "",
          "type": "uint64"
        }
      ],
      "stateMutability": "view",
      "type": "function"
    },
    {
      "inputs": [
        {
          "internalType": "uint256",
          "name": "tokenId",
          "type": "uint256"
        }
      ],
      "name": "userOf",
      "outputs": [
        {
          "internalType": "address",
          "name": "",
          "type": "address"
        }
      ],
      "stateMutability": "view",
      "type": "function"
    }
  ],
  "bytecode": "0x608060405234801561001057600080fd5b506148b2806100206000396000f3fe608060405234801561001057600080fd5b506004361061036d5760003560e01c806370a08231116101d3578063a22cb46511610104578063d547741f116100a2578063e030565e1161007c578063e030565e1461084b578063e985e9c51461085e578063ea99c2a61461089a578063ff487534146108ad57600080fd5b8063d547741f146107ef578063d9548e5314610802578063de9fddbb1461083857600080fd5b8063b88d4fde116100de578063b88d4fde146107a3578063bbd6dbcf146107b6578063c2f1f14a146107c9578063c87b56dd146107dc57600080fd5b8063a22cb4651461076a578063a7d8b4821461077d578063b7713ac61461079057600080fd5b80638832e32b1161017157806391d148541161014b57806391d14854146106dd57806395d89b41146107165780639f7437771461071e578063a217fddf1461076257600080fd5b80638832e32b1461066d5780638af8cd6f146106805780638fc88c481461069357600080fd5b80637ecbc3b8116101ad5780637ecbc3b81461061c57806382f85c3f14610626578063851c9f6f1461063a578063857d983a1461065a57600080fd5b806370a08231146105f557806374a02718146106085780637dd27e231461061257600080fd5b806336568abe116102ad5780634f6ccce71161024b5780635c57c3c8116102255780635c57c3c8146105a95780636352211e146105bc578063640ae2e4146105cf5780636fc2886b146105e257600080fd5b80634f6ccce714610570578063543997af14610583578063595fac401461059657600080fd5b806342842e0e1161028757806342842e0e146105245780634b0937ce146105375780634cd88b761461054a5780634ef9afde1461055d57600080fd5b806336568abe146104bc578063379607f5146104cf5780633d8d43a2146104e257600080fd5b8063227212f21161031a5780632998c520116102f45780632998c5201461045f5780632bc24e24146104725780632f2ff15d146104965780632f745c59146104a957600080fd5b8063227212f21461041457806323b872dd14610429578063248a9ca31461043c57600080fd5b8063095ea7b31161034b578063095ea7b3146103da57806318160ddd146103ef5780631e86752c1461040157600080fd5b806301ffc9a71461037257806306fdde031461039a578063081812fc146103af575b600080fd5b610385610380366004613968565b6108cd565b60405190151581526020015b60405180910390f35b6103a26108de565b60405161039191906139d5565b6103c26103bd3660046139e8565b610970565b6040516001600160a01b039091168152602001610391565b6103ed6103e8366004613a21565b610997565b005b6099545b604051908152602001610391565b6103ed61040f366004613bba565b610acd565b61041c610d05565b6040516103919190613ce1565b6103ed610437366004613deb565b610f77565b6103f361044a3660046139e8565b600090815260ca602052604090206001015490565b6103ed61046d366004613e2c565b610fee565b6104856104803660046139e8565b61101c565b604051610391959493929190613e49565b6103ed6104a4366004613e9a565b6110f0565b6103f36104b7366004613a21565b611115565b6103ed6104ca366004613e9a565b6111bd565b6103ed6104dd3660046139e8565b611249565b6104f56104f0366004613eca565b611707565b604080516001600160a01b039094168452602084019290925267ffffffffffffffff1690820152606001610391565b6103ed610532366004613deb565b61175e565b6103ed6105453660046139e8565b611779565b6103ed610558366004613eec565b61178b565b6103ed61056b3660046139e8565b6118c1565b6103f361057e3660046139e8565b6118d3565b6103ed610591366004613f50565b611977565b60ff546103c2906001600160a01b031681565b6103ed6105b7366004613f85565b611b72565b6103c26105ca3660046139e8565b611d2a565b6103ed6105dd366004613e2c565b611db9565b60fe546103c2906001600160a01b031681565b6103f3610603366004613e2c565b611de7565b6103f36101015481565b6103f36101025481565b6103f36101035481565b610100546103c2906001600160a01b031681565b61064d6106483660046139e8565b611e81565b6040516103919190614004565b6103ed610668366004613e2c565b611f21565b6103f361067b366004613e2c565b611f50565b6103ed61068e3660046139e8565b611fff565b6106c46106a13660046139e8565b600090815260c96020526040902054600160a01b900467ffffffffffffffff1690565b60405167ffffffffffffffff9091168152602001610391565b6103856106eb366004613e9a565b600091825260ca602090815260408084206001600160a01b0393909316845291905290205460ff1690565b6103a2612011565b6104f561072c3660046139e8565b610105602052600090815260409020805460018201546002909201546001600160a01b03909116919067ffffffffffffffff1683565b6103f3600081565b6103ed610778366004614070565b612020565b60fd546103c2906001600160a01b031681565b6103f361079e366004613e2c565b61202b565b6103ed6107b13660046140a3565b61228f565b6103ed6107c4366004614123565b61230d565b6103c26107d73660046139e8565b612351565b6103a26107ea3660046139e8565b6123ab565b6103ed6107fd366004613e9a565b612451565b6103856108103660046139e8565b600090815260c9602052604090205467ffffffffffffffff428116600160a01b909204161090565b6103ed610846366004613e2c565b612476565b6103ed61085936600461414c565b6124a4565b61038561086c36600461418a565b6001600160a01b039182166000908152606a6020908152604080832093909416825291909152205460ff1690565b6103ed6108a83660046139e8565b6125a2565b6108c06108bb3660046139e8565b61270d565b60405161039191906141b8565b60006108d882612744565b92915050565b6060606580546108ed906141d2565b80601f0160208091040260200160405190810160405280929190818152602001828054610919906141d2565b80156109665780601f1061093b57610100808354040283529160200191610966565b820191906000526020600020905b81548152906001019060200180831161094957829003601f168201915b5050505050905090565b600061097b82612782565b506000908152606960205260409020546001600160a01b031690565b60006109a2826127e9565b9050806001600160a01b0316836001600160a01b031603610a305760405162461bcd60e51b815260206004820152602160248201527f4552433732313a20617070726f76616c20746f2063757272656e74206f776e6560448201527f720000000000000000000000000000000000000000000000000000000000000060648201526084015b60405180910390fd5b336001600160a01b0382161480610a4c5750610a4c813361086c565b610abe5760405162461bcd60e51b815260206004820152603d60248201527f4552433732313a20617070726f76652063616c6c6572206973206e6f7420746f60448201527f6b656e206f776e6572206f7220617070726f76656420666f7220616c6c0000006064820152608401610a27565b610ac8838361284e565b505050565b6000610ad8816128bc565b826000805b8251811015610b2357828181518110610af857610af8614206565b60200260200101516020015182610b0f9190614232565b915080610b1b8161424b565b915050610add565b508060ff16606414610ba95760405162461bcd60e51b815260206004820152604360248201527f4d6f6e6f4e46543a2054686520746f74616c20726174696f206f66207368617260448201527f6573206f6620636f6d6d756e69747920746f6b656e2073686f756c642062652060648201526203130360ec1b608482015260a401610a27565b610bb760fc80546001019055565b6000610bc260fc5490565b9050610bce85826128c6565b60008181526101046020526040902081815560018101805467ffffffffffffffff8b16600160a01b026001600160e01b03199091166001600160a01b038d161717905560028101610c1f89826142b2565b5060038101805460ff1916905560005b8751811015610cc05781600401888281518110610c4e57610c4e614206565b6020908102919091018101518254600181018455600093845292829020815193018054919092015160ff16600160a01b0274ffffffffffffffffffffffffffffffffffffffffff199091166001600160a01b039093169290921791909117905580610cb88161424b565b915050610c2f565b50817f374cd1206d085bbb3f018dbb14a70f0af2bed441bcd8cb0e4f74c94d78a51e9582604051610cf191906143c8565b60405180910390a250505050505050505050565b60606000610d1260fc5490565b67ffffffffffffffff811115610d2a57610d2a613a65565b604051908082528060200260200182016040528015610d9357816020015b610d806040805160c0810182526000808252602082018190529181018290526060808201529060808201908152602001606081525090565b815260200190600190039081610d485790505b50905060005b60fc54811015610f71576101046000610db38360016144be565b81526020808201929092526040908101600020815160c0810183528154815260018201546001600160a01b03811694820194909452600160a01b90930467ffffffffffffffff1691830191909152600281018054606084019190610e16906141d2565b80601f0160208091040260200160405190810160405280929190818152602001828054610e42906141d2565b8015610e8f5780601f10610e6457610100808354040283529160200191610e8f565b820191906000526020600020905b815481529060010190602001808311610e7257829003601f168201915b5050509183525050600382015460209091019060ff166004811115610eb657610eb6613cb7565b6004811115610ec757610ec7613cb7565b815260200160048201805480602002602001604051908101604052809291908181526020016000905b82821015610f3957600084815260209081902060408051808201909152908401546001600160a01b0381168252600160a01b900460ff1681830152825260019092019101610ef0565b5050505081525050828281518110610f5357610f53614206565b60200260200101819052508080610f699061424b565b915050610d99565b50919050565b610f813382612a5f565b610fe35760405162461bcd60e51b815260206004820152602d60248201527f4552433732313a2063616c6c6572206973206e6f7420746f6b656e206f776e6560448201526c1c881bdc88185c1c1c9bdd9959609a1b6064820152608401610a27565b610ac8838383612ade565b6000610ff9816128bc565b5060fd80546001600160a01b0319166001600160a01b0392909216919091179055565b6101046020526000908152604090208054600182015460028301805492936001600160a01b03831693600160a01b90930467ffffffffffffffff1692909190611064906141d2565b80601f0160208091040260200160405190810160405280929190818152602001828054611090906141d2565b80156110dd5780601f106110b2576101008083540402835291602001916110dd565b820191906000526020600020905b8154815290600101906020018083116110c057829003601f168201915b5050506003909301549192505060ff1685565b600082815260ca602052604090206001015461110b816128bc565b610ac88383612ce4565b600061112083611de7565b82106111945760405162461bcd60e51b815260206004820152602b60248201527f455243373231456e756d657261626c653a206f776e657220696e646578206f7560448201527f74206f6620626f756e64730000000000000000000000000000000000000000006064820152608401610a27565b506001600160a01b03919091166000908152609760209081526040808320938352929052205490565b6001600160a01b038116331461123b5760405162461bcd60e51b815260206004820152602f60248201527f416363657373436f6e74726f6c3a2063616e206f6e6c792072656e6f756e636560448201527f20726f6c657320666f722073656c6600000000000000000000000000000000006064820152608401610a27565b6112458282612d86565b5050565b60fe54610101546040517efdd58e00000000000000000000000000000000000000000000000000000000815233600482015260248101919091526001916001600160a01b03169062fdd58e90604401602060405180830381865afa1580156112b5573d6000803e3d6000fd5b505050506040513d601f19601f820116820180604052508101906112d991906144d1565b101561134d5760405162461bcd60e51b815260206004820152602e60248201527f4d6f6e6f4e46543a20596f7520646f6e2774206861766520746865206175637460448201527f696f6e206d656d626572204e46540000000000000000000000000000000000006064820152608401610a27565b6000818152610104602052604090206002600382015460ff16600481111561137757611377613cb7565b146113ea5760405162461bcd60e51b815260206004820152602360248201527f4d6f6e6f4e46543a205374617475732073686f756c6420626520636f6e66697260448201527f6d656400000000000000000000000000000000000000000000000000000000006064820152608401610a27565b60008281526101056020908152604091829020825160608101845281546001600160a01b031680825260018301549382019390935260029091015467ffffffffffffffff169281019290925233146114845760405162461bcd60e51b815260206004820152601f60248201527f4d6f6e6f4e46543a20596f7520617265206e6f74207468652077696e6e6572006044820152606401610a27565b600061148f8461270d565b600085815261010660209081526040918290205460fd5486519287015193517fe81b94ea00000000000000000000000000000000000000000000000000000000815294955090936001600160a01b039091169263e81b94ea926114fb929091906004808b0191016144ea565b600060405180830381600087803b15801561151557600080fd5b505af1158015611529573d6000803e3d6000fd5b5060019250611536915050565b82600181111561154857611548613cb7565b036115ee5761156085846000015185604001516124a4565b806000036115e957611576600485016000613908565b60408051808201909152610100546001600160a01b039081168252606460208084019182526004880180546001810182556000918252919020935193018054915160ff16600160a01b0274ffffffffffffffffffffffffffffffffffffffffff1990921693909216929092179190911790555b611643565b600082600181111561160257611602613cb7565b0361164357600061161286611d2a565b905061162284600001518761284e565b6116418185600001518860405180602001604052806000815250612e09565b505b6003848101805460ff1916600183021790555060008581526101066020908152604080832080546001808201835591855293839020875160039095020180546001600160a01b0319166001600160a01b03909516948517815587840151918101829055878301516002909101805467ffffffffffffffff191667ffffffffffffffff909216919091179055905190815287917f3ed1528b0fdc7c5207c1bf935e34a667e13656b9ed165260c522be0bc544f303910160405180910390a35050505050565b610106602052816000526040600020818154811061172457600080fd5b60009182526020909120600390910201805460018201546002909201546001600160a01b03909116935090915067ffffffffffffffff1683565b610ac88383836040518060200160405280600081525061228f565b6000611784816128bc565b5061010155565b600054610100900460ff16158080156117ab5750600054600160ff909116105b806117c55750303b1580156117c5575060005460ff166001145b6118375760405162461bcd60e51b815260206004820152602e60248201527f496e697469616c697a61626c653a20636f6e747261637420697320616c72656160448201527f647920696e697469616c697a65640000000000000000000000000000000000006064820152608401610a27565b6000805460ff19166001179055801561185a576000805461ff0019166101001790555b6118648383612e92565b61186c612f07565b611877600033612f74565b8015610ac8576000805461ff0019169055604051600181527f7f26b83ff96e1f2b6a682f133852f6798a09c465da95921460cefb38474024989060200160405180910390a1505050565b60006118cc816128bc565b5061010355565b60006118de60995490565b82106119525760405162461bcd60e51b815260206004820152602c60248201527f455243373231456e756d657261626c653a20676c6f62616c20696e646578206f60448201527f7574206f6620626f756e647300000000000000000000000000000000000000006064820152608401610a27565b6099828154811061196557611965614206565b90600052602060002001549050919050565b6000611982816128bc565b83600061198e82611f50565b9050600061199b8361202b565b90508082106119ec5760405162461bcd60e51b815260206004820181905260248201527f4d6f6e6f4e46543a20496e73756666696369656e74206d656d626572736869706044820152606401610a27565b60016000878152610104602052604090206003015460ff166004811115611a1557611a15613cb7565b14611a625760405162461bcd60e51b815260206004820152601e60248201527f4d6f6e6f4e46543a204e4654206973206e6f7420696e2061756374696f6e00006044820152606401610a27565b60008681526101046020526040812060038101805460ff1916600217905560010154611aa09067ffffffffffffffff600160a01b909104164261451b565b604080516060810182526001600160a01b038b8116825260208083018b815267ffffffffffffffff86811685870190815260008f815261010590945295909220935184546001600160a01b03191693169290921783559051600183015591516002909101805467ffffffffffffffff1916919092161790559050611b24888861284e565b876001600160a01b0316877f85ab5ff8fde0017571e9d06337d92fde5209aae045a00a581280a0fe3ea2c50888604051611b6091815260200190565b60405180910390a35050505050505050565b6000611b7d816128bc565b8282808060200260200160405190810160405280939291908181526020016000905b82821015611bcb57611bbc60408302860136819003810190614543565b81526020019060010190611b9f565b50505050506000805b8251811015611c1a57828181518110611bef57611bef614206565b60200260200101516020015182611c069190614232565b915080611c128161424b565b915050611bd4565b508060ff16606414611ca05760405162461bcd60e51b815260206004820152604360248201527f4d6f6e6f4e46543a2054686520746f74616c20726174696f206f66207368617260448201527f6573206f6620636f6d6d756e69747920746f6b656e2073686f756c642062652060648201526203130360ec1b608482015260a401610a27565b60008681526101046020526040812090611cbe906004830190613908565b60005b85811015611d205781600401878783818110611cdf57611cdf614206565b83546001810185556000948552602090942060409091029290920192919091019050611d0b828261455f565b50508080611d189061424b565b915050611cc1565b5050505050505050565b600080611d3683612351565b90506001600160a01b03811615611d4d5792915050565b6000838152606760205260409020546001600160a01b031680611db25760405162461bcd60e51b815260206004820152601860248201527f4552433732313a20696e76616c696420746f6b656e20494400000000000000006044820152606401610a27565b9392505050565b6000611dc4816128bc565b5060fe80546001600160a01b0319166001600160a01b0392909216919091179055565b60006001600160a01b038216611e655760405162461bcd60e51b815260206004820152602960248201527f4552433732313a2061646472657373207a65726f206973206e6f74206120766160448201527f6c6964206f776e657200000000000000000000000000000000000000000000006064820152608401610a27565b506001600160a01b031660009081526068602052604090205490565b60606101066000838152602001908152602001600020805480602002602001604051908101604052809291908181526020016000905b82821015611f16576000848152602090819020604080516060810182526003860290920180546001600160a01b031683526001808201548486015260029091015467ffffffffffffffff16918301919091529083529092019101611eb7565b505050509050919050565b6000611f2c816128bc565b5061010080546001600160a01b0319166001600160a01b0392909216919091179055565b6000806000611f5e60fc5490565b905060015b818111611ff65760008181526101056020908152604091829020825160608101845281546001600160a01b0390811680835260018401549483019490945260029092015467ffffffffffffffff16938101939093528716148015611fd4575042816040015167ffffffffffffffff16115b15611fe557611fe28461424b565b93505b50611fef8161424b565b9050611f63565b50909392505050565b600061200a816128bc565b5061010255565b6060606680546108ed906141d2565b611245338383612f7e565b6040805160038082526080820190925260009182919060208201606080368337019050509050828160008151811061206557612065614206565b60200260200101906001600160a01b031690816001600160a01b031681525050828160018151811061209957612099614206565b60200260200101906001600160a01b031690816001600160a01b03168152505082816002815181106120cd576120cd614206565b6001600160a01b0392909216602092830291909101820152604080516003808252608082019092526000929091908201606080368337019050509050610101548160008151811061212057612120614206565b602002602001018181525050610102548160018151811061214357612143614206565b602002602001018181525050610103548160028151811061216657612166614206565b602090810291909101015260fe546040517f4e1273f400000000000000000000000000000000000000000000000000000000815260009182916001600160a01b0390911690634e1273f4906121c190879087906004016145d5565b600060405180830381865afa1580156121de573d6000803e3d6000fd5b505050506040513d6000823e601f3d908101601f191682016040526122069190810190614659565b905060018160008151811061221d5761221d614206565b6020026020010151106122865760018160018151811061223f5761223f614206565b6020026020010151106122815760018160028151811061226157612261614206565b602002602001015110612278576000199150612286565b60059150612286565b600191505b50949350505050565b6122993383612a5f565b6122fb5760405162461bcd60e51b815260206004820152602d60248201527f4552433732313a2063616c6c6572206973206e6f7420746f6b656e206f776e6560448201526c1c881bdc88185c1c1c9bdd9959609a1b6064820152608401610a27565b61230784848484612e09565b50505050565b6000612318816128bc565b600083815261010460205260409020600301805483919060ff1916600183600481111561234757612347613cb7565b0217905550505050565b600081815260c960205260408120544290600160a01b900467ffffffffffffffff1667ffffffffffffffff161061239e5750600090815260c960205260409020546001600160a01b031690565b506000919050565b919050565b6000818152610104602052604090206002018054606091906123cc906141d2565b80601f01602080910402602001604051908101604052809291908181526020018280546123f8906141d2565b80156124455780601f1061241a57610100808354040283529160200191612445565b820191906000526020600020905b81548152906001019060200180831161242857829003601f168201915b50505050509050919050565b600082815260ca602052604090206001015461246c816128bc565b610ac88383612d86565b6000612481816128bc565b5060ff80546001600160a01b0319166001600160a01b0392909216919091179055565b6124ae3384612a5f565b6125205760405162461bcd60e51b815260206004820152603260248201527f455243343930373a207472616e736665722063616c6c6572206973206e6f742060448201527f6f776e6572206e6f7220617070726f76656400000000000000000000000000006064820152608401610a27565b600083815260c9602090815260409182902080546001600160a01b0386166001600160e01b03199091168117600160a01b67ffffffffffffffff871690810291909117835593519384529092909186917f4e06b4e7000e659094299b3533b47b6aa8ad048e95e872d23d1f4ee55af89cfe91015b60405180910390a350505050565b60006125ad816128bc565b6040805160208082018352600091829052848252610104905281902090517fc5d2460186f7233c927e7db2dcc703c0e500b653ca82273b7bfad8045d85a470916125fc916002909101906146df565b6040518091039020036126515760405162461bcd60e51b815260206004820152601b60248201527f4d6f6e6f4e46543a204e465420646f6573206e6f7420657869737400000000006044820152606401610a27565b60016000838152610104602052604090206003015460ff16600481111561267a5761267a613cb7565b036126ed5760405162461bcd60e51b815260206004820152602260248201527f4d6f6e6f4e46543a204e465420697320616c726561647920696e20617563746960448201527f6f6e0000000000000000000000000000000000000000000000000000000000006064820152608401610a27565b50600090815261010460205260409020600301805460ff19166001179055565b60008061271983611d2a565b60ff549091506001600160a01b039081169082160361273b5750600192915050565b50600092915050565b60006001600160e01b031982167f7965db0b0000000000000000000000000000000000000000000000000000000014806108d857506108d88261304c565b6000818152606760205260409020546001600160a01b03166127e65760405162461bcd60e51b815260206004820152601860248201527f4552433732313a20696e76616c696420746f6b656e20494400000000000000006044820152606401610a27565b50565b6000818152606760205260408120546001600160a01b0316806108d85760405162461bcd60e51b815260206004820152601860248201527f4552433732313a20696e76616c696420746f6b656e20494400000000000000006044820152606401610a27565b600081815260696020526040902080546001600160a01b0319166001600160a01b0384169081179091558190612883826127e9565b6001600160a01b03167f8c5be1e5ebec7d5bd14f71427d1e84f3dd0314c0f7b2291e5b200ac8c7c3b92560405160405180910390a45050565b6127e6813361308a565b6001600160a01b03821661291c5760405162461bcd60e51b815260206004820181905260248201527f4552433732313a206d696e7420746f20746865207a65726f20616464726573736044820152606401610a27565b6000818152606760205260409020546001600160a01b0316156129815760405162461bcd60e51b815260206004820152601c60248201527f4552433732313a20746f6b656e20616c7265616479206d696e746564000000006044820152606401610a27565b61298f6000838360016130ff565b6000818152606760205260409020546001600160a01b0316156129f45760405162461bcd60e51b815260206004820152601c60248201527f4552433732313a20746f6b656e20616c7265616479206d696e746564000000006044820152606401610a27565b6001600160a01b038216600081815260686020908152604080832080546001019055848352606790915280822080546001600160a01b0319168417905551839291907fddf252ad1be2c89b69c2b068fc378daa952ba7f163c4a11628f55a4df523b3ef908290a45050565b600080612a6b836127e9565b9050806001600160a01b0316846001600160a01b03161480612ab257506001600160a01b038082166000908152606a602090815260408083209388168352929052205460ff165b80612ad65750836001600160a01b0316612acb84610970565b6001600160a01b0316145b949350505050565b826001600160a01b0316612af1826127e9565b6001600160a01b031614612b555760405162461bcd60e51b815260206004820152602560248201527f4552433732313a207472616e736665722066726f6d20696e636f72726563742060448201526437bbb732b960d91b6064820152608401610a27565b6001600160a01b038216612bd05760405162461bcd60e51b8152602060048201526024808201527f4552433732313a207472616e7366657220746f20746865207a65726f2061646460448201527f72657373000000000000000000000000000000000000000000000000000000006064820152608401610a27565b612bdd83838360016130ff565b826001600160a01b0316612bf0826127e9565b6001600160a01b031614612c545760405162461bcd60e51b815260206004820152602560248201527f4552433732313a207472616e736665722066726f6d20696e636f72726563742060448201526437bbb732b960d91b6064820152608401610a27565b600081815260696020908152604080832080546001600160a01b03199081169091556001600160a01b0387811680865260688552838620805460001901905590871680865283862080546001019055868652606790945282852080549092168417909155905184937fddf252ad1be2c89b69c2b068fc378daa952ba7f163c4a11628f55a4df523b3ef91a4505050565b600082815260ca602090815260408083206001600160a01b038516845290915290205460ff1661124557600082815260ca602090815260408083206001600160a01b03851684529091529020805460ff19166001179055612d423390565b6001600160a01b0316816001600160a01b0316837f2f8788117e7eff1d82e926ec794901d17c78024a50270940304540a733656f0d60405160405180910390a45050565b600082815260ca602090815260408083206001600160a01b038516845290915290205460ff161561124557600082815260ca602090815260408083206001600160a01b0385168085529252808320805460ff1916905551339285917ff6391f5c32d9c69d2a47ea670b442974b53935d1edc7fd64eb21e047a839171b9190a45050565b612e14848484612ade565b612e2084848484613195565b6123075760405162461bcd60e51b815260206004820152603260248201527f4552433732313a207472616e7366657220746f206e6f6e20455243373231526560448201527f63656976657220696d706c656d656e74657200000000000000000000000000006064820152608401610a27565b600054610100900460ff16612efd5760405162461bcd60e51b815260206004820152602b60248201527f496e697469616c697a61626c653a20636f6e7472616374206973206e6f74206960448201526a6e697469616c697a696e6760a81b6064820152608401610a27565b61124582826132ec565b600054610100900460ff16612f725760405162461bcd60e51b815260206004820152602b60248201527f496e697469616c697a61626c653a20636f6e7472616374206973206e6f74206960448201526a6e697469616c697a696e6760a81b6064820152608401610a27565b565b6112458282612ce4565b816001600160a01b0316836001600160a01b031603612fdf5760405162461bcd60e51b815260206004820152601960248201527f4552433732313a20617070726f766520746f2063616c6c6572000000000000006044820152606401610a27565b6001600160a01b038381166000818152606a6020908152604080832094871680845294825291829020805460ff191686151590811790915591519182527f17307eab39ab6107e8899845ad3d59bd9653f200f220920489ca2b5937696c31910160405180910390a3505050565b60006001600160e01b031982167fad092b5c0000000000000000000000000000000000000000000000000000000014806108d857506108d882613370565b600082815260ca602090815260408083206001600160a01b038516845290915290205460ff16611245576130bd816133ae565b6130c88360206133c0565b6040516020016130d9929190614755565b60408051601f198184030181529082905262461bcd60e51b8252610a27916004016139d5565b61310b848484846135a1565b826001600160a01b0316846001600160a01b0316141580156131435750600082815260c960205260409020546001600160a01b031615155b1561230757600082815260c96020908152604080832080546001600160e01b03191690555182815284917f4e06b4e7000e659094299b3533b47b6aa8ad048e95e872d23d1f4ee55af89cfe9101612594565b60006001600160a01b0384163b156132e157604051630a85bd0160e11b81526001600160a01b0385169063150b7a02906131d99033908990889088906004016147d6565b6020604051808303816000875af1925050508015613214575060408051601f3d908101601f1916820190925261321191810190614808565b60015b6132c7573d808015613242576040519150601f19603f3d011682016040523d82523d6000602084013e613247565b606091505b5080516000036132bf5760405162461bcd60e51b815260206004820152603260248201527f4552433732313a207472616e7366657220746f206e6f6e20455243373231526560448201527f63656976657220696d706c656d656e74657200000000000000000000000000006064820152608401610a27565b805181602001fd5b6001600160e01b031916630a85bd0160e11b149050612ad6565b506001949350505050565b600054610100900460ff166133575760405162461bcd60e51b815260206004820152602b60248201527f496e697469616c697a61626c653a20636f6e7472616374206973206e6f74206960448201526a6e697469616c697a696e6760a81b6064820152608401610a27565b606561336383826142b2565b506066610ac882826142b2565b60006001600160e01b031982167f780e9d630000000000000000000000000000000000000000000000000000000014806108d857506108d8826136dd565b60606108d86001600160a01b03831660145b606060006133cf836002614825565b6133da9060026144be565b67ffffffffffffffff8111156133f2576133f2613a65565b6040519080825280601f01601f19166020018201604052801561341c576020820181803683370190505b5090507f30000000000000000000000000000000000000000000000000000000000000008160008151811061345357613453614206565b60200101906001600160f81b031916908160001a9053507f78000000000000000000000000000000000000000000000000000000000000008160018151811061349e5761349e614206565b60200101906001600160f81b031916908160001a90535060006134c2846002614825565b6134cd9060016144be565b90505b6001811115613552577f303132333435363738396162636465660000000000000000000000000000000085600f166010811061350e5761350e614206565b1a60f81b82828151811061352457613524614206565b60200101906001600160f81b031916908160001a90535060049490941c9361354b8161483c565b90506134d0565b508315611db25760405162461bcd60e51b815260206004820181905260248201527f537472696e67733a20686578206c656e67746820696e73756666696369656e746044820152606401610a27565b60018111156136185760405162461bcd60e51b815260206004820152603560248201527f455243373231456e756d657261626c653a20636f6e736563757469766520747260448201527f616e7366657273206e6f7420737570706f7274656400000000000000000000006064820152608401610a27565b816001600160a01b0385166136745761366f81609980546000838152609a60205260408120829055600182018355919091527f72a152ddfb8e864297c917af52ea6c1c68aead0fee1a62673fcc7e0c94979d000155565b613697565b836001600160a01b0316856001600160a01b031614613697576136978582613778565b6001600160a01b0384166136b3576136ae81613815565b6136d6565b846001600160a01b0316846001600160a01b0316146136d6576136d684826138c4565b5050505050565b60006001600160e01b031982167f80ac58cd00000000000000000000000000000000000000000000000000000000148061374057506001600160e01b031982167f5b5e139f00000000000000000000000000000000000000000000000000000000145b806108d857507f01ffc9a7000000000000000000000000000000000000000000000000000000006001600160e01b03198316146108d8565b6000600161378584611de7565b61378f9190614853565b6000838152609860205260409020549091508082146137e2576001600160a01b03841660009081526097602090815260408083208584528252808320548484528184208190558352609890915290208190555b5060009182526098602090815260408084208490556001600160a01b039094168352609781528383209183525290812055565b60995460009061382790600190614853565b6000838152609a60205260408120546099805493945090928490811061384f5761384f614206565b90600052602060002001549050806099838154811061387057613870614206565b6000918252602080832090910192909255828152609a909152604080822084905585825281205560998054806138a8576138a8614866565b6001900381819060005260206000200160009055905550505050565b60006138cf83611de7565b6001600160a01b039093166000908152609760209081526040808320868452825280832085905593825260989052919091209190915550565b50805460008255906000526020600020908101906127e691905b8082111561394e57805474ffffffffffffffffffffffffffffffffffffffffff19168155600101613922565b5090565b6001600160e01b0319811681146127e657600080fd5b60006020828403121561397a57600080fd5b8135611db281613952565b60005b838110156139a0578181015183820152602001613988565b50506000910152565b600081518084526139c1816020860160208601613985565b601f01601f19169290920160200192915050565b602081526000611db260208301846139a9565b6000602082840312156139fa57600080fd5b5035919050565b6001600160a01b03811681146127e657600080fd5b80356123a681613a01565b60008060408385031215613a3457600080fd5b8235613a3f81613a01565b946020939093013593505050565b803567ffffffffffffffff811681146123a657600080fd5b634e487b7160e01b600052604160045260246000fd5b604051601f8201601f1916810167ffffffffffffffff81118282101715613aa457613aa4613a65565b604052919050565b600067ffffffffffffffff831115613ac657613ac6613a65565b613ad9601f8401601f1916602001613a7b565b9050828152838383011115613aed57600080fd5b828260208301376000602084830101529392505050565b600082601f830112613b1557600080fd5b611db283833560208501613aac565b600067ffffffffffffffff821115613b3e57613b3e613a65565b5060051b60200190565b60ff811681146127e657600080fd5b600060408284031215613b6957600080fd5b6040516040810181811067ffffffffffffffff82111715613b8c57613b8c613a65565b6040529050808235613b9d81613a01565b81526020830135613bad81613b48565b6020919091015292915050565b600080600080600060a08688031215613bd257600080fd5b8535613bdd81613a01565b94506020613bec878201613a4d565b945060408088013567ffffffffffffffff80821115613c0a57600080fd5b613c168b838c01613b04565b965060608a0135915080821115613c2c57600080fd5b508801601f81018a13613c3e57600080fd5b8035613c51613c4c82613b24565b613a7b565b81815260069190911b8201840190848101908c831115613c7057600080fd5b928501925b82841015613c9657613c878d85613b57565b82529284019290850190613c75565b809750505050505050613cab60808701613a16565b90509295509295909350565b634e487b7160e01b600052602160045260246000fd5b60058110613cdd57613cdd613cb7565b9052565b60006020808301818452808551808352604092508286019150828160051b8701018488016000805b84811015613ddc57603f198a8503018652825160c081518652898201516001600160a01b038082168c89015267ffffffffffffffff8b850151168b890152606091508184015183838a0152613d60848a01826139a9565b9350506080915081840151613d77838a0182613ccd565b5060a093840151888403948901949094528351808452938c019386938d0192505b80841015613dc65784518051831684528d015160ff168d840152938c019360019390930192918b0191613d98565b5050978a01979550505091870191600101613d09565b50919998505050505050505050565b600080600060608486031215613e0057600080fd5b8335613e0b81613a01565b92506020840135613e1b81613a01565b929592945050506040919091013590565b600060208284031215613e3e57600080fd5b8135611db281613a01565b8581526001600160a01b038516602082015267ffffffffffffffff8416604082015260a060608201526000613e8160a08301856139a9565b9050613e906080830184613ccd565b9695505050505050565b60008060408385031215613ead57600080fd5b823591506020830135613ebf81613a01565b809150509250929050565b60008060408385031215613edd57600080fd5b50508035926020909101359150565b60008060408385031215613eff57600080fd5b823567ffffffffffffffff80821115613f1757600080fd5b613f2386838701613b04565b93506020850135915080821115613f3957600080fd5b50613f4685828601613b04565b9150509250929050565b600080600060608486031215613f6557600080fd5b8335613f7081613a01565b95602085013595506040909401359392505050565b600080600060408486031215613f9a57600080fd5b83359250602084013567ffffffffffffffff80821115613fb957600080fd5b818601915086601f830112613fcd57600080fd5b813581811115613fdc57600080fd5b8760208260061b8501011115613ff157600080fd5b6020830194508093505050509250925092565b602080825282518282018190526000919060409081850190868401855b8281101561406357815180516001600160a01b03168552868101518786015285015167ffffffffffffffff168585015260609093019290850190600101614021565b5091979650505050505050565b6000806040838503121561408357600080fd5b823561408e81613a01565b915060208301358015158114613ebf57600080fd5b600080600080608085870312156140b957600080fd5b84356140c481613a01565b935060208501356140d481613a01565b925060408501359150606085013567ffffffffffffffff8111156140f757600080fd5b8501601f8101871361410857600080fd5b61411787823560208401613aac565b91505092959194509250565b6000806040838503121561413657600080fd5b82359150602083013560058110613ebf57600080fd5b60008060006060848603121561416157600080fd5b83359250602084013561417381613a01565b915061418160408501613a4d565b90509250925092565b6000806040838503121561419d57600080fd5b82356141a881613a01565b91506020830135613ebf81613a01565b60208101600283106141cc576141cc613cb7565b91905290565b600181811c908216806141e657607f821691505b602082108103610f7157634e487b7160e01b600052602260045260246000fd5b634e487b7160e01b600052603260045260246000fd5b634e487b7160e01b600052601160045260246000fd5b60ff81811683821601908111156108d8576108d861421c565b60006001820161425d5761425d61421c565b5060010190565b601f821115610ac857600081815260208120601f850160051c8101602086101561428b5750805b601f850160051c820191505b818110156142aa57828155600101614297565b505050505050565b815167ffffffffffffffff8111156142cc576142cc613a65565b6142e0816142da84546141d2565b84614264565b602080601f83116001811461431557600084156142fd5750858301515b600019600386901b1c1916600185901b1785556142aa565b600085815260208120601f198616915b8281101561434457888601518255948401946001909101908401614325565b50858210156143625787850151600019600388901b60f8161c191681555b5050505050600190811b01905550565b6000815480845260208085019450836000528060002060005b838110156143bd5781546001600160a01b038116885260a01c60ff16838801526040909601956001918201910161438b565b509495945050505050565b600060208083528354818401526001808501546001600160a01b038116604086015267ffffffffffffffff8160a01c166060860152506002850160c0608086015260008154614416816141d2565b8060e08901526101008583166000811461443757600181146144515761447f565b60ff1984168a83015282151560051b8a018201945061447f565b856000528760002060005b848110156144775781548c820185015290880190890161445c565b8b0183019550505b50505050600387015460ff16935061449a60a0870185613ccd565b858103601f190160c08701526144b38160048901614372565b979650505050505050565b808201808211156108d8576108d861421c565b6000602082840312156144e357600080fd5b5051919050565b6001600160a01b03841681528260208201526060604082015260006145126060830184614372565b95945050505050565b67ffffffffffffffff81811683821601908082111561453c5761453c61421c565b5092915050565b60006040828403121561455557600080fd5b611db28383613b57565b813561456a81613a01565b6001600160a01b03811690508154816001600160a01b03198216178355602084013561459581613b48565b74ff00000000000000000000000000000000000000008160a01b168374ffffffffffffffffffffffffffffffffffffffffff198416171784555050505050565b604080825283519082018190526000906020906060840190828701845b828110156146175781516001600160a01b0316845292840192908401906001016145f2565b5050508381038285015284518082528583019183019060005b8181101561464c57835183529284019291840191600101614630565b5090979650505050505050565b6000602080838503121561466c57600080fd5b825167ffffffffffffffff81111561468357600080fd5b8301601f8101851361469457600080fd5b80516146a2613c4c82613b24565b81815260059190911b820183019083810190878311156146c157600080fd5b928401925b828410156144b3578351825292840192908401906146c6565b60008083546146ed816141d2565b60018281168015614705576001811461471a57614749565b60ff1984168752821515830287019450614749565b8760005260208060002060005b858110156147405781548a820152908401908201614727565b50505082870194505b50929695505050505050565b7f416363657373436f6e74726f6c3a206163636f756e742000000000000000000081526000835161478d816017850160208801613985565b7f206973206d697373696e6720726f6c652000000000000000000000000000000060179184019182015283516147ca816028840160208801613985565b01602801949350505050565b60006001600160a01b03808716835280861660208401525083604083015260806060830152613e9060808301846139a9565b60006020828403121561481a57600080fd5b8151611db281613952565b80820281158282048414176108d8576108d861421c565b60008161484b5761484b61421c565b506000190190565b818103818111156108d8576108d861421c565b634e487b7160e01b600052603160045260246000fdfea2646970667358221220078e15ba84506466069611aa941f7b17b6afea81be3b8551cf56ea71f88954ff64736f6c63430008120033",
  "linkReferences": {},
  "deployedLinkReferences": {}
}