{
  "_format": "hh-sol-artifact-1",
  "contractName": "MonoNFT",
  "sourceName": "contracts/MonoNFT.sol",
  "abi": [
    {
      "anonymous": false,
      "inputs": [
        {
          "indexed": true,
          "internalType": "address",
          "name": "owner",
          "type": "address"
        },
        {
          "indexed": true,
          "internalType": "address",
          "name": "approved",
          "type": "address"
        },
        {
          "indexed": true,
          "internalType": "uint256",
          "name": "tokenId",
          "type": "uint256"
        }
      ],
      "name": "Approval",
      "type": "event"
    },
    {
      "anonymous": false,
      "inputs": [
        {
          "indexed": true,
          "internalType": "address",
          "name": "owner",
          "type": "address"
        },
        {
          "indexed": true,
          "internalType": "address",
          "name": "operator",
          "type": "address"
        },
        {
          "indexed": false,
          "internalType": "bool",
          "name": "approved",
          "type": "bool"
        }
      ],
      "name": "ApprovalForAll",
      "type": "event"
    },
    {
      "anonymous": false,
      "inputs": [
        {
          "indexed": true,
          "internalType": "uint256",
          "name": "tokenId",
          "type": "uint256"
        },
        {
          "indexed": true,
          "internalType": "address",
          "name": "user",
          "type": "address"
        },
        {
          "indexed": false,
          "internalType": "uint256",
          "name": "price",
          "type": "uint256"
        }
      ],
      "name": "Claim",
      "type": "event"
    },
    {
      "anonymous": false,
      "inputs": [
        {
          "indexed": true,
          "internalType": "uint256",
          "name": "tokenId",
          "type": "uint256"
        },
        {
          "indexed": true,
          "internalType": "address",
          "name": "winner",
          "type": "address"
        },
        {
          "indexed": false,
          "internalType": "uint256",
          "name": "price",
          "type": "uint256"
        }
      ],
      "name": "ConfirmWinner",
      "type": "event"
    },
    {
      "anonymous": false,
      "inputs": [
        {
          "indexed": false,
          "internalType": "uint8",
          "name": "version",
          "type": "uint8"
        }
      ],
      "name": "Initialized",
      "type": "event"
    },
    {
      "anonymous": false,
      "inputs": [
        {
          "indexed": true,
          "internalType": "uint256",
          "name": "tokenId",
          "type": "uint256"
        },
        {
          "components": [
            {
              "internalType": "uint256",
              "name": "tokenId",
              "type": "uint256"
            },
            {
              "internalType": "address",
              "name": "donor",
              "type": "address"
            },
            {
              "internalType": "uint64",
              "name": "expiresDuration",
              "type": "uint64"
            },
            {
              "internalType": "string",
              "name": "uri",
              "type": "string"
            },
            {
              "internalType": "enum IMonoNFT.MonoNFTStatus",
              "name": "status",
              "type": "uint8"
            },
            {
              "components": [
                {
                  "internalType": "address",
                  "name": "shareHolder",
                  "type": "address"
                },
                {
                  "internalType": "uint8",
                  "name": "shareRatio",
                  "type": "uint8"
                }
              ],
              "internalType": "struct IMonoNFT.ShareOfCommunityToken[]",
              "name": "sharesOfCommunityToken",
              "type": "tuple[]"
            }
          ],
          "indexed": false,
          "internalType": "struct IMonoNFT.MonoNFT",
          "name": "_monoNFT",
          "type": "tuple"
        }
      ],
      "name": "Register",
      "type": "event"
    },
    {
      "anonymous": false,
      "inputs": [
        {
          "indexed": true,
          "internalType": "bytes32",
          "name": "role",
          "type": "bytes32"
        },
        {
          "indexed": true,
          "internalType": "bytes32",
          "name": "previousAdminRole",
          "type": "bytes32"
        },
        {
          "indexed": true,
          "internalType": "bytes32",
          "name": "newAdminRole",
          "type": "bytes32"
        }
      ],
      "name": "RoleAdminChanged",
      "type": "event"
    },
    {
      "anonymous": false,
      "inputs": [
        {
          "indexed": true,
          "internalType": "bytes32",
          "name": "role",
          "type": "bytes32"
        },
        {
          "indexed": true,
          "internalType": "address",
          "name": "account",
          "type": "address"
        },
        {
          "indexed": true,
          "internalType": "address",
          "name": "sender",
          "type": "address"
        }
      ],
      "name": "RoleGranted",
      "type": "event"
    },
    {
      "anonymous": false,
      "inputs": [
        {
          "indexed": true,
          "internalType": "bytes32",
          "name": "role",
          "type": "bytes32"
        },
        {
          "indexed": true,
          "internalType": "address",
          "name": "account",
          "type": "address"
        },
        {
          "indexed": true,
          "internalType": "address",
          "name": "sender",
          "type": "address"
        }
      ],
      "name": "RoleRevoked",
      "type": "event"
    },
    {
      "anonymous": false,
      "inputs": [
        {
          "indexed": true,
          "internalType": "address",
          "name": "from",
          "type": "address"
        },
        {
          "indexed": true,
          "internalType": "address",
          "name": "to",
          "type": "address"
        },
        {
          "indexed": true,
          "internalType": "uint256",
          "name": "tokenId",
          "type": "uint256"
        }
      ],
      "name": "Transfer",
      "type": "event"
    },
    {
      "anonymous": false,
      "inputs": [
        {
          "indexed": true,
          "internalType": "uint256",
          "name": "tokenId",
          "type": "uint256"
        },
        {
          "indexed": true,
          "internalType": "address",
          "name": "user",
          "type": "address"
        },
        {
          "indexed": false,
          "internalType": "uint64",
          "name": "expires",
          "type": "uint64"
        }
      ],
      "name": "UpdateUser",
      "type": "event"
    },
    {
      "inputs": [],
      "name": "DEFAULT_ADMIN_ROLE",
      "outputs": [
        {
          "internalType": "bytes32",
          "name": "",
          "type": "bytes32"
        }
      ],
      "stateMutability": "view",
      "type": "function"
    },
    {
      "inputs": [
        {
          "internalType": "uint256",
          "name": "",
          "type": "uint256"
        },
        {
          "internalType": "uint256",
          "name": "",
          "type": "uint256"
        }
      ],
      "name": "_historyOfWinners",
      "outputs": [
        {
          "internalType": "address",
          "name": "winner",
          "type": "address"
        },
        {
          "internalType": "uint256",
          "name": "price",
          "type": "uint256"
        },
        {
          "internalType": "uint64",
          "name": "expires",
          "type": "uint64"
        }
      ],
      "stateMutability": "view",
      "type": "function"
    },
    {
      "inputs": [
        {
          "internalType": "uint256",
          "name": "",
          "type": "uint256"
        }
      ],
      "name": "_latestWinner",
      "outputs": [
        {
          "internalType": "address",
          "name": "winner",
          "type": "address"
        },
        {
          "internalType": "uint256",
          "name": "price",
          "type": "uint256"
        },
        {
          "internalType": "uint64",
          "name": "expires",
          "type": "uint64"
        }
      ],
      "stateMutability": "view",
      "type": "function"
    },
    {
      "inputs": [
        {
          "internalType": "uint256",
          "name": "",
          "type": "uint256"
        }
      ],
      "name": "_monoNFTs",
      "outputs": [
        {
          "internalType": "uint256",
          "name": "tokenId",
          "type": "uint256"
        },
        {
          "internalType": "address",
          "name": "donor",
          "type": "address"
        },
        {
          "internalType": "uint64",
          "name": "expiresDuration",
          "type": "uint64"
        },
        {
          "internalType": "string",
          "name": "uri",
          "type": "string"
        },
        {
          "internalType": "enum IMonoNFT.MonoNFTStatus",
          "name": "status",
          "type": "uint8"
        }
      ],
      "stateMutability": "view",
      "type": "function"
    },
    {
      "inputs": [
        {
          "internalType": "address",
          "name": "to",
          "type": "address"
        },
        {
          "internalType": "uint256",
          "name": "tokenId",
          "type": "uint256"
        }
      ],
      "name": "approve",
      "outputs": [],
      "stateMutability": "nonpayable",
      "type": "function"
    },
    {
      "inputs": [],
      "name": "auctionAdminAddress",
      "outputs": [
        {
          "internalType": "address",
          "name": "",
          "type": "address"
        }
      ],
      "stateMutability": "view",
      "type": "function"
    },
    {
      "inputs": [],
      "name": "auctionDepositContractAddress",
      "outputs": [
        {
          "internalType": "address",
          "name": "",
          "type": "address"
        }
      ],
      "stateMutability": "view",
      "type": "function"
    },
    {
      "inputs": [
        {
          "internalType": "address",
          "name": "owner",
          "type": "address"
        }
      ],
      "name": "balanceOf",
      "outputs": [
        {
          "internalType": "uint256",
          "name": "",
          "type": "uint256"
        }
      ],
      "stateMutability": "view",
      "type": "function"
    },
    {
      "inputs": [],
      "name": "basicMembershipTokenId",
      "outputs": [
        {
          "internalType": "uint256",
          "name": "",
          "type": "uint256"
        }
      ],
      "stateMutability": "view",
      "type": "function"
    },
    {
      "inputs": [
        {
          "internalType": "uint256",
          "name": "tokenId",
          "type": "uint256"
        },
        {
          "components": [
            {
              "internalType": "address",
              "name": "shareHolder",
              "type": "address"
            },
            {
              "internalType": "uint8",
              "name": "shareRatio",
              "type": "uint8"
            }
          ],
          "internalType": "struct IMonoNFT.ShareOfCommunityToken[]",
          "name": "sharesOfCommunityToken",
          "type": "tuple[]"
        }
      ],
      "name": "changeSharesOfCommunityToken",
      "outputs": [],
      "stateMutability": "nonpayable",
      "type": "function"
    },
    {
      "inputs": [
        {
          "internalType": "uint256",
          "name": "tokenId",
          "type": "uint256"
        }
      ],
      "name": "claim",
      "outputs": [],
      "stateMutability": "nonpayable",
      "type": "function"
    },
    {
      "inputs": [],
      "name": "communityTreasuryAddress",
      "outputs": [
        {
          "internalType": "address",
          "name": "",
          "type": "address"
        }
      ],
      "stateMutability": "view",
      "type": "function"
    },
    {
      "inputs": [
        {
          "internalType": "address",
          "name": "winner",
          "type": "address"
        },
        {
          "internalType": "uint256",
          "name": "tokenId",
          "type": "uint256"
        },
        {
          "internalType": "uint256",
          "name": "price",
          "type": "uint256"
        }
      ],
      "name": "confirmWinner",
      "outputs": [],
      "stateMutability": "nonpayable",
      "type": "function"
    },
    {
      "inputs": [
        {
          "internalType": "address",
          "name": "user",
          "type": "address"
        }
      ],
      "name": "confirmedMonosOf",
      "outputs": [
        {
          "internalType": "uint256",
          "name": "",
          "type": "uint256"
        }
      ],
      "stateMutability": "view",
      "type": "function"
    },
    {
      "inputs": [
        {
          "internalType": "uint256",
          "name": "tokenId",
          "type": "uint256"
        }
      ],
      "name": "getApproved",
      "outputs": [
        {
          "internalType": "address",
          "name": "",
          "type": "address"
        }
      ],
      "stateMutability": "view",
      "type": "function"
    },
    {
      "inputs": [
        {
          "internalType": "uint256",
          "name": "tokenId",
          "type": "uint256"
        }
      ],
      "name": "getHistoryOfWinners",
      "outputs": [
        {
          "components": [
            {
              "internalType": "address",
              "name": "winner",
              "type": "address"
            },
            {
              "internalType": "uint256",
              "name": "price",
              "type": "uint256"
            },
            {
              "internalType": "uint64",
              "name": "expires",
              "type": "uint64"
            }
          ],
          "internalType": "struct IMonoNFT.Winner[]",
          "name": "",
          "type": "tuple[]"
        }
      ],
      "stateMutability": "view",
      "type": "function"
    },
    {
      "inputs": [],
      "name": "getNFTs",
      "outputs": [
        {
          "components": [
            {
              "internalType": "uint256",
              "name": "tokenId",
              "type": "uint256"
            },
            {
              "internalType": "address",
              "name": "donor",
              "type": "address"
            },
            {
              "internalType": "uint64",
              "name": "expiresDuration",
              "type": "uint64"
            },
            {
              "internalType": "string",
              "name": "uri",
              "type": "string"
            },
            {
              "internalType": "enum IMonoNFT.MonoNFTStatus",
              "name": "status",
              "type": "uint8"
            },
            {
              "components": [
                {
                  "internalType": "address",
                  "name": "shareHolder",
                  "type": "address"
                },
                {
                  "internalType": "uint8",
                  "name": "shareRatio",
                  "type": "uint8"
                }
              ],
              "internalType": "struct IMonoNFT.ShareOfCommunityToken[]",
              "name": "sharesOfCommunityToken",
              "type": "tuple[]"
            }
          ],
          "internalType": "struct IMonoNFT.MonoNFT[]",
          "name": "",
          "type": "tuple[]"
        }
      ],
      "stateMutability": "view",
      "type": "function"
    },
    {
      "inputs": [
        {
          "internalType": "bytes32",
          "name": "role",
          "type": "bytes32"
        }
      ],
      "name": "getRoleAdmin",
      "outputs": [
        {
          "internalType": "bytes32",
          "name": "",
          "type": "bytes32"
        }
      ],
      "stateMutability": "view",
      "type": "function"
    },
    {
      "inputs": [],
      "name": "goldMembershipTokenId",
      "outputs": [
        {
          "internalType": "uint256",
          "name": "",
          "type": "uint256"
        }
      ],
      "stateMutability": "view",
      "type": "function"
    },
    {
      "inputs": [
        {
          "internalType": "bytes32",
          "name": "role",
          "type": "bytes32"
        },
        {
          "internalType": "address",
          "name": "account",
          "type": "address"
        }
      ],
      "name": "grantRole",
      "outputs": [],
      "stateMutability": "nonpayable",
      "type": "function"
    },
    {
      "inputs": [
        {
          "internalType": "bytes32",
          "name": "role",
          "type": "bytes32"
        },
        {
          "internalType": "address",
          "name": "account",
          "type": "address"
        }
      ],
      "name": "hasRole",
      "outputs": [
        {
          "internalType": "bool",
          "name": "",
          "type": "bool"
        }
      ],
      "stateMutability": "view",
      "type": "function"
    },
    {
      "inputs": [
        {
          "internalType": "string",
          "name": "_name",
          "type": "string"
        },
        {
          "internalType": "string",
          "name": "_symbol",
          "type": "string"
        }
      ],
      "name": "initialize",
      "outputs": [],
      "stateMutability": "nonpayable",
      "type": "function"
    },
    {
      "inputs": [
        {
          "internalType": "address",
          "name": "owner",
          "type": "address"
        },
        {
          "internalType": "address",
          "name": "operator",
          "type": "address"
        }
      ],
      "name": "isApprovedForAll",
      "outputs": [
        {
          "internalType": "bool",
          "name": "",
          "type": "bool"
        }
      ],
      "stateMutability": "view",
      "type": "function"
    },
    {
      "inputs": [
        {
          "internalType": "uint256",
          "name": "tokenId",
          "type": "uint256"
        }
      ],
      "name": "isExpired",
      "outputs": [
        {
          "internalType": "bool",
          "name": "",
          "type": "bool"
        }
      ],
      "stateMutability": "view",
      "type": "function"
    },
    {
      "inputs": [
        {
          "internalType": "address",
          "name": "user",
          "type": "address"
        }
      ],
      "name": "maxConfirmedMonosOf",
      "outputs": [
        {
          "internalType": "uint256",
          "name": "",
          "type": "uint256"
        }
      ],
      "stateMutability": "view",
      "type": "function"
    },
    {
      "inputs": [],
      "name": "membershipNFTAddress",
      "outputs": [
        {
          "internalType": "address",
          "name": "",
          "type": "address"
        }
      ],
      "stateMutability": "view",
      "type": "function"
    },
    {
      "inputs": [],
      "name": "name",
      "outputs": [
        {
          "internalType": "string",
          "name": "",
          "type": "string"
        }
      ],
      "stateMutability": "view",
      "type": "function"
    },
    {
      "inputs": [
        {
          "internalType": "uint256",
          "name": "tokenId",
          "type": "uint256"
        }
      ],
      "name": "ownerOf",
      "outputs": [
        {
          "internalType": "address",
          "name": "",
          "type": "address"
        }
      ],
      "stateMutability": "view",
      "type": "function"
    },
    {
      "inputs": [
        {
          "internalType": "address",
          "name": "donor",
          "type": "address"
        },
        {
          "internalType": "uint64",
          "name": "expiresDuration",
          "type": "uint64"
        },
        {
          "internalType": "string",
          "name": "uri",
          "type": "string"
        },
        {
          "components": [
            {
              "internalType": "address",
              "name": "shareHolder",
              "type": "address"
            },
            {
              "internalType": "uint8",
              "name": "shareRatio",
              "type": "uint8"
            }
          ],
          "internalType": "struct IMonoNFT.ShareOfCommunityToken[]",
          "name": "sharesOfCommunityToken",
          "type": "tuple[]"
        },
        {
          "internalType": "address",
          "name": "owner",
          "type": "address"
        }
      ],
      "name": "register",
      "outputs": [],
      "stateMutability": "nonpayable",
      "type": "function"
    },
    {
      "inputs": [
        {
          "internalType": "bytes32",
          "name": "role",
          "type": "bytes32"
        },
        {
          "internalType": "address",
          "name": "account",
          "type": "address"
        }
      ],
      "name": "renounceRole",
      "outputs": [],
      "stateMutability": "nonpayable",
      "type": "function"
    },
    {
      "inputs": [
        {
          "internalType": "bytes32",
          "name": "role",
          "type": "bytes32"
        },
        {
          "internalType": "address",
          "name": "account",
          "type": "address"
        }
      ],
      "name": "revokeRole",
      "outputs": [],
      "stateMutability": "nonpayable",
      "type": "function"
    },
    {
      "inputs": [
        {
          "internalType": "uint256",
          "name": "tokenId",
          "type": "uint256"
        }
      ],
      "name": "rightOf",
      "outputs": [
        {
          "internalType": "enum IMonoNFT.MonoNFTRightType",
          "name": "",
          "type": "uint8"
        }
      ],
      "stateMutability": "view",
      "type": "function"
    },
    {
      "inputs": [
        {
          "internalType": "address",
          "name": "from",
          "type": "address"
        },
        {
          "internalType": "address",
          "name": "to",
          "type": "address"
        },
        {
          "internalType": "uint256",
          "name": "tokenId",
          "type": "uint256"
        }
      ],
      "name": "safeTransferFrom",
      "outputs": [],
      "stateMutability": "nonpayable",
      "type": "function"
    },
    {
      "inputs": [
        {
          "internalType": "address",
          "name": "from",
          "type": "address"
        },
        {
          "internalType": "address",
          "name": "to",
          "type": "address"
        },
        {
          "internalType": "uint256",
          "name": "tokenId",
          "type": "uint256"
        },
        {
          "internalType": "bytes",
          "name": "data",
          "type": "bytes"
        }
      ],
      "name": "safeTransferFrom",
      "outputs": [],
      "stateMutability": "nonpayable",
      "type": "function"
    },
    {
      "inputs": [
        {
          "internalType": "address",
          "name": "operator",
          "type": "address"
        },
        {
          "internalType": "bool",
          "name": "approved",
          "type": "bool"
        }
      ],
      "name": "setApprovalForAll",
      "outputs": [],
      "stateMutability": "nonpayable",
      "type": "function"
    },
    {
      "inputs": [
        {
          "internalType": "address",
          "name": "_auctionAdminAddress",
          "type": "address"
        }
      ],
      "name": "setAuctionAdminAddress",
      "outputs": [],
      "stateMutability": "nonpayable",
      "type": "function"
    },
    {
      "inputs": [
        {
          "internalType": "address",
          "name": "_auctionDepositContractAddress",
          "type": "address"
        }
      ],
      "name": "setAuctionDepositAddress",
      "outputs": [],
      "stateMutability": "nonpayable",
      "type": "function"
    },
    {
      "inputs": [
        {
          "internalType": "uint256",
          "name": "_basicMembershipTokenId",
          "type": "uint256"
        }
      ],
      "name": "setBasicMembershipTokenId",
      "outputs": [],
      "stateMutability": "nonpayable",
      "type": "function"
    },
    {
      "inputs": [
        {
          "internalType": "address",
          "name": "_communityTreasuryAddress",
          "type": "address"
        }
      ],
      "name": "setCommunityTreasuryAddress",
      "outputs": [],
      "stateMutability": "nonpayable",
      "type": "function"
    },
    {
      "inputs": [
        {
          "internalType": "uint256",
          "name": "_goldMembershipTokenId",
          "type": "uint256"
        }
      ],
      "name": "setGoldMembershipTokenId",
      "outputs": [],
      "stateMutability": "nonpayable",
      "type": "function"
    },
    {
      "inputs": [
        {
          "internalType": "address",
          "name": "_membershipNFTAddress",
          "type": "address"
        }
      ],
      "name": "setMembershipNFTAddress",
      "outputs": [],
      "stateMutability": "nonpayable",
      "type": "function"
    },
    {
      "inputs": [
        {
          "internalType": "uint256",
          "name": "_silverMembershipTokenId",
          "type": "uint256"
        }
      ],
      "name": "setSilverMembershipTokenId",
      "outputs": [],
      "stateMutability": "nonpayable",
      "type": "function"
    },
    {
      "inputs": [
        {
          "internalType": "uint256",
          "name": "tokenId",
          "type": "uint256"
        },
        {
          "internalType": "address",
          "name": "user",
          "type": "address"
        },
        {
          "internalType": "uint64",
          "name": "expires",
          "type": "uint64"
        }
      ],
      "name": "setUser",
      "outputs": [],
      "stateMutability": "nonpayable",
      "type": "function"
    },
    {
      "inputs": [],
      "name": "silverMembershipTokenId",
      "outputs": [
        {
          "internalType": "uint256",
          "name": "",
          "type": "uint256"
        }
      ],
      "stateMutability": "view",
      "type": "function"
    },
    {
      "inputs": [
        {
          "internalType": "uint256",
          "name": "tokenId",
          "type": "uint256"
        }
      ],
      "name": "submit",
      "outputs": [],
      "stateMutability": "nonpayable",
      "type": "function"
    },
    {
      "inputs": [
        {
          "internalType": "bytes4",
          "name": "interfaceId",
          "type": "bytes4"
        }
      ],
      "name": "supportsInterface",
      "outputs": [
        {
          "internalType": "bool",
          "name": "",
          "type": "bool"
        }
      ],
      "stateMutability": "view",
      "type": "function"
    },
    {
      "inputs": [],
      "name": "symbol",
      "outputs": [
        {
          "internalType": "string",
          "name": "",
          "type": "string"
        }
      ],
      "stateMutability": "view",
      "type": "function"
    },
    {
      "inputs": [
        {
          "internalType": "uint256",
          "name": "index",
          "type": "uint256"
        }
      ],
      "name": "tokenByIndex",
      "outputs": [
        {
          "internalType": "uint256",
          "name": "",
          "type": "uint256"
        }
      ],
      "stateMutability": "view",
      "type": "function"
    },
    {
      "inputs": [
        {
          "internalType": "address",
          "name": "owner",
          "type": "address"
        },
        {
          "internalType": "uint256",
          "name": "index",
          "type": "uint256"
        }
      ],
      "name": "tokenOfOwnerByIndex",
      "outputs": [
        {
          "internalType": "uint256",
          "name": "",
          "type": "uint256"
        }
      ],
      "stateMutability": "view",
      "type": "function"
    },
    {
      "inputs": [
        {
          "internalType": "uint256",
          "name": "tokenId",
          "type": "uint256"
        }
      ],
      "name": "tokenURI",
      "outputs": [
        {
          "internalType": "string",
          "name": "",
          "type": "string"
        }
      ],
      "stateMutability": "view",
      "type": "function"
    },
    {
      "inputs": [],
      "name": "totalSupply",
      "outputs": [
        {
          "internalType": "uint256",
          "name": "",
          "type": "uint256"
        }
      ],
      "stateMutability": "view",
      "type": "function"
    },
    {
      "inputs": [
        {
          "internalType": "address",
          "name": "from",
          "type": "address"
        },
        {
          "internalType": "address",
          "name": "to",
          "type": "address"
        },
        {
          "internalType": "uint256",
          "name": "tokenId",
          "type": "uint256"
        }
      ],
      "name": "transferFrom",
      "outputs": [],
      "stateMutability": "nonpayable",
      "type": "function"
    },
    {
      "inputs": [
        {
          "internalType": "uint256",
          "name": "tokenId",
          "type": "uint256"
        },
        {
          "internalType": "enum IMonoNFT.MonoNFTStatus",
          "name": "status",
          "type": "uint8"
        }
      ],
      "name": "updateMonoNFTStatus",
      "outputs": [],
      "stateMutability": "nonpayable",
      "type": "function"
    },
    {
      "inputs": [
        {
          "internalType": "uint256",
          "name": "tokenId",
          "type": "uint256"
        }
      ],
      "name": "userExpires",
      "outputs": [
        {
          "internalType": "uint64",
          "name": "",
          "type": "uint64"
        }
      ],
      "stateMutability": "view",
      "type": "function"
    },
    {
      "inputs": [
        {
          "internalType": "uint256",
          "name": "tokenId",
          "type": "uint256"
        }
      ],
      "name": "userOf",
      "outputs": [
        {
          "internalType": "address",
          "name": "",
          "type": "address"
        }
      ],
      "stateMutability": "view",
      "type": "function"
    }
  ],
  "bytecode": "0x608060405234801561001057600080fd5b50614858806100206000396000f3fe608060405234801561001057600080fd5b506004361061036d5760003560e01c806370a08231116101d3578063a22cb46511610104578063d547741f116100a2578063e030565e1161007c578063e030565e1461084b578063e985e9c51461085e578063ea99c2a61461089a578063ff487534146108ad57600080fd5b8063d547741f146107ef578063d9548e5314610802578063de9fddbb1461083857600080fd5b8063b88d4fde116100de578063b88d4fde146107a3578063bbd6dbcf146107b6578063c2f1f14a146107c9578063c87b56dd146107dc57600080fd5b8063a22cb4651461076a578063a7d8b4821461077d578063b7713ac61461079057600080fd5b80638832e32b1161017157806391d148541161014b57806391d14854146106dd57806395d89b41146107165780639f7437771461071e578063a217fddf1461076257600080fd5b80638832e32b1461066d5780638af8cd6f146106805780638fc88c481461069357600080fd5b80637ecbc3b8116101ad5780637ecbc3b81461061c57806382f85c3f14610626578063851c9f6f1461063a578063857d983a1461065a57600080fd5b806370a08231146105f557806374a02718146106085780637dd27e231461061257600080fd5b806336568abe116102ad5780634f6ccce71161024b5780635c57c3c8116102255780635c57c3c8146105a95780636352211e146105bc578063640ae2e4146105cf5780636fc2886b146105e257600080fd5b80634f6ccce714610570578063543997af14610583578063595fac401461059657600080fd5b806342842e0e1161028757806342842e0e146105245780634b0937ce146105375780634cd88b761461054a5780634ef9afde1461055d57600080fd5b806336568abe146104bc578063379607f5146104cf5780633d8d43a2146104e257600080fd5b8063227212f21161031a5780632998c520116102f45780632998c5201461045f5780632bc24e24146104725780632f2ff15d146104965780632f745c59146104a957600080fd5b8063227212f21461041457806323b872dd14610429578063248a9ca31461043c57600080fd5b8063095ea7b31161034b578063095ea7b3146103da57806318160ddd146103ef5780631e86752c1461040157600080fd5b806301ffc9a71461037257806306fdde031461039a578063081812fc146103af575b600080fd5b61038561038036600461390e565b6108cd565b60405190151581526020015b60405180910390f35b6103a26108de565b604051610391919061397b565b6103c26103bd36600461398e565b610970565b6040516001600160a01b039091168152602001610391565b6103ed6103e83660046139c7565b610997565b005b6099545b604051908152602001610391565b6103ed61040f366004613b60565b610acd565b61041c610d05565b6040516103919190613c87565b6103ed610437366004613d91565b610f77565b6103f361044a36600461398e565b600090815260ca602052604090206001015490565b6103ed61046d366004613dd2565b610fee565b61048561048036600461398e565b61101c565b604051610391959493929190613def565b6103ed6104a4366004613e40565b6110f0565b6103f36104b73660046139c7565b611115565b6103ed6104ca366004613e40565b6111bd565b6103ed6104dd36600461398e565b611249565b6104f56104f0366004613e70565b6116ad565b604080516001600160a01b039094168452602084019290925267ffffffffffffffff1690820152606001610391565b6103ed610532366004613d91565b611704565b6103ed61054536600461398e565b61171f565b6103ed610558366004613e92565b611731565b6103ed61056b36600461398e565b611867565b6103f361057e36600461398e565b611879565b6103ed610591366004613ef6565b61191d565b60ff546103c2906001600160a01b031681565b6103ed6105b7366004613f2b565b611b18565b6103c26105ca36600461398e565b611cd0565b6103ed6105dd366004613dd2565b611d5f565b60fe546103c2906001600160a01b031681565b6103f3610603366004613dd2565b611d8d565b6103f36101015481565b6103f36101025481565b6103f36101035481565b610100546103c2906001600160a01b031681565b61064d61064836600461398e565b611e27565b6040516103919190613faa565b6103ed610668366004613dd2565b611ec7565b6103f361067b366004613dd2565b611ef6565b6103ed61068e36600461398e565b611fa5565b6106c46106a136600461398e565b600090815260c96020526040902054600160a01b900467ffffffffffffffff1690565b60405167ffffffffffffffff9091168152602001610391565b6103856106eb366004613e40565b600091825260ca602090815260408084206001600160a01b0393909316845291905290205460ff1690565b6103a2611fb7565b6104f561072c36600461398e565b610105602052600090815260409020805460018201546002909201546001600160a01b03909116919067ffffffffffffffff1683565b6103f3600081565b6103ed610778366004614016565b611fc6565b60fd546103c2906001600160a01b031681565b6103f361079e366004613dd2565b611fd1565b6103ed6107b1366004614049565b612235565b6103ed6107c43660046140c9565b6122b3565b6103c26107d736600461398e565b6122f7565b6103a26107ea36600461398e565b612351565b6103ed6107fd366004613e40565b6123f7565b61038561081036600461398e565b600090815260c9602052604090205467ffffffffffffffff428116600160a01b909204161090565b6103ed610846366004613dd2565b61241c565b6103ed6108593660046140f2565b61244a565b61038561086c366004614130565b6001600160a01b039182166000908152606a6020908152604080832093909416825291909152205460ff1690565b6103ed6108a836600461398e565b612548565b6108c06108bb36600461398e565b6126b3565b604051610391919061415e565b60006108d8826126ea565b92915050565b6060606580546108ed90614178565b80601f016020809104026020016040519081016040528092919081815260200182805461091990614178565b80156109665780601f1061093b57610100808354040283529160200191610966565b820191906000526020600020905b81548152906001019060200180831161094957829003601f168201915b5050505050905090565b600061097b82612728565b506000908152606960205260409020546001600160a01b031690565b60006109a28261278f565b9050806001600160a01b0316836001600160a01b031603610a305760405162461bcd60e51b815260206004820152602160248201527f4552433732313a20617070726f76616c20746f2063757272656e74206f776e6560448201527f720000000000000000000000000000000000000000000000000000000000000060648201526084015b60405180910390fd5b336001600160a01b0382161480610a4c5750610a4c813361086c565b610abe5760405162461bcd60e51b815260206004820152603d60248201527f4552433732313a20617070726f76652063616c6c6572206973206e6f7420746f60448201527f6b656e206f776e6572206f7220617070726f76656420666f7220616c6c0000006064820152608401610a27565b610ac883836127f4565b505050565b6000610ad881612862565b826000805b8251811015610b2357828181518110610af857610af86141ac565b60200260200101516020015182610b0f91906141d8565b915080610b1b816141f1565b915050610add565b508060ff16606414610ba95760405162461bcd60e51b815260206004820152604360248201527f4d6f6e6f4e46543a2054686520746f74616c20726174696f206f66207368617260448201527f6573206f6620636f6d6d756e69747920746f6b656e2073686f756c642062652060648201526203130360ec1b608482015260a401610a27565b610bb760fc80546001019055565b6000610bc260fc5490565b9050610bce858261286c565b60008181526101046020526040902081815560018101805467ffffffffffffffff8b16600160a01b026001600160e01b03199091166001600160a01b038d161717905560028101610c1f8982614258565b5060038101805460ff1916905560005b8751811015610cc05781600401888281518110610c4e57610c4e6141ac565b6020908102919091018101518254600181018455600093845292829020815193018054919092015160ff16600160a01b0274ffffffffffffffffffffffffffffffffffffffffff199091166001600160a01b039093169290921791909117905580610cb8816141f1565b915050610c2f565b50817f374cd1206d085bbb3f018dbb14a70f0af2bed441bcd8cb0e4f74c94d78a51e9582604051610cf1919061436e565b60405180910390a250505050505050505050565b60606000610d1260fc5490565b67ffffffffffffffff811115610d2a57610d2a613a0b565b604051908082528060200260200182016040528015610d9357816020015b610d806040805160c0810182526000808252602082018190529181018290526060808201529060808201908152602001606081525090565b815260200190600190039081610d485790505b50905060005b60fc54811015610f71576101046000610db3836001614464565b81526020808201929092526040908101600020815160c0810183528154815260018201546001600160a01b03811694820194909452600160a01b90930467ffffffffffffffff1691830191909152600281018054606084019190610e1690614178565b80601f0160208091040260200160405190810160405280929190818152602001828054610e4290614178565b8015610e8f5780601f10610e6457610100808354040283529160200191610e8f565b820191906000526020600020905b815481529060010190602001808311610e7257829003601f168201915b5050509183525050600382015460209091019060ff166004811115610eb657610eb6613c5d565b6004811115610ec757610ec7613c5d565b815260200160048201805480602002602001604051908101604052809291908181526020016000905b82821015610f3957600084815260209081902060408051808201909152908401546001600160a01b0381168252600160a01b900460ff1681830152825260019092019101610ef0565b5050505081525050828281518110610f5357610f536141ac565b60200260200101819052508080610f69906141f1565b915050610d99565b50919050565b610f813382612a05565b610fe35760405162461bcd60e51b815260206004820152602d60248201527f4552433732313a2063616c6c6572206973206e6f7420746f6b656e206f776e6560448201526c1c881bdc88185c1c1c9bdd9959609a1b6064820152608401610a27565b610ac8838383612a84565b6000610ff981612862565b5060fd80546001600160a01b0319166001600160a01b0392909216919091179055565b6101046020526000908152604090208054600182015460028301805492936001600160a01b03831693600160a01b90930467ffffffffffffffff169290919061106490614178565b80601f016020809104026020016040519081016040528092919081815260200182805461109090614178565b80156110dd5780601f106110b2576101008083540402835291602001916110dd565b820191906000526020600020905b8154815290600101906020018083116110c057829003601f168201915b5050506003909301549192505060ff1685565b600082815260ca602052604090206001015461110b81612862565b610ac88383612c8a565b600061112083611d8d565b82106111945760405162461bcd60e51b815260206004820152602b60248201527f455243373231456e756d657261626c653a206f776e657220696e646578206f7560448201527f74206f6620626f756e64730000000000000000000000000000000000000000006064820152608401610a27565b506001600160a01b03919091166000908152609760209081526040808320938352929052205490565b6001600160a01b038116331461123b5760405162461bcd60e51b815260206004820152602f60248201527f416363657373436f6e74726f6c3a2063616e206f6e6c792072656e6f756e636560448201527f20726f6c657320666f722073656c6600000000000000000000000000000000006064820152608401610a27565b6112458282612d2c565b5050565b60fe54610101546040517efdd58e00000000000000000000000000000000000000000000000000000000815233600482015260248101919091526001916001600160a01b03169062fdd58e90604401602060405180830381865afa1580156112b5573d6000803e3d6000fd5b505050506040513d601f19601f820116820180604052508101906112d99190614477565b101561134d5760405162461bcd60e51b815260206004820152602e60248201527f4d6f6e6f4e46543a20596f7520646f6e2774206861766520746865206175637460448201527f696f6e206d656d626572204e46540000000000000000000000000000000000006064820152608401610a27565b6000818152610104602052604090206002600382015460ff16600481111561137757611377613c5d565b146113ea5760405162461bcd60e51b815260206004820152602360248201527f4d6f6e6f4e46543a205374617475732073686f756c6420626520636f6e66697260448201527f6d656400000000000000000000000000000000000000000000000000000000006064820152608401610a27565b60008281526101056020908152604091829020825160608101845281546001600160a01b031680825260018301549382019390935260029091015467ffffffffffffffff169281019290925233146114845760405162461bcd60e51b815260206004820152601f60248201527f4d6f6e6f4e46543a20596f7520617265206e6f74207468652077696e6e6572006044820152606401610a27565b600061148f846126b3565b600085815261010660209081526040918290205460fd5486519287015193517fe81b94ea00000000000000000000000000000000000000000000000000000000815294955090936001600160a01b039091169263e81b94ea926114fb929091906004808b019101614490565b600060405180830381600087803b15801561151557600080fd5b505af1158015611529573d6000803e3d6000fd5b5060019250611536915050565b82600181111561154857611548613c5d565b036115e957611560858460000151856040015161244a565b806000036115e9576115766004850160006138ae565b60408051808201909152610100546001600160a01b039081168252606460208084019182526004880180546001810182556000918252919020935193018054915160ff16600160a01b0274ffffffffffffffffffffffffffffffffffffffffff1990921693909216929092179190911790555b6003848101805460ff1916600183021790555060008581526101066020908152604080832080546001808201835591855293839020875160039095020180546001600160a01b0319166001600160a01b03909516948517815587840151918101829055878301516002909101805467ffffffffffffffff191667ffffffffffffffff909216919091179055905190815287917f3ed1528b0fdc7c5207c1bf935e34a667e13656b9ed165260c522be0bc544f303910160405180910390a35050505050565b61010660205281600052604060002081815481106116ca57600080fd5b60009182526020909120600390910201805460018201546002909201546001600160a01b03909116935090915067ffffffffffffffff1683565b610ac883838360405180602001604052806000815250612235565b600061172a81612862565b5061010155565b600054610100900460ff16158080156117515750600054600160ff909116105b8061176b5750303b15801561176b575060005460ff166001145b6117dd5760405162461bcd60e51b815260206004820152602e60248201527f496e697469616c697a61626c653a20636f6e747261637420697320616c72656160448201527f647920696e697469616c697a65640000000000000000000000000000000000006064820152608401610a27565b6000805460ff191660011790558015611800576000805461ff0019166101001790555b61180a8383612daf565b611812612e24565b61181d600033612e91565b8015610ac8576000805461ff0019169055604051600181527f7f26b83ff96e1f2b6a682f133852f6798a09c465da95921460cefb38474024989060200160405180910390a1505050565b600061187281612862565b5061010355565b600061188460995490565b82106118f85760405162461bcd60e51b815260206004820152602c60248201527f455243373231456e756d657261626c653a20676c6f62616c20696e646578206f60448201527f7574206f6620626f756e647300000000000000000000000000000000000000006064820152608401610a27565b6099828154811061190b5761190b6141ac565b90600052602060002001549050919050565b600061192881612862565b83600061193482611ef6565b9050600061194183611fd1565b90508082106119925760405162461bcd60e51b815260206004820181905260248201527f4d6f6e6f4e46543a20496e73756666696369656e74206d656d626572736869706044820152606401610a27565b60016000878152610104602052604090206003015460ff1660048111156119bb576119bb613c5d565b14611a085760405162461bcd60e51b815260206004820152601e60248201527f4d6f6e6f4e46543a204e4654206973206e6f7420696e2061756374696f6e00006044820152606401610a27565b60008681526101046020526040812060038101805460ff1916600217905560010154611a469067ffffffffffffffff600160a01b90910416426144c1565b604080516060810182526001600160a01b038b8116825260208083018b815267ffffffffffffffff86811685870190815260008f815261010590945295909220935184546001600160a01b03191693169290921783559051600183015591516002909101805467ffffffffffffffff1916919092161790559050611aca88886127f4565b876001600160a01b0316877f85ab5ff8fde0017571e9d06337d92fde5209aae045a00a581280a0fe3ea2c50888604051611b0691815260200190565b60405180910390a35050505050505050565b6000611b2381612862565b8282808060200260200160405190810160405280939291908181526020016000905b82821015611b7157611b62604083028601368190038101906144e9565b81526020019060010190611b45565b50505050506000805b8251811015611bc057828181518110611b9557611b956141ac565b60200260200101516020015182611bac91906141d8565b915080611bb8816141f1565b915050611b7a565b508060ff16606414611c465760405162461bcd60e51b815260206004820152604360248201527f4d6f6e6f4e46543a2054686520746f74616c20726174696f206f66207368617260448201527f6573206f6620636f6d6d756e69747920746f6b656e2073686f756c642062652060648201526203130360ec1b608482015260a401610a27565b60008681526101046020526040812090611c649060048301906138ae565b60005b85811015611cc65781600401878783818110611c8557611c856141ac565b83546001810185556000948552602090942060409091029290920192919091019050611cb18282614505565b50508080611cbe906141f1565b915050611c67565b5050505050505050565b600080611cdc836122f7565b90506001600160a01b03811615611cf35792915050565b6000838152606760205260409020546001600160a01b031680611d585760405162461bcd60e51b815260206004820152601860248201527f4552433732313a20696e76616c696420746f6b656e20494400000000000000006044820152606401610a27565b9392505050565b6000611d6a81612862565b5060fe80546001600160a01b0319166001600160a01b0392909216919091179055565b60006001600160a01b038216611e0b5760405162461bcd60e51b815260206004820152602960248201527f4552433732313a2061646472657373207a65726f206973206e6f74206120766160448201527f6c6964206f776e657200000000000000000000000000000000000000000000006064820152608401610a27565b506001600160a01b031660009081526068602052604090205490565b60606101066000838152602001908152602001600020805480602002602001604051908101604052809291908181526020016000905b82821015611ebc576000848152602090819020604080516060810182526003860290920180546001600160a01b031683526001808201548486015260029091015467ffffffffffffffff16918301919091529083529092019101611e5d565b505050509050919050565b6000611ed281612862565b5061010080546001600160a01b0319166001600160a01b0392909216919091179055565b6000806000611f0460fc5490565b905060015b818111611f9c5760008181526101056020908152604091829020825160608101845281546001600160a01b0390811680835260018401549483019490945260029092015467ffffffffffffffff16938101939093528716148015611f7a575042816040015167ffffffffffffffff16115b15611f8b57611f88846141f1565b93505b50611f95816141f1565b9050611f09565b50909392505050565b6000611fb081612862565b5061010255565b6060606680546108ed90614178565b611245338383612e9b565b6040805160038082526080820190925260009182919060208201606080368337019050509050828160008151811061200b5761200b6141ac565b60200260200101906001600160a01b031690816001600160a01b031681525050828160018151811061203f5761203f6141ac565b60200260200101906001600160a01b031690816001600160a01b0316815250508281600281518110612073576120736141ac565b6001600160a01b039290921660209283029190910182015260408051600380825260808201909252600092909190820160608036833701905050905061010154816000815181106120c6576120c66141ac565b60200260200101818152505061010254816001815181106120e9576120e96141ac565b602002602001018181525050610103548160028151811061210c5761210c6141ac565b602090810291909101015260fe546040517f4e1273f400000000000000000000000000000000000000000000000000000000815260009182916001600160a01b0390911690634e1273f490612167908790879060040161457b565b600060405180830381865afa158015612184573d6000803e3d6000fd5b505050506040513d6000823e601f3d908101601f191682016040526121ac91908101906145ff565b90506001816000815181106121c3576121c36141ac565b60200260200101511061222c576001816001815181106121e5576121e56141ac565b60200260200101511061222757600181600281518110612207576122076141ac565b60200260200101511061221e57600019915061222c565b6005915061222c565b600191505b50949350505050565b61223f3383612a05565b6122a15760405162461bcd60e51b815260206004820152602d60248201527f4552433732313a2063616c6c6572206973206e6f7420746f6b656e206f776e6560448201526c1c881bdc88185c1c1c9bdd9959609a1b6064820152608401610a27565b6122ad84848484612f69565b50505050565b60006122be81612862565b600083815261010460205260409020600301805483919060ff191660018360048111156122ed576122ed613c5d565b0217905550505050565b600081815260c960205260408120544290600160a01b900467ffffffffffffffff1667ffffffffffffffff16106123445750600090815260c960205260409020546001600160a01b031690565b506000919050565b919050565b60008181526101046020526040902060020180546060919061237290614178565b80601f016020809104026020016040519081016040528092919081815260200182805461239e90614178565b80156123eb5780601f106123c0576101008083540402835291602001916123eb565b820191906000526020600020905b8154815290600101906020018083116123ce57829003601f168201915b50505050509050919050565b600082815260ca602052604090206001015461241281612862565b610ac88383612d2c565b600061242781612862565b5060ff80546001600160a01b0319166001600160a01b0392909216919091179055565b6124543384612a05565b6124c65760405162461bcd60e51b815260206004820152603260248201527f455243343930373a207472616e736665722063616c6c6572206973206e6f742060448201527f6f776e6572206e6f7220617070726f76656400000000000000000000000000006064820152608401610a27565b600083815260c9602090815260409182902080546001600160a01b0386166001600160e01b03199091168117600160a01b67ffffffffffffffff871690810291909117835593519384529092909186917f4e06b4e7000e659094299b3533b47b6aa8ad048e95e872d23d1f4ee55af89cfe91015b60405180910390a350505050565b600061255381612862565b6040805160208082018352600091829052848252610104905281902090517fc5d2460186f7233c927e7db2dcc703c0e500b653ca82273b7bfad8045d85a470916125a291600290910190614685565b6040518091039020036125f75760405162461bcd60e51b815260206004820152601b60248201527f4d6f6e6f4e46543a204e465420646f6573206e6f7420657869737400000000006044820152606401610a27565b60016000838152610104602052604090206003015460ff16600481111561262057612620613c5d565b036126935760405162461bcd60e51b815260206004820152602260248201527f4d6f6e6f4e46543a204e465420697320616c726561647920696e20617563746960448201527f6f6e0000000000000000000000000000000000000000000000000000000000006064820152608401610a27565b50600090815261010460205260409020600301805460ff19166001179055565b6000806126bf83611cd0565b60ff549091506001600160a01b03908116908216036126e15750600192915050565b50600092915050565b60006001600160e01b031982167f7965db0b0000000000000000000000000000000000000000000000000000000014806108d857506108d882612ff2565b6000818152606760205260409020546001600160a01b031661278c5760405162461bcd60e51b815260206004820152601860248201527f4552433732313a20696e76616c696420746f6b656e20494400000000000000006044820152606401610a27565b50565b6000818152606760205260408120546001600160a01b0316806108d85760405162461bcd60e51b815260206004820152601860248201527f4552433732313a20696e76616c696420746f6b656e20494400000000000000006044820152606401610a27565b600081815260696020526040902080546001600160a01b0319166001600160a01b03841690811790915581906128298261278f565b6001600160a01b03167f8c5be1e5ebec7d5bd14f71427d1e84f3dd0314c0f7b2291e5b200ac8c7c3b92560405160405180910390a45050565b61278c8133613030565b6001600160a01b0382166128c25760405162461bcd60e51b815260206004820181905260248201527f4552433732313a206d696e7420746f20746865207a65726f20616464726573736044820152606401610a27565b6000818152606760205260409020546001600160a01b0316156129275760405162461bcd60e51b815260206004820152601c60248201527f4552433732313a20746f6b656e20616c7265616479206d696e746564000000006044820152606401610a27565b6129356000838360016130a5565b6000818152606760205260409020546001600160a01b03161561299a5760405162461bcd60e51b815260206004820152601c60248201527f4552433732313a20746f6b656e20616c7265616479206d696e746564000000006044820152606401610a27565b6001600160a01b038216600081815260686020908152604080832080546001019055848352606790915280822080546001600160a01b0319168417905551839291907fddf252ad1be2c89b69c2b068fc378daa952ba7f163c4a11628f55a4df523b3ef908290a45050565b600080612a118361278f565b9050806001600160a01b0316846001600160a01b03161480612a5857506001600160a01b038082166000908152606a602090815260408083209388168352929052205460ff165b80612a7c5750836001600160a01b0316612a7184610970565b6001600160a01b0316145b949350505050565b826001600160a01b0316612a978261278f565b6001600160a01b031614612afb5760405162461bcd60e51b815260206004820152602560248201527f4552433732313a207472616e736665722066726f6d20696e636f72726563742060448201526437bbb732b960d91b6064820152608401610a27565b6001600160a01b038216612b765760405162461bcd60e51b8152602060048201526024808201527f4552433732313a207472616e7366657220746f20746865207a65726f2061646460448201527f72657373000000000000000000000000000000000000000000000000000000006064820152608401610a27565b612b8383838360016130a5565b826001600160a01b0316612b968261278f565b6001600160a01b031614612bfa5760405162461bcd60e51b815260206004820152602560248201527f4552433732313a207472616e736665722066726f6d20696e636f72726563742060448201526437bbb732b960d91b6064820152608401610a27565b600081815260696020908152604080832080546001600160a01b03199081169091556001600160a01b0387811680865260688552838620805460001901905590871680865283862080546001019055868652606790945282852080549092168417909155905184937fddf252ad1be2c89b69c2b068fc378daa952ba7f163c4a11628f55a4df523b3ef91a4505050565b600082815260ca602090815260408083206001600160a01b038516845290915290205460ff1661124557600082815260ca602090815260408083206001600160a01b03851684529091529020805460ff19166001179055612ce83390565b6001600160a01b0316816001600160a01b0316837f2f8788117e7eff1d82e926ec794901d17c78024a50270940304540a733656f0d60405160405180910390a45050565b600082815260ca602090815260408083206001600160a01b038516845290915290205460ff161561124557600082815260ca602090815260408083206001600160a01b0385168085529252808320805460ff1916905551339285917ff6391f5c32d9c69d2a47ea670b442974b53935d1edc7fd64eb21e047a839171b9190a45050565b600054610100900460ff16612e1a5760405162461bcd60e51b815260206004820152602b60248201527f496e697469616c697a61626c653a20636f6e7472616374206973206e6f74206960448201526a6e697469616c697a696e6760a81b6064820152608401610a27565b611245828261313b565b600054610100900460ff16612e8f5760405162461bcd60e51b815260206004820152602b60248201527f496e697469616c697a61626c653a20636f6e7472616374206973206e6f74206960448201526a6e697469616c697a696e6760a81b6064820152608401610a27565b565b6112458282612c8a565b816001600160a01b0316836001600160a01b031603612efc5760405162461bcd60e51b815260206004820152601960248201527f4552433732313a20617070726f766520746f2063616c6c6572000000000000006044820152606401610a27565b6001600160a01b038381166000818152606a6020908152604080832094871680845294825291829020805460ff191686151590811790915591519182527f17307eab39ab6107e8899845ad3d59bd9653f200f220920489ca2b5937696c31910160405180910390a3505050565b612f74848484612a84565b612f80848484846131bf565b6122ad5760405162461bcd60e51b815260206004820152603260248201527f4552433732313a207472616e7366657220746f206e6f6e20455243373231526560448201527f63656976657220696d706c656d656e74657200000000000000000000000000006064820152608401610a27565b60006001600160e01b031982167fad092b5c0000000000000000000000000000000000000000000000000000000014806108d857506108d882613316565b600082815260ca602090815260408083206001600160a01b038516845290915290205460ff166112455761306381613354565b61306e836020613366565b60405160200161307f9291906146fb565b60408051601f198184030181529082905262461bcd60e51b8252610a279160040161397b565b6130b184848484613547565b826001600160a01b0316846001600160a01b0316141580156130e95750600082815260c960205260409020546001600160a01b031615155b156122ad57600082815260c96020908152604080832080546001600160e01b03191690555182815284917f4e06b4e7000e659094299b3533b47b6aa8ad048e95e872d23d1f4ee55af89cfe910161253a565b600054610100900460ff166131a65760405162461bcd60e51b815260206004820152602b60248201527f496e697469616c697a61626c653a20636f6e7472616374206973206e6f74206960448201526a6e697469616c697a696e6760a81b6064820152608401610a27565b60656131b28382614258565b506066610ac88282614258565b60006001600160a01b0384163b1561330b57604051630a85bd0160e11b81526001600160a01b0385169063150b7a029061320390339089908890889060040161477c565b6020604051808303816000875af192505050801561323e575060408051601f3d908101601f1916820190925261323b918101906147ae565b60015b6132f1573d80801561326c576040519150601f19603f3d011682016040523d82523d6000602084013e613271565b606091505b5080516000036132e95760405162461bcd60e51b815260206004820152603260248201527f4552433732313a207472616e7366657220746f206e6f6e20455243373231526560448201527f63656976657220696d706c656d656e74657200000000000000000000000000006064820152608401610a27565b805181602001fd5b6001600160e01b031916630a85bd0160e11b149050612a7c565b506001949350505050565b60006001600160e01b031982167f780e9d630000000000000000000000000000000000000000000000000000000014806108d857506108d882613683565b60606108d86001600160a01b03831660145b606060006133758360026147cb565b613380906002614464565b67ffffffffffffffff81111561339857613398613a0b565b6040519080825280601f01601f1916602001820160405280156133c2576020820181803683370190505b5090507f3000000000000000000000000000000000000000000000000000000000000000816000815181106133f9576133f96141ac565b60200101906001600160f81b031916908160001a9053507f780000000000000000000000000000000000000000000000000000000000000081600181518110613444576134446141ac565b60200101906001600160f81b031916908160001a90535060006134688460026147cb565b613473906001614464565b90505b60018111156134f8577f303132333435363738396162636465660000000000000000000000000000000085600f16601081106134b4576134b46141ac565b1a60f81b8282815181106134ca576134ca6141ac565b60200101906001600160f81b031916908160001a90535060049490941c936134f1816147e2565b9050613476565b508315611d585760405162461bcd60e51b815260206004820181905260248201527f537472696e67733a20686578206c656e67746820696e73756666696369656e746044820152606401610a27565b60018111156135be5760405162461bcd60e51b815260206004820152603560248201527f455243373231456e756d657261626c653a20636f6e736563757469766520747260448201527f616e7366657273206e6f7420737570706f7274656400000000000000000000006064820152608401610a27565b816001600160a01b03851661361a5761361581609980546000838152609a60205260408120829055600182018355919091527f72a152ddfb8e864297c917af52ea6c1c68aead0fee1a62673fcc7e0c94979d000155565b61363d565b836001600160a01b0316856001600160a01b03161461363d5761363d858261371e565b6001600160a01b03841661365957613654816137bb565b61367c565b846001600160a01b0316846001600160a01b03161461367c5761367c848261386a565b5050505050565b60006001600160e01b031982167f80ac58cd0000000000000000000000000000000000000000000000000000000014806136e657506001600160e01b031982167f5b5e139f00000000000000000000000000000000000000000000000000000000145b806108d857507f01ffc9a7000000000000000000000000000000000000000000000000000000006001600160e01b03198316146108d8565b6000600161372b84611d8d565b61373591906147f9565b600083815260986020526040902054909150808214613788576001600160a01b03841660009081526097602090815260408083208584528252808320548484528184208190558352609890915290208190555b5060009182526098602090815260408084208490556001600160a01b039094168352609781528383209183525290812055565b6099546000906137cd906001906147f9565b6000838152609a6020526040812054609980549394509092849081106137f5576137f56141ac565b906000526020600020015490508060998381548110613816576138166141ac565b6000918252602080832090910192909255828152609a9091526040808220849055858252812055609980548061384e5761384e61480c565b6001900381819060005260206000200160009055905550505050565b600061387583611d8d565b6001600160a01b039093166000908152609760209081526040808320868452825280832085905593825260989052919091209190915550565b508054600082559060005260206000209081019061278c91905b808211156138f457805474ffffffffffffffffffffffffffffffffffffffffff191681556001016138c8565b5090565b6001600160e01b03198116811461278c57600080fd5b60006020828403121561392057600080fd5b8135611d58816138f8565b60005b8381101561394657818101518382015260200161392e565b50506000910152565b6000815180845261396781602086016020860161392b565b601f01601f19169290920160200192915050565b602081526000611d58602083018461394f565b6000602082840312156139a057600080fd5b5035919050565b6001600160a01b038116811461278c57600080fd5b803561234c816139a7565b600080604083850312156139da57600080fd5b82356139e5816139a7565b946020939093013593505050565b803567ffffffffffffffff8116811461234c57600080fd5b634e487b7160e01b600052604160045260246000fd5b604051601f8201601f1916810167ffffffffffffffff81118282101715613a4a57613a4a613a0b565b604052919050565b600067ffffffffffffffff831115613a6c57613a6c613a0b565b613a7f601f8401601f1916602001613a21565b9050828152838383011115613a9357600080fd5b828260208301376000602084830101529392505050565b600082601f830112613abb57600080fd5b611d5883833560208501613a52565b600067ffffffffffffffff821115613ae457613ae4613a0b565b5060051b60200190565b60ff8116811461278c57600080fd5b600060408284031215613b0f57600080fd5b6040516040810181811067ffffffffffffffff82111715613b3257613b32613a0b565b6040529050808235613b43816139a7565b81526020830135613b5381613aee565b6020919091015292915050565b600080600080600060a08688031215613b7857600080fd5b8535613b83816139a7565b94506020613b928782016139f3565b945060408088013567ffffffffffffffff80821115613bb057600080fd5b613bbc8b838c01613aaa565b965060608a0135915080821115613bd257600080fd5b508801601f81018a13613be457600080fd5b8035613bf7613bf282613aca565b613a21565b81815260069190911b8201840190848101908c831115613c1657600080fd5b928501925b82841015613c3c57613c2d8d85613afd565b82529284019290850190613c1b565b809750505050505050613c51608087016139bc565b90509295509295909350565b634e487b7160e01b600052602160045260246000fd5b60058110613c8357613c83613c5d565b9052565b60006020808301818452808551808352604092508286019150828160051b8701018488016000805b84811015613d8257603f198a8503018652825160c081518652898201516001600160a01b038082168c89015267ffffffffffffffff8b850151168b890152606091508184015183838a0152613d06848a018261394f565b9350506080915081840151613d1d838a0182613c73565b5060a093840151888403948901949094528351808452938c019386938d0192505b80841015613d6c5784518051831684528d015160ff168d840152938c019360019390930192918b0191613d3e565b5050978a01979550505091870191600101613caf565b50919998505050505050505050565b600080600060608486031215613da657600080fd5b8335613db1816139a7565b92506020840135613dc1816139a7565b929592945050506040919091013590565b600060208284031215613de457600080fd5b8135611d58816139a7565b8581526001600160a01b038516602082015267ffffffffffffffff8416604082015260a060608201526000613e2760a083018561394f565b9050613e366080830184613c73565b9695505050505050565b60008060408385031215613e5357600080fd5b823591506020830135613e65816139a7565b809150509250929050565b60008060408385031215613e8357600080fd5b50508035926020909101359150565b60008060408385031215613ea557600080fd5b823567ffffffffffffffff80821115613ebd57600080fd5b613ec986838701613aaa565b93506020850135915080821115613edf57600080fd5b50613eec85828601613aaa565b9150509250929050565b600080600060608486031215613f0b57600080fd5b8335613f16816139a7565b95602085013595506040909401359392505050565b600080600060408486031215613f4057600080fd5b83359250602084013567ffffffffffffffff80821115613f5f57600080fd5b818601915086601f830112613f7357600080fd5b813581811115613f8257600080fd5b8760208260061b8501011115613f9757600080fd5b6020830194508093505050509250925092565b602080825282518282018190526000919060409081850190868401855b8281101561400957815180516001600160a01b03168552868101518786015285015167ffffffffffffffff168585015260609093019290850190600101613fc7565b5091979650505050505050565b6000806040838503121561402957600080fd5b8235614034816139a7565b915060208301358015158114613e6557600080fd5b6000806000806080858703121561405f57600080fd5b843561406a816139a7565b9350602085013561407a816139a7565b925060408501359150606085013567ffffffffffffffff81111561409d57600080fd5b8501601f810187136140ae57600080fd5b6140bd87823560208401613a52565b91505092959194509250565b600080604083850312156140dc57600080fd5b82359150602083013560058110613e6557600080fd5b60008060006060848603121561410757600080fd5b833592506020840135614119816139a7565b9150614127604085016139f3565b90509250925092565b6000806040838503121561414357600080fd5b823561414e816139a7565b91506020830135613e65816139a7565b602081016002831061417257614172613c5d565b91905290565b600181811c9082168061418c57607f821691505b602082108103610f7157634e487b7160e01b600052602260045260246000fd5b634e487b7160e01b600052603260045260246000fd5b634e487b7160e01b600052601160045260246000fd5b60ff81811683821601908111156108d8576108d86141c2565b600060018201614203576142036141c2565b5060010190565b601f821115610ac857600081815260208120601f850160051c810160208610156142315750805b601f850160051c820191505b818110156142505782815560010161423d565b505050505050565b815167ffffffffffffffff81111561427257614272613a0b565b614286816142808454614178565b8461420a565b602080601f8311600181146142bb57600084156142a35750858301515b600019600386901b1c1916600185901b178555614250565b600085815260208120601f198616915b828110156142ea578886015182559484019460019091019084016142cb565b50858210156143085787850151600019600388901b60f8161c191681555b5050505050600190811b01905550565b6000815480845260208085019450836000528060002060005b838110156143635781546001600160a01b038116885260a01c60ff168388015260409096019560019182019101614331565b509495945050505050565b600060208083528354818401526001808501546001600160a01b038116604086015267ffffffffffffffff8160a01c166060860152506002850160c06080860152600081546143bc81614178565b8060e0890152610100858316600081146143dd57600181146143f757614425565b60ff1984168a83015282151560051b8a0182019450614425565b856000528760002060005b8481101561441d5781548c8201850152908801908901614402565b8b0183019550505b50505050600387015460ff16935061444060a0870185613c73565b858103601f190160c08701526144598160048901614318565b979650505050505050565b808201808211156108d8576108d86141c2565b60006020828403121561448957600080fd5b5051919050565b6001600160a01b03841681528260208201526060604082015260006144b86060830184614318565b95945050505050565b67ffffffffffffffff8181168382160190808211156144e2576144e26141c2565b5092915050565b6000604082840312156144fb57600080fd5b611d588383613afd565b8135614510816139a7565b6001600160a01b03811690508154816001600160a01b03198216178355602084013561453b81613aee565b74ff00000000000000000000000000000000000000008160a01b168374ffffffffffffffffffffffffffffffffffffffffff198416171784555050505050565b604080825283519082018190526000906020906060840190828701845b828110156145bd5781516001600160a01b031684529284019290840190600101614598565b5050508381038285015284518082528583019183019060005b818110156145f2578351835292840192918401916001016145d6565b5090979650505050505050565b6000602080838503121561461257600080fd5b825167ffffffffffffffff81111561462957600080fd5b8301601f8101851361463a57600080fd5b8051614648613bf282613aca565b81815260059190911b8201830190838101908783111561466757600080fd5b928401925b828410156144595783518252928401929084019061466c565b600080835461469381614178565b600182811680156146ab57600181146146c0576146ef565b60ff19841687528215158302870194506146ef565b8760005260208060002060005b858110156146e65781548a8201529084019082016146cd565b50505082870194505b50929695505050505050565b7f416363657373436f6e74726f6c3a206163636f756e742000000000000000000081526000835161473381601785016020880161392b565b7f206973206d697373696e6720726f6c6520000000000000000000000000000000601791840191820152835161477081602884016020880161392b565b01602801949350505050565b60006001600160a01b03808716835280861660208401525083604083015260806060830152613e36608083018461394f565b6000602082840312156147c057600080fd5b8151611d58816138f8565b80820281158282048414176108d8576108d86141c2565b6000816147f1576147f16141c2565b506000190190565b818103818111156108d8576108d86141c2565b634e487b7160e01b600052603160045260246000fdfea264697066735822122025051cbdd6a6dd8ad0254e885a6a0076c2a3ae9849e708a570d9ece6ab5ed16864736f6c63430008120033",
  "linkReferences": {},
  "deployedLinkReferences": {}
}