{
  "_format": "hh-sol-artifact-1",
  "contractName": "MonoNFT",
  "sourceName": "contracts/MonoNFT.sol",
  "abi": [
    {
      "inputs": [
        {
          "internalType": "string",
          "name": "_name",
          "type": "string"
        },
        {
          "internalType": "string",
          "name": "_symbol",
          "type": "string"
        }
      ],
      "stateMutability": "nonpayable",
      "type": "constructor"
    },
    {
      "anonymous": false,
      "inputs": [
        {
          "indexed": true,
          "internalType": "address",
          "name": "owner",
          "type": "address"
        },
        {
          "indexed": true,
          "internalType": "address",
          "name": "approved",
          "type": "address"
        },
        {
          "indexed": true,
          "internalType": "uint256",
          "name": "tokenId",
          "type": "uint256"
        }
      ],
      "name": "Approval",
      "type": "event"
    },
    {
      "anonymous": false,
      "inputs": [
        {
          "indexed": true,
          "internalType": "address",
          "name": "owner",
          "type": "address"
        },
        {
          "indexed": true,
          "internalType": "address",
          "name": "operator",
          "type": "address"
        },
        {
          "indexed": false,
          "internalType": "bool",
          "name": "approved",
          "type": "bool"
        }
      ],
      "name": "ApprovalForAll",
      "type": "event"
    },
    {
      "anonymous": false,
      "inputs": [
        {
          "indexed": true,
          "internalType": "uint256",
          "name": "tokenId",
          "type": "uint256"
        },
        {
          "indexed": true,
          "internalType": "address",
          "name": "user",
          "type": "address"
        },
        {
          "indexed": false,
          "internalType": "uint256",
          "name": "price",
          "type": "uint256"
        }
      ],
      "name": "Claim",
      "type": "event"
    },
    {
      "anonymous": false,
      "inputs": [
        {
          "indexed": true,
          "internalType": "uint256",
          "name": "tokenId",
          "type": "uint256"
        },
        {
          "indexed": true,
          "internalType": "address",
          "name": "winner",
          "type": "address"
        },
        {
          "indexed": false,
          "internalType": "uint256",
          "name": "price",
          "type": "uint256"
        }
      ],
      "name": "ConfirmWinner",
      "type": "event"
    },
    {
      "anonymous": false,
      "inputs": [
        {
          "indexed": true,
          "internalType": "uint256",
          "name": "tokenId",
          "type": "uint256"
        },
        {
          "components": [
            {
              "internalType": "uint256",
              "name": "tokenId",
              "type": "uint256"
            },
            {
              "internalType": "address",
              "name": "donor",
              "type": "address"
            },
            {
              "internalType": "uint64",
              "name": "expiresDuration",
              "type": "uint64"
            },
            {
              "internalType": "string",
              "name": "uri",
              "type": "string"
            },
            {
              "internalType": "enum IMonoNFT.MonoNFTStatus",
              "name": "status",
              "type": "uint8"
            },
            {
              "components": [
                {
                  "internalType": "address",
                  "name": "shareHolder",
                  "type": "address"
                },
                {
                  "internalType": "uint8",
                  "name": "shareRatio",
                  "type": "uint8"
                }
              ],
              "internalType": "struct IMonoNFT.ShareOfCommunityToken[]",
              "name": "sharesOfCommunityToken",
              "type": "tuple[]"
            }
          ],
          "indexed": false,
          "internalType": "struct IMonoNFT.MonoNFT",
          "name": "_monoNFT",
          "type": "tuple"
        }
      ],
      "name": "Register",
      "type": "event"
    },
    {
      "anonymous": false,
      "inputs": [
        {
          "indexed": true,
          "internalType": "bytes32",
          "name": "role",
          "type": "bytes32"
        },
        {
          "indexed": true,
          "internalType": "bytes32",
          "name": "previousAdminRole",
          "type": "bytes32"
        },
        {
          "indexed": true,
          "internalType": "bytes32",
          "name": "newAdminRole",
          "type": "bytes32"
        }
      ],
      "name": "RoleAdminChanged",
      "type": "event"
    },
    {
      "anonymous": false,
      "inputs": [
        {
          "indexed": true,
          "internalType": "bytes32",
          "name": "role",
          "type": "bytes32"
        },
        {
          "indexed": true,
          "internalType": "address",
          "name": "account",
          "type": "address"
        },
        {
          "indexed": true,
          "internalType": "address",
          "name": "sender",
          "type": "address"
        }
      ],
      "name": "RoleGranted",
      "type": "event"
    },
    {
      "anonymous": false,
      "inputs": [
        {
          "indexed": true,
          "internalType": "bytes32",
          "name": "role",
          "type": "bytes32"
        },
        {
          "indexed": true,
          "internalType": "address",
          "name": "account",
          "type": "address"
        },
        {
          "indexed": true,
          "internalType": "address",
          "name": "sender",
          "type": "address"
        }
      ],
      "name": "RoleRevoked",
      "type": "event"
    },
    {
      "anonymous": false,
      "inputs": [
        {
          "indexed": true,
          "internalType": "address",
          "name": "from",
          "type": "address"
        },
        {
          "indexed": true,
          "internalType": "address",
          "name": "to",
          "type": "address"
        },
        {
          "indexed": true,
          "internalType": "uint256",
          "name": "tokenId",
          "type": "uint256"
        }
      ],
      "name": "Transfer",
      "type": "event"
    },
    {
      "anonymous": false,
      "inputs": [
        {
          "indexed": true,
          "internalType": "uint256",
          "name": "tokenId",
          "type": "uint256"
        },
        {
          "indexed": true,
          "internalType": "address",
          "name": "user",
          "type": "address"
        },
        {
          "indexed": false,
          "internalType": "uint64",
          "name": "expires",
          "type": "uint64"
        }
      ],
      "name": "UpdateUser",
      "type": "event"
    },
    {
      "inputs": [],
      "name": "DEFAULT_ADMIN_ROLE",
      "outputs": [
        {
          "internalType": "bytes32",
          "name": "",
          "type": "bytes32"
        }
      ],
      "stateMutability": "view",
      "type": "function"
    },
    {
      "inputs": [
        {
          "internalType": "uint256",
          "name": "",
          "type": "uint256"
        },
        {
          "internalType": "uint256",
          "name": "",
          "type": "uint256"
        }
      ],
      "name": "_historyOfWinners",
      "outputs": [
        {
          "internalType": "address",
          "name": "winner",
          "type": "address"
        },
        {
          "internalType": "uint256",
          "name": "price",
          "type": "uint256"
        },
        {
          "internalType": "uint64",
          "name": "expires",
          "type": "uint64"
        }
      ],
      "stateMutability": "view",
      "type": "function"
    },
    {
      "inputs": [
        {
          "internalType": "uint256",
          "name": "",
          "type": "uint256"
        }
      ],
      "name": "_latestWinner",
      "outputs": [
        {
          "internalType": "address",
          "name": "winner",
          "type": "address"
        },
        {
          "internalType": "uint256",
          "name": "price",
          "type": "uint256"
        },
        {
          "internalType": "uint64",
          "name": "expires",
          "type": "uint64"
        }
      ],
      "stateMutability": "view",
      "type": "function"
    },
    {
      "inputs": [
        {
          "internalType": "uint256",
          "name": "",
          "type": "uint256"
        }
      ],
      "name": "_monoNFTs",
      "outputs": [
        {
          "internalType": "uint256",
          "name": "tokenId",
          "type": "uint256"
        },
        {
          "internalType": "address",
          "name": "donor",
          "type": "address"
        },
        {
          "internalType": "uint64",
          "name": "expiresDuration",
          "type": "uint64"
        },
        {
          "internalType": "string",
          "name": "uri",
          "type": "string"
        },
        {
          "internalType": "enum IMonoNFT.MonoNFTStatus",
          "name": "status",
          "type": "uint8"
        }
      ],
      "stateMutability": "view",
      "type": "function"
    },
    {
      "inputs": [
        {
          "internalType": "address",
          "name": "to",
          "type": "address"
        },
        {
          "internalType": "uint256",
          "name": "tokenId",
          "type": "uint256"
        }
      ],
      "name": "approve",
      "outputs": [],
      "stateMutability": "nonpayable",
      "type": "function"
    },
    {
      "inputs": [],
      "name": "auctionAdminAddress",
      "outputs": [
        {
          "internalType": "address",
          "name": "",
          "type": "address"
        }
      ],
      "stateMutability": "view",
      "type": "function"
    },
    {
      "inputs": [],
      "name": "auctionDepositContractAddress",
      "outputs": [
        {
          "internalType": "address",
          "name": "",
          "type": "address"
        }
      ],
      "stateMutability": "view",
      "type": "function"
    },
    {
      "inputs": [
        {
          "internalType": "address",
          "name": "owner",
          "type": "address"
        }
      ],
      "name": "balanceOf",
      "outputs": [
        {
          "internalType": "uint256",
          "name": "",
          "type": "uint256"
        }
      ],
      "stateMutability": "view",
      "type": "function"
    },
    {
      "inputs": [
        {
          "internalType": "uint256",
          "name": "tokenId",
          "type": "uint256"
        },
        {
          "components": [
            {
              "internalType": "address",
              "name": "shareHolder",
              "type": "address"
            },
            {
              "internalType": "uint8",
              "name": "shareRatio",
              "type": "uint8"
            }
          ],
          "internalType": "struct IMonoNFT.ShareOfCommunityToken[]",
          "name": "sharesOfCommunityToken",
          "type": "tuple[]"
        }
      ],
      "name": "changeSharesOfCommunityToken",
      "outputs": [],
      "stateMutability": "nonpayable",
      "type": "function"
    },
    {
      "inputs": [
        {
          "internalType": "uint256",
          "name": "tokenId",
          "type": "uint256"
        }
      ],
      "name": "claim",
      "outputs": [],
      "stateMutability": "nonpayable",
      "type": "function"
    },
    {
      "inputs": [],
      "name": "communityTreasuryAddress",
      "outputs": [
        {
          "internalType": "address",
          "name": "",
          "type": "address"
        }
      ],
      "stateMutability": "view",
      "type": "function"
    },
    {
      "inputs": [
        {
          "internalType": "address",
          "name": "winner",
          "type": "address"
        },
        {
          "internalType": "uint256",
          "name": "tokenId",
          "type": "uint256"
        },
        {
          "internalType": "uint256",
          "name": "price",
          "type": "uint256"
        }
      ],
      "name": "confirmWinner",
      "outputs": [],
      "stateMutability": "nonpayable",
      "type": "function"
    },
    {
      "inputs": [
        {
          "internalType": "uint256",
          "name": "tokenId",
          "type": "uint256"
        }
      ],
      "name": "getApproved",
      "outputs": [
        {
          "internalType": "address",
          "name": "",
          "type": "address"
        }
      ],
      "stateMutability": "view",
      "type": "function"
    },
    {
      "inputs": [
        {
          "internalType": "uint256",
          "name": "tokenId",
          "type": "uint256"
        }
      ],
      "name": "getHistoryOfWinners",
      "outputs": [
        {
          "components": [
            {
              "internalType": "address",
              "name": "winner",
              "type": "address"
            },
            {
              "internalType": "uint256",
              "name": "price",
              "type": "uint256"
            },
            {
              "internalType": "uint64",
              "name": "expires",
              "type": "uint64"
            }
          ],
          "internalType": "struct IMonoNFT.Winner[]",
          "name": "",
          "type": "tuple[]"
        }
      ],
      "stateMutability": "view",
      "type": "function"
    },
    {
      "inputs": [],
      "name": "getNFTs",
      "outputs": [
        {
          "components": [
            {
              "internalType": "uint256",
              "name": "tokenId",
              "type": "uint256"
            },
            {
              "internalType": "address",
              "name": "donor",
              "type": "address"
            },
            {
              "internalType": "uint64",
              "name": "expiresDuration",
              "type": "uint64"
            },
            {
              "internalType": "string",
              "name": "uri",
              "type": "string"
            },
            {
              "internalType": "enum IMonoNFT.MonoNFTStatus",
              "name": "status",
              "type": "uint8"
            },
            {
              "components": [
                {
                  "internalType": "address",
                  "name": "shareHolder",
                  "type": "address"
                },
                {
                  "internalType": "uint8",
                  "name": "shareRatio",
                  "type": "uint8"
                }
              ],
              "internalType": "struct IMonoNFT.ShareOfCommunityToken[]",
              "name": "sharesOfCommunityToken",
              "type": "tuple[]"
            }
          ],
          "internalType": "struct IMonoNFT.MonoNFT[]",
          "name": "",
          "type": "tuple[]"
        }
      ],
      "stateMutability": "view",
      "type": "function"
    },
    {
      "inputs": [
        {
          "internalType": "bytes32",
          "name": "role",
          "type": "bytes32"
        }
      ],
      "name": "getRoleAdmin",
      "outputs": [
        {
          "internalType": "bytes32",
          "name": "",
          "type": "bytes32"
        }
      ],
      "stateMutability": "view",
      "type": "function"
    },
    {
      "inputs": [
        {
          "internalType": "bytes32",
          "name": "role",
          "type": "bytes32"
        },
        {
          "internalType": "address",
          "name": "account",
          "type": "address"
        }
      ],
      "name": "grantRole",
      "outputs": [],
      "stateMutability": "nonpayable",
      "type": "function"
    },
    {
      "inputs": [
        {
          "internalType": "bytes32",
          "name": "role",
          "type": "bytes32"
        },
        {
          "internalType": "address",
          "name": "account",
          "type": "address"
        }
      ],
      "name": "hasRole",
      "outputs": [
        {
          "internalType": "bool",
          "name": "",
          "type": "bool"
        }
      ],
      "stateMutability": "view",
      "type": "function"
    },
    {
      "inputs": [
        {
          "internalType": "address",
          "name": "owner",
          "type": "address"
        },
        {
          "internalType": "address",
          "name": "operator",
          "type": "address"
        }
      ],
      "name": "isApprovedForAll",
      "outputs": [
        {
          "internalType": "bool",
          "name": "",
          "type": "bool"
        }
      ],
      "stateMutability": "view",
      "type": "function"
    },
    {
      "inputs": [
        {
          "internalType": "uint256",
          "name": "tokenId",
          "type": "uint256"
        }
      ],
      "name": "isExpired",
      "outputs": [
        {
          "internalType": "bool",
          "name": "",
          "type": "bool"
        }
      ],
      "stateMutability": "view",
      "type": "function"
    },
    {
      "inputs": [],
      "name": "membershipNFTAddress",
      "outputs": [
        {
          "internalType": "address",
          "name": "",
          "type": "address"
        }
      ],
      "stateMutability": "view",
      "type": "function"
    },
    {
      "inputs": [],
      "name": "name",
      "outputs": [
        {
          "internalType": "string",
          "name": "",
          "type": "string"
        }
      ],
      "stateMutability": "view",
      "type": "function"
    },
    {
      "inputs": [
        {
          "internalType": "uint256",
          "name": "tokenId",
          "type": "uint256"
        }
      ],
      "name": "ownerOf",
      "outputs": [
        {
          "internalType": "address",
          "name": "",
          "type": "address"
        }
      ],
      "stateMutability": "view",
      "type": "function"
    },
    {
      "inputs": [
        {
          "internalType": "address",
          "name": "donor",
          "type": "address"
        },
        {
          "internalType": "uint64",
          "name": "expiresDuration",
          "type": "uint64"
        },
        {
          "internalType": "string",
          "name": "uri",
          "type": "string"
        },
        {
          "components": [
            {
              "internalType": "address",
              "name": "shareHolder",
              "type": "address"
            },
            {
              "internalType": "uint8",
              "name": "shareRatio",
              "type": "uint8"
            }
          ],
          "internalType": "struct IMonoNFT.ShareOfCommunityToken[]",
          "name": "sharesOfCommunityToken",
          "type": "tuple[]"
        },
        {
          "internalType": "address",
          "name": "owner",
          "type": "address"
        }
      ],
      "name": "register",
      "outputs": [],
      "stateMutability": "nonpayable",
      "type": "function"
    },
    {
      "inputs": [
        {
          "internalType": "bytes32",
          "name": "role",
          "type": "bytes32"
        },
        {
          "internalType": "address",
          "name": "account",
          "type": "address"
        }
      ],
      "name": "renounceRole",
      "outputs": [],
      "stateMutability": "nonpayable",
      "type": "function"
    },
    {
      "inputs": [
        {
          "internalType": "bytes32",
          "name": "role",
          "type": "bytes32"
        },
        {
          "internalType": "address",
          "name": "account",
          "type": "address"
        }
      ],
      "name": "revokeRole",
      "outputs": [],
      "stateMutability": "nonpayable",
      "type": "function"
    },
    {
      "inputs": [
        {
          "internalType": "uint256",
          "name": "tokenId",
          "type": "uint256"
        }
      ],
      "name": "rightOf",
      "outputs": [
        {
          "internalType": "enum IMonoNFT.MonoNFTRightType",
          "name": "",
          "type": "uint8"
        }
      ],
      "stateMutability": "view",
      "type": "function"
    },
    {
      "inputs": [
        {
          "internalType": "address",
          "name": "from",
          "type": "address"
        },
        {
          "internalType": "address",
          "name": "to",
          "type": "address"
        },
        {
          "internalType": "uint256",
          "name": "tokenId",
          "type": "uint256"
        }
      ],
      "name": "safeTransferFrom",
      "outputs": [],
      "stateMutability": "nonpayable",
      "type": "function"
    },
    {
      "inputs": [
        {
          "internalType": "address",
          "name": "from",
          "type": "address"
        },
        {
          "internalType": "address",
          "name": "to",
          "type": "address"
        },
        {
          "internalType": "uint256",
          "name": "tokenId",
          "type": "uint256"
        },
        {
          "internalType": "bytes",
          "name": "data",
          "type": "bytes"
        }
      ],
      "name": "safeTransferFrom",
      "outputs": [],
      "stateMutability": "nonpayable",
      "type": "function"
    },
    {
      "inputs": [
        {
          "internalType": "address",
          "name": "operator",
          "type": "address"
        },
        {
          "internalType": "bool",
          "name": "approved",
          "type": "bool"
        }
      ],
      "name": "setApprovalForAll",
      "outputs": [],
      "stateMutability": "nonpayable",
      "type": "function"
    },
    {
      "inputs": [
        {
          "internalType": "address",
          "name": "_auctionAdminAddress",
          "type": "address"
        }
      ],
      "name": "setAuctionAdminAddress",
      "outputs": [],
      "stateMutability": "nonpayable",
      "type": "function"
    },
    {
      "inputs": [
        {
          "internalType": "address",
          "name": "_auctionDepositContractAddress",
          "type": "address"
        }
      ],
      "name": "setAuctionDepositAddress",
      "outputs": [],
      "stateMutability": "nonpayable",
      "type": "function"
    },
    {
      "inputs": [
        {
          "internalType": "address",
          "name": "_communityTreasuryAddress",
          "type": "address"
        }
      ],
      "name": "setCommunityTreasuryAddress",
      "outputs": [],
      "stateMutability": "nonpayable",
      "type": "function"
    },
    {
      "inputs": [
        {
          "internalType": "address",
          "name": "_membershipNFTAddress",
          "type": "address"
        }
      ],
      "name": "setMembershipNFTAddress",
      "outputs": [],
      "stateMutability": "nonpayable",
      "type": "function"
    },
    {
      "inputs": [
        {
          "internalType": "uint256",
          "name": "tokenId",
          "type": "uint256"
        },
        {
          "internalType": "address",
          "name": "user",
          "type": "address"
        },
        {
          "internalType": "uint64",
          "name": "expires",
          "type": "uint64"
        }
      ],
      "name": "setUser",
      "outputs": [],
      "stateMutability": "nonpayable",
      "type": "function"
    },
    {
      "inputs": [
        {
          "internalType": "uint256",
          "name": "tokenId",
          "type": "uint256"
        }
      ],
      "name": "submit",
      "outputs": [],
      "stateMutability": "nonpayable",
      "type": "function"
    },
    {
      "inputs": [
        {
          "internalType": "bytes4",
          "name": "interfaceId",
          "type": "bytes4"
        }
      ],
      "name": "supportsInterface",
      "outputs": [
        {
          "internalType": "bool",
          "name": "",
          "type": "bool"
        }
      ],
      "stateMutability": "view",
      "type": "function"
    },
    {
      "inputs": [],
      "name": "symbol",
      "outputs": [
        {
          "internalType": "string",
          "name": "",
          "type": "string"
        }
      ],
      "stateMutability": "view",
      "type": "function"
    },
    {
      "inputs": [
        {
          "internalType": "uint256",
          "name": "index",
          "type": "uint256"
        }
      ],
      "name": "tokenByIndex",
      "outputs": [
        {
          "internalType": "uint256",
          "name": "",
          "type": "uint256"
        }
      ],
      "stateMutability": "view",
      "type": "function"
    },
    {
      "inputs": [
        {
          "internalType": "address",
          "name": "owner",
          "type": "address"
        },
        {
          "internalType": "uint256",
          "name": "index",
          "type": "uint256"
        }
      ],
      "name": "tokenOfOwnerByIndex",
      "outputs": [
        {
          "internalType": "uint256",
          "name": "",
          "type": "uint256"
        }
      ],
      "stateMutability": "view",
      "type": "function"
    },
    {
      "inputs": [
        {
          "internalType": "uint256",
          "name": "tokenId",
          "type": "uint256"
        }
      ],
      "name": "tokenURI",
      "outputs": [
        {
          "internalType": "string",
          "name": "",
          "type": "string"
        }
      ],
      "stateMutability": "view",
      "type": "function"
    },
    {
      "inputs": [],
      "name": "totalSupply",
      "outputs": [
        {
          "internalType": "uint256",
          "name": "",
          "type": "uint256"
        }
      ],
      "stateMutability": "view",
      "type": "function"
    },
    {
      "inputs": [
        {
          "internalType": "address",
          "name": "from",
          "type": "address"
        },
        {
          "internalType": "address",
          "name": "to",
          "type": "address"
        },
        {
          "internalType": "uint256",
          "name": "tokenId",
          "type": "uint256"
        }
      ],
      "name": "transferFrom",
      "outputs": [],
      "stateMutability": "nonpayable",
      "type": "function"
    },
    {
      "inputs": [
        {
          "internalType": "uint256",
          "name": "tokenId",
          "type": "uint256"
        },
        {
          "internalType": "enum IMonoNFT.MonoNFTStatus",
          "name": "status",
          "type": "uint8"
        }
      ],
      "name": "updateMonoNFTStatus",
      "outputs": [],
      "stateMutability": "nonpayable",
      "type": "function"
    },
    {
      "inputs": [
        {
          "internalType": "uint256",
          "name": "tokenId",
          "type": "uint256"
        }
      ],
      "name": "userExpires",
      "outputs": [
        {
          "internalType": "uint64",
          "name": "",
          "type": "uint64"
        }
      ],
      "stateMutability": "view",
      "type": "function"
    },
    {
      "inputs": [
        {
          "internalType": "uint256",
          "name": "tokenId",
          "type": "uint256"
        }
      ],
      "name": "userOf",
      "outputs": [
        {
          "internalType": "address",
          "name": "",
          "type": "address"
        }
      ],
      "stateMutability": "view",
      "type": "function"
    }
  ],
  "bytecode": "0x60806040523480156200001157600080fd5b506040516200428b3803806200428b8339810160408190526200003491620001d7565b81816000620000448382620002d0565b506001620000538282620002d0565b5062000065915060009050336200006d565b50506200039c565b6000828152600b602090815260408083206001600160a01b038516845290915290205460ff166200010e576000828152600b602090815260408083206001600160a01b03851684529091529020805460ff19166001179055620000cd3390565b6001600160a01b0316816001600160a01b0316837f2f8788117e7eff1d82e926ec794901d17c78024a50270940304540a733656f0d60405160405180910390a45b5050565b634e487b7160e01b600052604160045260246000fd5b600082601f8301126200013a57600080fd5b81516001600160401b038082111562000157576200015762000112565b604051601f8301601f19908116603f0116810190828211818310171562000182576200018262000112565b816040528381526020925086838588010111156200019f57600080fd5b600091505b83821015620001c35785820183015181830184015290820190620001a4565b600093810190920192909252949350505050565b60008060408385031215620001eb57600080fd5b82516001600160401b03808211156200020357600080fd5b620002118683870162000128565b935060208501519150808211156200022857600080fd5b50620002378582860162000128565b9150509250929050565b600181811c908216806200025657607f821691505b6020821081036200027757634e487b7160e01b600052602260045260246000fd5b50919050565b601f821115620002cb57600081815260208120601f850160051c81016020861015620002a65750805b601f850160051c820191505b81811015620002c757828155600101620002b2565b5050505b505050565b81516001600160401b03811115620002ec57620002ec62000112565b6200030481620002fd845462000241565b846200027d565b602080601f8311600181146200033c5760008415620003235750858301515b600019600386901b1c1916600185901b178555620002c7565b600085815260208120601f198616915b828110156200036d578886015182559484019460019091019084016200034c565b50858210156200038c5787850151600019600388901b60f8161c191681555b5050505050600190811b01905550565b613edf80620003ac6000396000f3fe608060405234801561001057600080fd5b506004361061030a5760003560e01c80636fc2886b1161019c578063a7d8b482116100ee578063d9548e5311610097578063e985e9c511610071578063e985e9c514610769578063ea99c2a6146107a5578063ff487534146107b857600080fd5b8063d9548e531461070d578063de9fddbb14610743578063e030565e1461075657600080fd5b8063c2f1f14a116100c8578063c2f1f14a146106d4578063c87b56dd146106e7578063d547741f146106fa57600080fd5b8063a7d8b4821461069b578063b88d4fde146106ae578063bbd6dbcf146106c157600080fd5b80638fc88c48116101505780639f7437771161012a5780639f7437771461063d578063a217fddf14610680578063a22cb4651461068857600080fd5b80638fc88c48146105b257806391d14854146105fc57806395d89b411461063557600080fd5b806382f85c3f1161018157806382f85c3f1461056c578063851c9f6f1461057f578063857d983a1461059f57600080fd5b80636fc2886b1461054657806370a082311461055957600080fd5b80632f2ff15d116102605780634f6ccce7116102095780635c57c3c8116101e35780635c57c3c81461050d5780636352211e14610520578063640ae2e41461053357600080fd5b80634f6ccce7146104d4578063543997af146104e7578063595fac40146104fa57600080fd5b8063379607f51161023a578063379607f51461046c5780633d8d43a21461047f57806342842e0e146104c157600080fd5b80632f2ff15d146104335780632f745c591461044657806336568abe1461045957600080fd5b80631e86752c116102c2578063248a9ca31161029c578063248a9ca3146103d95780632998c520146103fc5780632bc24e241461040f57600080fd5b80631e86752c1461039e578063227212f2146103b157806323b872dd146103c657600080fd5b8063081812fc116102f3578063081812fc1461034c578063095ea7b31461037757806318160ddd1461038c57600080fd5b806301ffc9a71461030f57806306fdde0314610337575b600080fd5b61032261031d366004613121565b6107d8565b60405190151581526020015b60405180910390f35b61033f6107e9565b60405161032e919061318e565b61035f61035a3660046131a1565b61087b565b6040516001600160a01b03909116815260200161032e565b61038a6103853660046131da565b6108a2565b005b6008545b60405190815260200161032e565b61038a6103ac36600461332f565b6109d8565b6103b9610c0f565b60405161032e919061347c565b61038a6103d4366004613586565b610e80565b6103906103e73660046131a1565b6000908152600b602052604090206001015490565b61038a61040a3660046135c7565b610ef7565b61042261041d3660046131a1565b610f25565b60405161032e9594939291906135e4565b61038a610441366004613635565b610ff8565b6103906104543660046131da565b61101d565b61038a610467366004613635565b6110c5565b61038a61047a3660046131a1565b611151565b61049261048d366004613665565b6115ac565b604080516001600160a01b039094168452602084019290925267ffffffffffffffff169082015260600161032e565b61038a6104cf366004613586565b611602565b6103906104e23660046131a1565b61161d565b61038a6104f5366004613687565b6116c1565b600f5461035f906001600160a01b031681565b61038a61051b3660046136bc565b6117c8565b61035f61052e3660046131a1565b61197f565b61038a6105413660046135c7565b611a0e565b600e5461035f906001600160a01b031681565b6103906105673660046135c7565b611a3c565b60105461035f906001600160a01b031681565b61059261058d3660046131a1565b611ad6565b60405161032e919061373b565b61038a6105ad3660046135c7565b611b75565b6105e36105c03660046131a1565b6000908152600a6020526040902054600160a01b900467ffffffffffffffff1690565b60405167ffffffffffffffff909116815260200161032e565b61032261060a366004613635565b6000918252600b602090815260408084206001600160a01b0393909316845291905290205460ff1690565b61033f611ba3565b61049261064b3660046131a1565b6012602052600090815260409020805460018201546002909201546001600160a01b03909116919067ffffffffffffffff1683565b610390600081565b61038a6106963660046137a7565b611bb2565b600d5461035f906001600160a01b031681565b61038a6106bc3660046137da565b611bbd565b61038a6106cf36600461385a565b611c3b565b61035f6106e23660046131a1565b611c7e565b61033f6106f53660046131a1565b611cd8565b61038a610708366004613635565b611d7d565b61032261071b3660046131a1565b6000908152600a602052604090205467ffffffffffffffff428116600160a01b909204161090565b61038a6107513660046135c7565b611da2565b61038a610764366004613883565b611dd0565b6103226107773660046138c1565b6001600160a01b03918216600090815260056020908152604080832093909416825291909152205460ff1690565b61038a6107b33660046131a1565b611ece565b6107cb6107c63660046131a1565b612036565b60405161032e91906138ef565b60006107e38261206d565b92915050565b6060600080546107f890613909565b80601f016020809104026020016040519081016040528092919081815260200182805461082490613909565b80156108715780601f1061084657610100808354040283529160200191610871565b820191906000526020600020905b81548152906001019060200180831161085457829003601f168201915b5050505050905090565b6000610886826120ab565b506000908152600460205260409020546001600160a01b031690565b60006108ad82612112565b9050806001600160a01b0316836001600160a01b03160361093b5760405162461bcd60e51b815260206004820152602160248201527f4552433732313a20617070726f76616c20746f2063757272656e74206f776e6560448201527f720000000000000000000000000000000000000000000000000000000000000060648201526084015b60405180910390fd5b336001600160a01b038216148061095757506109578133610777565b6109c95760405162461bcd60e51b815260206004820152603d60248201527f4552433732313a20617070726f76652063616c6c6572206973206e6f7420746f60448201527f6b656e206f776e6572206f7220617070726f76656420666f7220616c6c0000006064820152608401610932565b6109d38383612177565b505050565b60006109e3816121e5565b826000805b8251811015610a2e57828181518110610a0357610a0361393d565b60200260200101516020015182610a1a9190613969565b915080610a2681613982565b9150506109e8565b508060ff16606414610ab45760405162461bcd60e51b815260206004820152604360248201527f4d6f6e6f4e46543a2054686520746f74616c20726174696f206f66207368617260448201527f6573206f6620636f6d6d756e69747920746f6b656e2073686f756c642062652060648201526203130360ec1b608482015260a401610932565b610ac2600c80546001019055565b6000610acd600c5490565b9050610ad985826121ef565b600081815260116020526040902081815560018101805467ffffffffffffffff8b16600160a01b026001600160e01b03199091166001600160a01b038d161717905560028101610b2989826139e9565b5060038101805460ff1916905560005b8751811015610bca5781600401888281518110610b5857610b5861393d565b6020908102919091018101518254600181018455600093845292829020815193018054919092015160ff16600160a01b0274ffffffffffffffffffffffffffffffffffffffffff199091166001600160a01b039093169290921791909117905580610bc281613982565b915050610b39565b50817f374cd1206d085bbb3f018dbb14a70f0af2bed441bcd8cb0e4f74c94d78a51e9582604051610bfb9190613aff565b60405180910390a250505050505050505050565b60606000610c1c600c5490565b67ffffffffffffffff811115610c3457610c3461321e565b604051908082528060200260200182016040528015610c9d57816020015b610c8a6040805160c0810182526000808252602082018190529181018290526060808201529060808201908152602001606081525090565b815260200190600190039081610c525790505b50905060005b600c54811015610e7a5760116000610cbc836001613bf5565b81526020808201929092526040908101600020815160c0810183528154815260018201546001600160a01b03811694820194909452600160a01b90930467ffffffffffffffff1691830191909152600281018054606084019190610d1f90613909565b80601f0160208091040260200160405190810160405280929190818152602001828054610d4b90613909565b8015610d985780601f10610d6d57610100808354040283529160200191610d98565b820191906000526020600020905b815481529060010190602001808311610d7b57829003601f168201915b5050509183525050600382015460209091019060ff166004811115610dbf57610dbf613452565b6004811115610dd057610dd0613452565b815260200160048201805480602002602001604051908101604052809291908181526020016000905b82821015610e4257600084815260209081902060408051808201909152908401546001600160a01b0381168252600160a01b900460ff1681830152825260019092019101610df9565b5050505081525050828281518110610e5c57610e5c61393d565b60200260200101819052508080610e7290613982565b915050610ca3565b50919050565b610e8a3382612388565b610eec5760405162461bcd60e51b815260206004820152602d60248201527f4552433732313a2063616c6c6572206973206e6f7420746f6b656e206f776e6560448201526c1c881bdc88185c1c1c9bdd9959609a1b6064820152608401610932565b6109d3838383612407565b6000610f02816121e5565b50600d80546001600160a01b0319166001600160a01b0392909216919091179055565b60116020526000908152604090208054600182015460028301805492936001600160a01b03831693600160a01b90930467ffffffffffffffff1692909190610f6c90613909565b80601f0160208091040260200160405190810160405280929190818152602001828054610f9890613909565b8015610fe55780601f10610fba57610100808354040283529160200191610fe5565b820191906000526020600020905b815481529060010190602001808311610fc857829003601f168201915b5050506003909301549192505060ff1685565b6000828152600b6020526040902060010154611013816121e5565b6109d3838361260d565b600061102883611a3c565b821061109c5760405162461bcd60e51b815260206004820152602b60248201527f455243373231456e756d657261626c653a206f776e657220696e646578206f7560448201527f74206f6620626f756e64730000000000000000000000000000000000000000006064820152608401610932565b506001600160a01b03919091166000908152600660209081526040808320938352929052205490565b6001600160a01b03811633146111435760405162461bcd60e51b815260206004820152602f60248201527f416363657373436f6e74726f6c3a2063616e206f6e6c792072656e6f756e636560448201527f20726f6c657320666f722073656c6600000000000000000000000000000000006064820152608401610932565b61114d82826126af565b5050565b600e546040517efdd58e000000000000000000000000000000000000000000000000000000008152336004820152600160248201819052916001600160a01b03169062fdd58e90604401602060405180830381865afa1580156111b8573d6000803e3d6000fd5b505050506040513d601f19601f820116820180604052508101906111dc9190613c08565b10156112505760405162461bcd60e51b815260206004820152602e60248201527f4d6f6e6f4e46543a20596f7520646f6e2774206861766520746865206175637460448201527f696f6e206d656d626572204e46540000000000000000000000000000000000006064820152608401610932565b60008181526011602052604090206002600382015460ff16600481111561127957611279613452565b146112ec5760405162461bcd60e51b815260206004820152602360248201527f4d6f6e6f4e46543a205374617475732073686f756c6420626520636f6e66697260448201527f6d656400000000000000000000000000000000000000000000000000000000006064820152608401610932565b600082815260126020908152604091829020825160608101845281546001600160a01b031680825260018301549382019390935260029091015467ffffffffffffffff169281019290925233146113855760405162461bcd60e51b815260206004820152601f60248201527f4d6f6e6f4e46543a20596f7520617265206e6f74207468652077696e6e6572006044820152606401610932565b600061139084612036565b60008581526013602090815260409182902054600d5486519287015193517fe81b94ea00000000000000000000000000000000000000000000000000000000815294955090936001600160a01b039091169263e81b94ea926113fb929091906004808b019101613c21565b600060405180830381600087803b15801561141557600080fd5b505af1158015611429573d6000803e3d6000fd5b5060019250611436915050565b82600181111561144857611448613452565b036114e8576114608584600001518560400151611dd0565b806000036114e8576114766004850160006130c1565b604080518082019091526010546001600160a01b039081168252606460208084019182526004880180546001810182556000918252919020935193018054915160ff16600160a01b0274ffffffffffffffffffffffffffffffffffffffffff1990921693909216929092179190911790555b6003848101805460ff19166001830217905550600085815260136020908152604080832080546001808201835591855293839020875160039095020180546001600160a01b0319166001600160a01b03909516948517815587840151918101829055878301516002909101805467ffffffffffffffff191667ffffffffffffffff909216919091179055905190815287917f3ed1528b0fdc7c5207c1bf935e34a667e13656b9ed165260c522be0bc544f30391015b60405180910390a35050505050565b601360205281600052604060002081815481106115c857600080fd5b60009182526020909120600390910201805460018201546002909201546001600160a01b03909116935090915067ffffffffffffffff1683565b6109d383838360405180602001604052806000815250611bbd565b600061162860085490565b821061169c5760405162461bcd60e51b815260206004820152602c60248201527f455243373231456e756d657261626c653a20676c6f62616c20696e646578206f60448201527f7574206f6620626f756e647300000000000000000000000000000000000000006064820152608401610932565b600882815481106116af576116af61393d565b90600052602060002001549050919050565b60006116cc816121e5565b600083815260116020526040812060038101805460ff19166002179055600101546117099067ffffffffffffffff600160a01b9091041642613c52565b604080516060810182526001600160a01b038881168252602080830188815267ffffffffffffffff86811685870190815260008c8152601290945295909220935184546001600160a01b03191693169290921783559051600183015591516002909101805467ffffffffffffffff191691909216179055905061178c8585612177565b846001600160a01b0316847f85ab5ff8fde0017571e9d06337d92fde5209aae045a00a581280a0fe3ea2c5088560405161159d91815260200190565b60006117d3816121e5565b8282808060200260200160405190810160405280939291908181526020016000905b828210156118215761181260408302860136819003810190613c7a565b815260200190600101906117f5565b50505050506000805b8251811015611870578281815181106118455761184561393d565b6020026020010151602001518261185c9190613969565b91508061186881613982565b91505061182a565b508060ff166064146118f65760405162461bcd60e51b815260206004820152604360248201527f4d6f6e6f4e46543a2054686520746f74616c20726174696f206f66207368617260448201527f6573206f6620636f6d6d756e69747920746f6b656e2073686f756c642062652060648201526203130360ec1b608482015260a401610932565b6000868152601160205260408120906119139060048301906130c1565b60005b8581101561197557816004018787838181106119345761193461393d565b835460018101855560009485526020909420604090910292909201929190910190506119608282613c96565b5050808061196d90613982565b915050611916565b5050505050505050565b60008061198b83611c7e565b90506001600160a01b038116156119a25792915050565b6000838152600260205260409020546001600160a01b031680611a075760405162461bcd60e51b815260206004820152601860248201527f4552433732313a20696e76616c696420746f6b656e20494400000000000000006044820152606401610932565b9392505050565b6000611a19816121e5565b50600e80546001600160a01b0319166001600160a01b0392909216919091179055565b60006001600160a01b038216611aba5760405162461bcd60e51b815260206004820152602960248201527f4552433732313a2061646472657373207a65726f206973206e6f74206120766160448201527f6c6964206f776e657200000000000000000000000000000000000000000000006064820152608401610932565b506001600160a01b031660009081526003602052604090205490565b606060136000838152602001908152602001600020805480602002602001604051908101604052809291908181526020016000905b82821015611b6a576000848152602090819020604080516060810182526003860290920180546001600160a01b031683526001808201548486015260029091015467ffffffffffffffff16918301919091529083529092019101611b0b565b505050509050919050565b6000611b80816121e5565b50601080546001600160a01b0319166001600160a01b0392909216919091179055565b6060600180546107f890613909565b61114d338383612732565b611bc73383612388565b611c295760405162461bcd60e51b815260206004820152602d60248201527f4552433732313a2063616c6c6572206973206e6f7420746f6b656e206f776e6560448201526c1c881bdc88185c1c1c9bdd9959609a1b6064820152608401610932565b611c3584848484612800565b50505050565b6000611c46816121e5565b6000838152601160205260409020600301805483919060ff19166001836004811115611c7457611c74613452565b0217905550505050565b6000818152600a60205260408120544290600160a01b900467ffffffffffffffff1667ffffffffffffffff1610611ccb57506000908152600a60205260409020546001600160a01b031690565b506000919050565b919050565b6000818152601160205260409020600201805460609190611cf890613909565b80601f0160208091040260200160405190810160405280929190818152602001828054611d2490613909565b8015611d715780601f10611d4657610100808354040283529160200191611d71565b820191906000526020600020905b815481529060010190602001808311611d5457829003601f168201915b50505050509050919050565b6000828152600b6020526040902060010154611d98816121e5565b6109d383836126af565b6000611dad816121e5565b50600f80546001600160a01b0319166001600160a01b0392909216919091179055565b611dda3384612388565b611e4c5760405162461bcd60e51b815260206004820152603260248201527f455243343930373a207472616e736665722063616c6c6572206973206e6f742060448201527f6f776e6572206e6f7220617070726f76656400000000000000000000000000006064820152608401610932565b6000838152600a602090815260409182902080546001600160a01b0386166001600160e01b03199091168117600160a01b67ffffffffffffffff871690810291909117835593519384529092909186917f4e06b4e7000e659094299b3533b47b6aa8ad048e95e872d23d1f4ee55af89cfe91015b60405180910390a350505050565b6000611ed9816121e5565b60408051602080820183526000918290528482526011905281902090517fc5d2460186f7233c927e7db2dcc703c0e500b653ca82273b7bfad8045d85a47091611f2791600290910190613d0c565b604051809103902003611f7c5760405162461bcd60e51b815260206004820152601b60248201527f4d6f6e6f4e46543a204e465420646f6573206e6f7420657869737400000000006044820152606401610932565b600160008381526011602052604090206003015460ff166004811115611fa457611fa4613452565b036120175760405162461bcd60e51b815260206004820152602260248201527f4d6f6e6f4e46543a204e465420697320616c726561647920696e20617563746960448201527f6f6e0000000000000000000000000000000000000000000000000000000000006064820152608401610932565b506000908152601160205260409020600301805460ff19166001179055565b6000806120428361197f565b600f549091506001600160a01b03908116908216036120645750600192915050565b50600092915050565b60006001600160e01b031982167f7965db0b0000000000000000000000000000000000000000000000000000000014806107e357506107e382612889565b6000818152600260205260409020546001600160a01b031661210f5760405162461bcd60e51b815260206004820152601860248201527f4552433732313a20696e76616c696420746f6b656e20494400000000000000006044820152606401610932565b50565b6000818152600260205260408120546001600160a01b0316806107e35760405162461bcd60e51b815260206004820152601860248201527f4552433732313a20696e76616c696420746f6b656e20494400000000000000006044820152606401610932565b600081815260046020526040902080546001600160a01b0319166001600160a01b03841690811790915581906121ac82612112565b6001600160a01b03167f8c5be1e5ebec7d5bd14f71427d1e84f3dd0314c0f7b2291e5b200ac8c7c3b92560405160405180910390a45050565b61210f81336128c7565b6001600160a01b0382166122455760405162461bcd60e51b815260206004820181905260248201527f4552433732313a206d696e7420746f20746865207a65726f20616464726573736044820152606401610932565b6000818152600260205260409020546001600160a01b0316156122aa5760405162461bcd60e51b815260206004820152601c60248201527f4552433732313a20746f6b656e20616c7265616479206d696e746564000000006044820152606401610932565b6122b860008383600161293c565b6000818152600260205260409020546001600160a01b03161561231d5760405162461bcd60e51b815260206004820152601c60248201527f4552433732313a20746f6b656e20616c7265616479206d696e746564000000006044820152606401610932565b6001600160a01b038216600081815260036020908152604080832080546001019055848352600290915280822080546001600160a01b0319168417905551839291907fddf252ad1be2c89b69c2b068fc378daa952ba7f163c4a11628f55a4df523b3ef908290a45050565b60008061239483612112565b9050806001600160a01b0316846001600160a01b031614806123db57506001600160a01b0380821660009081526005602090815260408083209388168352929052205460ff165b806123ff5750836001600160a01b03166123f48461087b565b6001600160a01b0316145b949350505050565b826001600160a01b031661241a82612112565b6001600160a01b03161461247e5760405162461bcd60e51b815260206004820152602560248201527f4552433732313a207472616e736665722066726f6d20696e636f72726563742060448201526437bbb732b960d91b6064820152608401610932565b6001600160a01b0382166124f95760405162461bcd60e51b8152602060048201526024808201527f4552433732313a207472616e7366657220746f20746865207a65726f2061646460448201527f72657373000000000000000000000000000000000000000000000000000000006064820152608401610932565b612506838383600161293c565b826001600160a01b031661251982612112565b6001600160a01b03161461257d5760405162461bcd60e51b815260206004820152602560248201527f4552433732313a207472616e736665722066726f6d20696e636f72726563742060448201526437bbb732b960d91b6064820152608401610932565b600081815260046020908152604080832080546001600160a01b03199081169091556001600160a01b0387811680865260038552838620805460001901905590871680865283862080546001019055868652600290945282852080549092168417909155905184937fddf252ad1be2c89b69c2b068fc378daa952ba7f163c4a11628f55a4df523b3ef91a4505050565b6000828152600b602090815260408083206001600160a01b038516845290915290205460ff1661114d576000828152600b602090815260408083206001600160a01b03851684529091529020805460ff1916600117905561266b3390565b6001600160a01b0316816001600160a01b0316837f2f8788117e7eff1d82e926ec794901d17c78024a50270940304540a733656f0d60405160405180910390a45050565b6000828152600b602090815260408083206001600160a01b038516845290915290205460ff161561114d576000828152600b602090815260408083206001600160a01b0385168085529252808320805460ff1916905551339285917ff6391f5c32d9c69d2a47ea670b442974b53935d1edc7fd64eb21e047a839171b9190a45050565b816001600160a01b0316836001600160a01b0316036127935760405162461bcd60e51b815260206004820152601960248201527f4552433732313a20617070726f766520746f2063616c6c6572000000000000006044820152606401610932565b6001600160a01b03838116600081815260056020908152604080832094871680845294825291829020805460ff191686151590811790915591519182527f17307eab39ab6107e8899845ad3d59bd9653f200f220920489ca2b5937696c31910160405180910390a3505050565b61280b848484612407565b612817848484846129d2565b611c355760405162461bcd60e51b815260206004820152603260248201527f4552433732313a207472616e7366657220746f206e6f6e20455243373231526560448201527f63656976657220696d706c656d656e74657200000000000000000000000000006064820152608401610932565b60006001600160e01b031982167fad092b5c0000000000000000000000000000000000000000000000000000000014806107e357506107e382612b29565b6000828152600b602090815260408083206001600160a01b038516845290915290205460ff1661114d576128fa81612b67565b612905836020612b79565b604051602001612916929190613d82565b60408051601f198184030181529082905262461bcd60e51b82526109329160040161318e565b61294884848484612d5a565b826001600160a01b0316846001600160a01b03161415801561298057506000828152600a60205260409020546001600160a01b031615155b15611c35576000828152600a6020908152604080832080546001600160e01b03191690555182815284917f4e06b4e7000e659094299b3533b47b6aa8ad048e95e872d23d1f4ee55af89cfe9101611ec0565b60006001600160a01b0384163b15612b1e57604051630a85bd0160e11b81526001600160a01b0385169063150b7a0290612a16903390899088908890600401613e03565b6020604051808303816000875af1925050508015612a51575060408051601f3d908101601f19168201909252612a4e91810190613e35565b60015b612b04573d808015612a7f576040519150601f19603f3d011682016040523d82523d6000602084013e612a84565b606091505b508051600003612afc5760405162461bcd60e51b815260206004820152603260248201527f4552433732313a207472616e7366657220746f206e6f6e20455243373231526560448201527f63656976657220696d706c656d656e74657200000000000000000000000000006064820152608401610932565b805181602001fd5b6001600160e01b031916630a85bd0160e11b1490506123ff565b506001949350505050565b60006001600160e01b031982167f780e9d630000000000000000000000000000000000000000000000000000000014806107e357506107e382612e96565b60606107e36001600160a01b03831660145b60606000612b88836002613e52565b612b93906002613bf5565b67ffffffffffffffff811115612bab57612bab61321e565b6040519080825280601f01601f191660200182016040528015612bd5576020820181803683370190505b5090507f300000000000000000000000000000000000000000000000000000000000000081600081518110612c0c57612c0c61393d565b60200101906001600160f81b031916908160001a9053507f780000000000000000000000000000000000000000000000000000000000000081600181518110612c5757612c5761393d565b60200101906001600160f81b031916908160001a9053506000612c7b846002613e52565b612c86906001613bf5565b90505b6001811115612d0b577f303132333435363738396162636465660000000000000000000000000000000085600f1660108110612cc757612cc761393d565b1a60f81b828281518110612cdd57612cdd61393d565b60200101906001600160f81b031916908160001a90535060049490941c93612d0481613e69565b9050612c89565b508315611a075760405162461bcd60e51b815260206004820181905260248201527f537472696e67733a20686578206c656e67746820696e73756666696369656e746044820152606401610932565b6001811115612dd15760405162461bcd60e51b815260206004820152603560248201527f455243373231456e756d657261626c653a20636f6e736563757469766520747260448201527f616e7366657273206e6f7420737570706f7274656400000000000000000000006064820152608401610932565b816001600160a01b038516612e2d57612e2881600880546000838152600960205260408120829055600182018355919091527ff3f7a9fe364faab93b216da50a3214154f22a0a2b415b23a84c8169e8b636ee30155565b612e50565b836001600160a01b0316856001600160a01b031614612e5057612e508582612f31565b6001600160a01b038416612e6c57612e6781612fce565b612e8f565b846001600160a01b0316846001600160a01b031614612e8f57612e8f848261307d565b5050505050565b60006001600160e01b031982167f80ac58cd000000000000000000000000000000000000000000000000000000001480612ef957506001600160e01b031982167f5b5e139f00000000000000000000000000000000000000000000000000000000145b806107e357507f01ffc9a7000000000000000000000000000000000000000000000000000000006001600160e01b03198316146107e3565b60006001612f3e84611a3c565b612f489190613e80565b600083815260076020526040902054909150808214612f9b576001600160a01b03841660009081526006602090815260408083208584528252808320548484528184208190558352600790915290208190555b5060009182526007602090815260408084208490556001600160a01b039094168352600681528383209183525290812055565b600854600090612fe090600190613e80565b600083815260096020526040812054600880549394509092849081106130085761300861393d565b9060005260206000200154905080600883815481106130295761302961393d565b600091825260208083209091019290925582815260099091526040808220849055858252812055600880548061306157613061613e93565b6001900381819060005260206000200160009055905550505050565b600061308883611a3c565b6001600160a01b039093166000908152600660209081526040808320868452825280832085905593825260079052919091209190915550565b508054600082559060005260206000209081019061210f91905b8082111561310757805474ffffffffffffffffffffffffffffffffffffffffff191681556001016130db565b5090565b6001600160e01b03198116811461210f57600080fd5b60006020828403121561313357600080fd5b8135611a078161310b565b60005b83811015613159578181015183820152602001613141565b50506000910152565b6000815180845261317a81602086016020860161313e565b601f01601f19169290920160200192915050565b602081526000611a076020830184613162565b6000602082840312156131b357600080fd5b5035919050565b6001600160a01b038116811461210f57600080fd5b8035611cd3816131ba565b600080604083850312156131ed57600080fd5b82356131f8816131ba565b946020939093013593505050565b803567ffffffffffffffff81168114611cd357600080fd5b634e487b7160e01b600052604160045260246000fd5b604051601f8201601f1916810167ffffffffffffffff8111828210171561325d5761325d61321e565b604052919050565b600067ffffffffffffffff83111561327f5761327f61321e565b613292601f8401601f1916602001613234565b90508281528383830111156132a657600080fd5b828260208301376000602084830101529392505050565b60ff8116811461210f57600080fd5b6000604082840312156132de57600080fd5b6040516040810181811067ffffffffffffffff821117156133015761330161321e565b6040529050808235613312816131ba565b81526020830135613322816132bd565b6020919091015292915050565b600080600080600060a0868803121561334757600080fd5b8535613352816131ba565b94506020613361878201613206565b945060408088013567ffffffffffffffff8082111561337f57600080fd5b818a0191508a601f83011261339357600080fd5b6133a18b8335868501613265565b965060608a01359150808211156133b757600080fd5b818a0191508a601f8301126133cb57600080fd5b8135818111156133dd576133dd61321e565b6133eb858260051b01613234565b818152858101925060069190911b83018501908c82111561340b57600080fd5b928501925b81841015613431576134228d856132cc565b83529284019291850191613410565b809750505050505050613446608087016131cf565b90509295509295909350565b634e487b7160e01b600052602160045260246000fd5b6005811061347857613478613452565b9052565b60006020808301818452808551808352604092508286019150828160051b8701018488016000805b8481101561357757603f198a8503018652825160c081518652898201516001600160a01b038082168c89015267ffffffffffffffff8b850151168b890152606091508184015183838a01526134fb848a0182613162565b9350506080915081840151613512838a0182613468565b5060a093840151888403948901949094528351808452938c019386938d0192505b808410156135615784518051831684528d015160ff168d840152938c019360019390930192918b0191613533565b5050978a019795505050918701916001016134a4565b50919998505050505050505050565b60008060006060848603121561359b57600080fd5b83356135a6816131ba565b925060208401356135b6816131ba565b929592945050506040919091013590565b6000602082840312156135d957600080fd5b8135611a07816131ba565b8581526001600160a01b038516602082015267ffffffffffffffff8416604082015260a06060820152600061361c60a0830185613162565b905061362b6080830184613468565b9695505050505050565b6000806040838503121561364857600080fd5b82359150602083013561365a816131ba565b809150509250929050565b6000806040838503121561367857600080fd5b50508035926020909101359150565b60008060006060848603121561369c57600080fd5b83356136a7816131ba565b95602085013595506040909401359392505050565b6000806000604084860312156136d157600080fd5b83359250602084013567ffffffffffffffff808211156136f057600080fd5b818601915086601f83011261370457600080fd5b81358181111561371357600080fd5b8760208260061b850101111561372857600080fd5b6020830194508093505050509250925092565b602080825282518282018190526000919060409081850190868401855b8281101561379a57815180516001600160a01b03168552868101518786015285015167ffffffffffffffff168585015260609093019290850190600101613758565b5091979650505050505050565b600080604083850312156137ba57600080fd5b82356137c5816131ba565b91506020830135801515811461365a57600080fd5b600080600080608085870312156137f057600080fd5b84356137fb816131ba565b9350602085013561380b816131ba565b925060408501359150606085013567ffffffffffffffff81111561382e57600080fd5b8501601f8101871361383f57600080fd5b61384e87823560208401613265565b91505092959194509250565b6000806040838503121561386d57600080fd5b8235915060208301356005811061365a57600080fd5b60008060006060848603121561389857600080fd5b8335925060208401356138aa816131ba565b91506138b860408501613206565b90509250925092565b600080604083850312156138d457600080fd5b82356138df816131ba565b9150602083013561365a816131ba565b602081016002831061390357613903613452565b91905290565b600181811c9082168061391d57607f821691505b602082108103610e7a57634e487b7160e01b600052602260045260246000fd5b634e487b7160e01b600052603260045260246000fd5b634e487b7160e01b600052601160045260246000fd5b60ff81811683821601908111156107e3576107e3613953565b60006001820161399457613994613953565b5060010190565b601f8211156109d357600081815260208120601f850160051c810160208610156139c25750805b601f850160051c820191505b818110156139e1578281556001016139ce565b505050505050565b815167ffffffffffffffff811115613a0357613a0361321e565b613a1781613a118454613909565b8461399b565b602080601f831160018114613a4c5760008415613a345750858301515b600019600386901b1c1916600185901b1785556139e1565b600085815260208120601f198616915b82811015613a7b57888601518255948401946001909101908401613a5c565b5085821015613a995787850151600019600388901b60f8161c191681555b5050505050600190811b01905550565b6000815480845260208085019450836000528060002060005b83811015613af45781546001600160a01b038116885260a01c60ff168388015260409096019560019182019101613ac2565b509495945050505050565b600060208083528354818401526001808501546001600160a01b038116604086015267ffffffffffffffff8160a01c166060860152506002850160c0608086015260008154613b4d81613909565b8060e089015261010085831660008114613b6e5760018114613b8857613bb6565b60ff1984168a83015282151560051b8a0182019450613bb6565b856000528760002060005b84811015613bae5781548c8201850152908801908901613b93565b8b0183019550505b50505050600387015460ff169350613bd160a0870185613468565b858103601f190160c0870152613bea8160048901613aa9565b979650505050505050565b808201808211156107e3576107e3613953565b600060208284031215613c1a57600080fd5b5051919050565b6001600160a01b0384168152826020820152606060408201526000613c496060830184613aa9565b95945050505050565b67ffffffffffffffff818116838216019080821115613c7357613c73613953565b5092915050565b600060408284031215613c8c57600080fd5b611a0783836132cc565b8135613ca1816131ba565b6001600160a01b03811690508154816001600160a01b031982161783556020840135613ccc816132bd565b74ff00000000000000000000000000000000000000008160a01b168374ffffffffffffffffffffffffffffffffffffffffff198416171784555050505050565b6000808354613d1a81613909565b60018281168015613d325760018114613d4757613d76565b60ff1984168752821515830287019450613d76565b8760005260208060002060005b85811015613d6d5781548a820152908401908201613d54565b50505082870194505b50929695505050505050565b7f416363657373436f6e74726f6c3a206163636f756e7420000000000000000000815260008351613dba81601785016020880161313e565b7f206973206d697373696e6720726f6c65200000000000000000000000000000006017918401918201528351613df781602884016020880161313e565b01602801949350505050565b60006001600160a01b0380871683528086166020840152508360408301526080606083015261362b6080830184613162565b600060208284031215613e4757600080fd5b8151611a078161310b565b80820281158282048414176107e3576107e3613953565b600081613e7857613e78613953565b506000190190565b818103818111156107e3576107e3613953565b634e487b7160e01b600052603160045260246000fdfea2646970667358221220cbb35d8652ff26c053b30b10a092c70439bce67572f2d614fa7449df8aeceef664736f6c63430008120033",
  "linkReferences": {},
  "deployedLinkReferences": {}
}